:020000040000FA
:10C000003DB8F396000000000002000088B2000076
:10C010000000000000000000000000000000000020
:10C02000FFFFFFFFFFFFFFFFFFFFFFFFFFFFFFFF20
:10C03000FFFFFFFFFFFFFFFFFFFFFFFFFFFFFFFF10
:10C04000FFFFFFFFFFFFFFFFFFFFFFFFFFFFFFFF00
:10C05000FFFFFFFFFFFFFFFFFFFFFFFFFFFFFFFFF0
:10C06000FFFFFFFFFFFFFFFFFFFFFFFFFFFFFFFFE0
:10C07000FFFFFFFFFFFFFFFFFFFFFFFFFFFFFFFFD0
:10C08000FFFFFFFFFFFFFFFFFFFFFFFFFFFFFFFFC0
:10C09000FFFFFFFFFFFFFFFFFFFFFFFFFFFFFFFFB0
:10C0A000FFFFFFFFFFFFFFFFFFFFFFFFFFFFFFFFA0
:10C0B000FFFFFFFFFFFFFFFFFFFFFFFFFFFFFFFF90
:10C0C000FFFFFFFFFFFFFFFFFFFFFFFFFFFFFFFF80
:10C0D000FFFFFFFFFFFFFFFFFFFFFFFFFFFFFFFF70
:10C0E000FFFFFFFFFFFFFFFFFFFFFFFFFFFFFFFF60
:10C0F000FFFFFFFFFFFFFFFFFFFFFFFFFFFFFFFF50
:10C10000FFFFFFFFFFFFFFFFFFFFFFFFFFFFFFFF3F
:10C11000FFFFFFFFFFFFFFFFFFFFFFFFFFFFFFFF2F
:10C12000FFFFFFFFFFFFFFFFFFFFFFFFFFFFFFFF1F
:10C13000FFFFFFFFFFFFFFFFFFFFFFFFFFFFFFFF0F
:10C14000FFFFFFFFFFFFFFFFFFFFFFFFFFFFFFFFFF
:10C15000FFFFFFFFFFFFFFFFFFFFFFFFFFFFFFFFEF
:10C16000FFFFFFFFFFFFFFFFFFFFFFFFFFFFFFFFDF
:10C17000FFFFFFFFFFFFFFFFFFFFFFFFFFFFFFFFCF
:10C18000FFFFFFFFFFFFFFFFFFFFFFFFFFFFFFFFBF
:10C19000FFFFFFFFFFFFFFFFFFFFFFFFFFFFFFFFAF
:10C1A000FFFFFFFFFFFFFFFFFFFFFFFFFFFFFFFF9F
:10C1B000FFFFFFFFFFFFFFFFFFFFFFFFFFFFFFFF8F
:10C1C000FFFFFFFFFFFFFFFFFFFFFFFFFFFFFFFF7F
:10C1D000FFFFFFFFFFFFFFFFFFFFFFFFFFFFFFFF6F
:10C1E000FFFFFFFFFFFFFFFFFFFFFFFFFFFFFFFF5F
:10C1F000FFFFFFFFFFFFFFFFFFFFFFFFFFFFFFFF4F
:10C200008024002015D00000DB3E010001D000009A
:10C2100001D0000001D0000001D0000000000000AB
:10C22000000000000000000000000000EDD1000050
:10C2300001D0000000000000B9D1000001D00000D2
:10C24000A1D30000A1D30000A1D30000A1D300001E
:10C25000A1D30000A1D30000A1D30000A1D300000E
:10C26000A1D30000A1D30000A1D30000A1D30000FE
:10C27000A1D30000A1D30000A1D30000A1D30000EE
:10C28000A1D30000A1D30000A1D30000A1D30000DE
:10C29000A1D30000A1D30000A1D30000A1D30000CE
:10C2A000A1D30000A1D30000A1D30000A1D30000BE
:10C2B000A1D30000A1D30000A1D30000A1D30000AE
:10C2C000A1D30000A1D30000A1D30000A1D300009E
:10C2D000A1D30000A1D30000A1D30000A1D300008E
:10C2E000A1D30000A1D30000A1D30000A1D300007E
:10C2F000A1D30000A1D30000A1D30000A1D300006E
:10C3000053B94AB9002908BF00281CBF4FF0FF31BC
:10C310004FF0FF3000F00CB8ADF1080C6DE904CE21
:10C3200000F008F8DDF804E0DDE9022304B070470E
:10C33000704700BF2DE9F04786468C460846089EA8
:10C34000154674461946002B40F0C2808542B2FA69
:10C3500082F245D94AB1C2F1200300FA02FC2EFA5A
:10C3600003F3954043EA0C0C94404FEA154EA8B2F3
:10C37000BCFBFEF8230C0EFB18CC08FB00F943EACB
:10C380000C43994528D9EB1808F1FF3704D2994599
:10C3900002D9A8F102072B44A3EB0903A4B2B3FB13
:10C3A000FEFC0EFB1C330CFB00F044EA0344A042ED
:10C3B00014D92C190CF1FF3304D2A04202D9ACF1EC
:10C3C00002032C44241A43EA07401EB1D440002340
:10C3D00034607360BDE8F0874746DDE76346F1E708
:10C3E00092BB431B01214FEA154EAFB2B3FBFEFCDB
:10C3F000200C0EFB1C330CFB07F840EA0343984566
:10C4000062D9EB180CF1FF3004D2984502D9ACF197
:10C4100002002B44A3EB0803A4B2B3FBFEFC0EFB0B
:10C420001C330CFB07F744EA0344A7424ED92C19EE
:10C430000CF1FF3304D2A74202D9ACF102032C4421
:10C44000E41B43EA0040C0E7C2F1200320FA03F1F5
:10C45000954090402EFA03F303434FEA154EAFB2D6
:10C46000B1FBFEFC0EFB1C10190C0CFB07F841EA9B
:10C470000041884504FA02F422D969180CF1FF3012
:10C4800004D2884502D9ACF102002944A1EB08018D
:10C490009BB2B1FBFEFC0EFB1C110CFB07F743EA41
:10C4A00001439F420ED9EB180CF1FF3104D29F4299
:10C4B00002D9ACF102012B44DB1B41EA004192E7B7
:10C4C0006046E3E76146F7E76046A3E76346B7E700
:10C4D000834206D916B9002108467BE7C6E900E089
:10C4E000F9E7B3FA83F78FB9834201D3724508D8CD
:10C4F000BEEB020460EB030301209C461EB9002141
:10C5000068E73846FAE7C6E9004CF8E7C7F1200CBF
:10C51000BB4022FA0CF41C432EFA0CF120FA0CF367
:10C52000B84001434FEA14490EFA07F5B3FBF9F896
:10C530001FFA84FE09FB18300B0C08FB0EFA43EAC5
:10C5400000439A4502FA07F240D9E31808F1FF3098
:10C5500004D29A4502D9A8F102002344A3EB0A03AE
:10C5600089B2B3FBF9F809FB183308FB0EFE41EA68
:10C5700003418E452CD9611808F1FF3304D28E4552
:10C5800002D9A8F10203214443EA0040A0FB02982B
:10C59000A1EB0E014145CE46434602D306D14D459F
:10C5A00004D2B9EB020E68EB04030138002EA6D0CA
:10C5B000B5EB0E0261EB030101FA0CFC22FA07F362
:10C5C0004CEA0303F940C6E9003198E74046C5E765
:10C5D0004346D9E72DE9F041374809F016FD002818
:10C5E00065D0364806F04DFF002860DB344806F081
:10C5F00048FF00285BDB334806F043FF002856DB8A
:10C6000031482E4C07F03EFA304807F03BFA03253C
:10C610000121204606F04FFF642006F060FF002154
:10C62000204606F048FF642006F059FF013DEFD197
:10C63000224E234FDFF88C800324B5FBF4F404EB87
:10C6400044042C1B012C16D0022C22D00121304690
:10C6500006F031FF0021384606F02DFF404600214C
:10C6600006F029FF1A4807F00DFA4FF4FA60013579
:10C6700006F035FFE0E70021304606F01CFF2146BA
:10C68000384606F018FF4046002106F014FF114816
:10C69000E9E70021304606F00EFF0021384606F09B
:10C6A0000AFF4046012106F006FF0B48DBE74FF08A
:10C6B000FF30BDE8F08100BFD8680100086B0100C1
:10C6C000006B0100F86A0100AC6E0100E66E01002B
:10C6D0000C6F0100176F0100236F0100014B1B68F5
:10C6E000184700BFF0040020014B1860704700BFDE
:10C6F000F004002030B585B004460D46102200211C
:10C7000068460AF008F802238DF802302A46044BE6
:10C7100001932146684606F057FC05B030BD00BFC6
:10C72000DDC6000080B505460E461746984606F061
:10C7300007FA03460AF066F8DFF81890044649F84D
:10C740000030424630463946A84754F8090000F008
:10C75000E1FC00BF0800000008B50446EFF31183B8
:10C76000202383F31288BFF36F8F03F07DFF2046F1
:10C7700000F07AFC024807F085F907F0C0FBFCE7FF
:10C780002E6F01002DE9F043079D15B915600020BB
:10C7900012E00324B5FBF4F404EB4407BD4218BFD8
:10C7A0000134B4F1804F09D2A40001348C4200D886
:10C7B00038B914606FF00B00BDE8F0834FF0FF3420
:10C7C000F7E7DFF8BCE004460021B94203F1030CAF
:10C7D00004F104062CD3A942274624D21F7801F184
:10C7E000010CAC45264938BF5B784FEAA70E28BF3D
:10C7F000002311F80EE084F800E0AC4501EB131EB5
:10C800003CBF9B0003F03C034FEA071707F03007DB
:10C8100038BFCB5C1EF80770677028BF3D23A3703C
:10C820003D23E3703746381A002310603B70AEE7B3
:10C830001CF8034C1CF8023C1CF8018C4FEAA409BC
:10C8400024011EF8099006F8049C04F030040EEB55
:10C8500013199B0019F8044006F8034C03F03C033D
:10C860000EEB981408F03F08E35C06F8023C1EF853
:10C87000083006F8013C033134466346A5E700BFA3
:10C88000D76F01002DE9F043DDF81CE0DFF82C81C3
:10C8900000273C463D4675451FD3E4BB146000208D
:10C8A000BDE8F0830136764533D013F806C0BCF1FD
:10C8B000200FF7D0AEEB0609B9F1010FA6EB050585
:10C8C0000DD0BCF10D0F0AD103EB060999F80190C8
:10C8D000B9F10A0F6ED1751CDDE72E46E3E7BCF116
:10C8E0000A0FF8D02DB9BCF13D0F05D10137022F49
:10C8F0000DD96FF01500D3E71CF0800FF9D118F8AF
:10C900000C507F2DF5D03F2D01D8002FF1D10134EF
:10C91000E1E73546C1E704F007064FF0060CE408EE
:10C920000CFB06F60CFB04F40736E41B04EBD60400
:10C9300070B18C420CD80027DFF880E0DFF88080EF
:10C940001D44014603263C469D4205D10C1AA5E72D
:10C9500014606FF00B00A3E713F8019BA9F10A0C18
:10C960005FFA8CFCBCF1160F04D848FA0CFC1CF0E2
:10C97000010FE9D01EF809C00134BCF1400F08BF17
:10C98000013E0CF03F0C042C4CEA8717DCD17EB141
:10C990003C0C012E0C7002D101310024D4E7022E90
:10C9A0004FEA17244C7016BF8F7002310331F4E741
:10C9B0003446C9E7002DA2D09BE700BF576F0100A6
:10C9C000F6FFBFFF2DE9F047058B04462807904688
:10C9D00011D4022905F0070540F0CC80204607F06D
:10C9E0005EF878B10138218B042811D8DFE800F017
:10C9F000C2106D85950001290CBF45F0100545F06A
:10CA00002005258388F31188BFF36F8FBDE8F08779
:10CA100001F0070AAA4500F0A5800027B9463E4666
:10CA2000A368002B00F0BC8041F00801218388F34B
:10CA30001188BFF36F8FA168002900F0BA800D68DC
:10CA4000002900F0B680D1F80480334652462046D3
:10CA5000C047002D76D02B6829461D46F0E701F02F
:10CA600007035A1F012A1BD8002221F00701062BB9
:10CA7000276889B2C4E9002209D13B4603E0628BF2
:10CA8000013262831B68002BF9D141F0020121833E
:10CA9000204607F004F800287AD041F0200176E023
:10CAA000042B0AD121F0070189B22183204606F028
:10CAB000F6FF10B141F020012183218B01F0070A1C
:10CAC000AA454FD00027B946AAE7236921F00701FC
:10CAD00041F00601062DD3F8009021832DD1B9F144
:10CAE000000F3FD041F00801218388F31188BFF384
:10CAF0006F8F3A492046C84729E021F00701236992
:10CB000041F0040189B2042DD3F804902183E6D0CA
:10CB100000273E464FF0040A82E721F0070123690F
:10CB200041F0050189B2052DD3F808902183D6D0B4
:10CB300000273E464FF0050A72E700273E464FF0B9
:10CB4000060A6DE72B4687E7B9F1000FD1D1EFF365
:10CB50001188202383F31288BFF36F8F238B23F078
:10CB600008032383258BEA062ED525F010032383A3
:10CB700005F007056669218B002EBFF670AF002314
:10CB80002768C4E9003321F0070141F00101218346
:10CB9000218B01F0070AAA454FF000097FF440AF4E
:10CBA000002F9CD041F00801218388F31188BFF346
:10CBB0006F8F002FC8D03D68394633465246204615
:10CBC00006F099FF2F46F4E7AB067FF51BAF25F083
:10CBD0002003238305F0070500E700BF233B010086
:10CBE000014B036000207047106B010070B5114BC2
:10CBF0001C680D46DCB1104B196800238B4202DB28
:10CC00006FF0010070BD224612F8106B864202D010
:10CC100001331446F2E7E06810B96FF01200F1E753
:10CC200009F0F3F90028F8D02C600020EAE76FF053
:10CC30000C00E7E7F4040020106B01002DE9F34736
:10CC40000D46DDE90A7891461E46044620B96FF08C
:10CC50000D0002B0BDE8F0870029F8D0002AF6D018
:10CC60000093002301938B680846DB6898470268AD
:10CC7000B6FBF2F302FB136382462262002BE6D17D
:10CC80006A461349284607F090FE019A002ADED032
:10CC900007EB08039A42DAD3216AB7FBF1F301FBF1
:10CCA0001373002BD3D1C4E90096E5602361A36020
:10CCB0006761B8F1000F01D1A2EB07080C9BC4F823
:10CCC0001880E3619AF8053084F824300020C0E72A
:10CCD0001B3D010008B5044806F0D4FEBDE808403D
:10CCE000024806F0CFBE00BF177001004C70010073
:10CCF00030BFFFF7FDBF00BF2DE9F0410B4EDFF85D
:10CD0000308006EB0807CC1B054632460949204611
:10CD100009F0D9FCA01942460021083C09F0FBFCAF
:10CD20002C6707F10800BDE8F08100BF000000009B
:10CD300004000000D86A0100074A936893F90E10B6
:10CD4000002907DB526993421FBF044A536843F02E
:10CD500080535360704700BFF00D002000ED00E0ED
:10CD600070B5264B15469A6A12F0100F9A6A14BFD6
:10CD70001124102412F0080F9A6A18BF1224920787
:10CD800006460AD5586B9A6A140634D519B19A6AC0
:10CD900022F080029A62132401E06FF01500174B15
:10CDA0009A6A12F0010F9A6A18BF142412F0200F29
:10CDB0009A6A18BF1524D20602D49B6A9B070AD52B
:10CDC0000E4B5B68190506D5314600F09FFA10B18D
:10CDD00080F309880224094B9A6A920642BF5A6A74
:10CDE00022F400525A629A6A42F0FF029A620023C9
:10CDF0002B70204670BD6FF01500CCE700ED00E011
:10CE0000134B9A6A12F0007F9A6A14BF1E201D20ED
:10CE100012F0807F9A6A18BF1F2012F4002F9A6ABE
:10CE200018BF212012F4802F9A6A18BF222012F412
:10CE3000003F9A6A18BF232012F4803F9A6A6FEA73
:10CE400002426FEA12429A6218BF2420704700BF64
:10CE500000ED00E010B5194B0246986A9C6A10F488
:10CE6000805F14BF1720162014F4006F9C6A18BF4F
:10CE70001820A40509D5986B986A000404D51AB146
:10CE80009A6A22F400429A6219200C4B9A6A12F4B0
:10CE9000806F9A6A18BF1A20D2050CD49B6A13F4CB
:10CEA000005F18BF1C20054A936A43F47F439362D6
:10CEB00000230B7010BD1B20F5E700BF00ED00E064
:10CEC000F0B5484B5B688BB00446C3F308030025FC
:10CED00085F31188BFF36F8F02F07F40B0F17F4F71
:10CEE00011D102F00C0008280DD010074CBF0C46E1
:10CEF00001250022033B8DF80720032B05D8DFE82E
:10CF000003F0246367602C46F3E700239DF80720B5
:10CF1000CAB902AE04F1200720686168324603C234
:10CF20000834BC421646F7D1099A002D54D0C2F3FA
:10CF3000080121B96FEA52226FEA4222099202A93E
:10CF4000184606F0C0FF0BB0F0BD264BDA6A910719
:10CF5000DBD4DA6A002AD8DBDA6A5200D5D55A69FE
:10CF6000A16942F480725A61BFF34F8FBFF36F8F94
:10CF70005A6931F8021C22F480725A61BFF34F8F54
:10CF8000BFF36F8F4DF6027291420AD09A6AD2B205
:10CF90004AB10DF1070201212046FFF7E1FE0346E9
:10CFA000B4E72368B2E79A6A12F47F4F05D00DF117
:10CFB00007010120FFF74EFFF1E79B6AB3F5803FC1
:10CFC000A3D3FFF71DFFEAE70DF107020021E3E716
:10CFD0000DF107010020EDE722F4FF7222F00102BB
:10CFE000ACE700BF00ED00E0044B5A6942F01002CC
:10CFF0005A615A6922F008025A61704700ED00E058
:10D00000EFF30880EFF3098101B57246FFF758FF8F
:10D0100001BD00BF002080F31488BFF36F8F03F0C1
:10D020000DFC00200D490860BFF34F8F0C4880F3C2
:10D03000088800F03DF8202080F3118809484FF45B
:10D040000461401880F30988EFF31480022108433B
:10D0500080F31488BFF36F8F00F020F994ED00E0A7
:10D0600080240020C0160020BFF34F8F0549064BD7
:10D07000CA6802F4E0621343CB60BFF34F8F00BF76
:10D08000FDE700BF00ED00E00400FA050749D1F814
:10D0900090200023C2F307221846934200DB70471A
:10D0A000C1F89830C1F8A0000133F6E700ED00E0C8
:10D0B00008B572B6002383F31388FFF7E7FF144B1C
:10D0C0004FF0FF32C3F88020C3F88420C3F88820D3
:10D0D000C3F88C20C3F89020C3F89420C3F898209C
:10D0E000C3F89C20C3F88021C3F88421C3F88821A9
:10D0F000C3F88C21C3F89021C3F89421C3F8982178
:10D10000C3F89C2162B6BFF34F8FBFF36F8F08BD8A
:10D1100000E100E0084B9B6883420BD1EFF30583ED
:10D1200043B1064B5A6842F080525A605A6A22F460
:10D1300000425A6209F01EBAF00D002000ED00E036
:10D14000094A93686FF00A019967084958674B6864
:10D1500043F080534B60002383F31188BFF36F8F3C
:10D160009368986F704700BFF00D002000ED00E05D
:10D1700010B50446EFF31183202383F31288BFF325
:10D180006F8F0A4B58699860094B4FF000625A60E4
:10D19000084B026F1A600022436F426783F31188C5
:10D1A000BFF36F8F00F01AF9204610BDF00D00207C
:10D1B00000ED00E0080A00200B498A684FF03000BB
:10D1C0001044EFF3098C80E8F01F74467046FFF7B7
:10D1D000CFFFA64604498A6802F1300090E8F01FAC
:10D1E0008CF3098870470000F00D00201EF0040F3A
:10D1F0000CBFEFF30880EFF30980816911F8021C7E
:10D200000229FFD001B506F064FE01BD40B200283E
:10D2100007DB044A4109012300F01F00834042F864
:10D220002130704700E100E040B200280CDB4309E8
:10D23000064900F01F0020330122824041F82320DC
:10D24000BFF34F8FBFF36F8F704700BF00E100E067
:10D25000054B420900F01F0053F82220012303FA76
:10D2600000F01040704700BF00E100E040B200282D
:10D27000A8BF00F1604001F10101B8BF064B4FEAC1
:10D280004111ACBF00F5614000F00F00C9B2B4BF5E
:10D29000195480F80013704714ED00E00B4A08B5EC
:10D2A0000B4B22F07F029A60BFF34F8FBFF36F8F5B
:10D2B000D3F8882022F47002C3F8882004F044FEDA
:10D2C00005F0DCFC00F060F804F082FE00C2000013
:10D2D00000ED00E042F8203C009B42F81C3C0A496B
:10D2E000019B42F8183C029B42F8143C21F00101DA
:10D2F0004FF0807342F8043C42F8081C0023203AA7
:10D3000002654367704700BF25C70000094A03460E
:10D31000906870B113F1160F006E05D0A0F14002B5
:10D320009A4205D8834203D2814228BF0020704729
:10D3300000207047F00D002008B515460B4A0C4B35
:10D340009060026F1A600E4600F048F82C4686F393
:10D3500009884FF00000074B984720464FF0000126
:10D360004FF000024FF00003034C2047F00D002067
:10D37000080A0020F13E010025C70000014B1022E1
:10D380001A61704700ED00E0044800232021C21814
:10D390000133302B82F80013F9D1704700E100E02F
:10D3A00008B5EFF30583064A103B02EBC30152F8C0
:10D3B000330049688847BDE80840FFF7BDBC00BF9F
:10D3C00050690100024B034A0348012100F076B87E
:10D3D0000000022000000020846B0100026E054B5B
:10D3E000403A1A60044A4021C3E90112184601215B
:10D3F00000F06EB80C0A002000000B15084AC2F8B5
:10D4000098000B6823F01F03034343F01003C2F896
:10D410009C308B6843F00103C2F8A030704700BF16
:10D4200000ED00E02DE9F043DFF8608085B00E46A6
:10D430001F4604464FF00009B14523DA6068D8B1B1
:10D440003FB1411E08421BD11F2819D92368194238
:10D4500016D12368019306F06EFDA368034303937E
:10D46000D8F89050C5F30725D0B2013DA84207D89F
:10D4700001A9FFF7C3FF421C09F101090C34DBE7E6
:10D480006FF01502104605B0BDE8F08300ED00E036
:10D49000044B0522C3F89420BFF34F8FBFF36F8F67
:10D4A000704700BF00ED00E0BFF35F8F024B00222A
:10D4B000C3F89420704700BF00ED00E010B5034CA6
:10D4C00001232278FFF7AEFF207010BD280E002048
:10D4D00008B50B4A00231278FFF7A4FF10F1160FCE
:10D4E00007D0084A0021D2F89030C3F307239842AE
:10D4F00000DB08BDC2F89800C2F8A0100130F2E7C6
:10D50000280E002000ED00E02DE9F043534B544C71
:10D51000D3F890302568C3F307239D4285B000F20D
:10D520009A80FFF7C1FF00200C2685421AD14D4C8E
:10D530004D4F25706846FFF753FBDFF82081DFF879
:10D540002C9106460025AE4213D123784349002092
:10D55000D1F89020C2F30722934276DBFFF798FFC1
:10D56000002042E0616806FB0011FFF747FF013031
:10D57000DBE7009800EB05114FEA051CCB683B4048
:10D58000B3F5000F48D00AD8B3F5001F30D0B3F57B
:10D59000800F36D0B3F5801F10D00135D3E7B3F13B
:10D5A000807F42D0B3F1007FF7D150F80C3088680B
:10D5B0004A6806F0C0FC40F4802009E050F80C30C6
:10D5C00088684A6806F0B7FC40F0885040F4302084
:10D5D000CDE901230390D8F890302078C3F30723D6
:10D5E000013B98422AD96FF0150005B0BDE8F083E1
:10D5F00050F80C3088684A6806F09DFC40EA090043
:10D60000E6E750F80C3088684A6806F094FC40F071
:10D61000007040F40030DBE750F80C3088684A684E
:10D6200006F089FC40F08270D2E750F80C30886830
:10D630004A6806F080FC40F08870C9E701A9FFF74E
:10D64000DDFE237801332370A7E7C1F89830C1F8D5
:10D65000A00001337CE74FF0FF30C6E700ED00E0AB
:10D66000906B0100280E00200000F0FF0000081160
:10D6700008B5024B1B689847002008BD180A002017
:10D68000034B044A1860937843F002039370704789
:10D69000180A0020F804002008B50649064821F0C1
:10D6A0000701C1F1005202F5003206F091F90020A5
:10D6B00008BD00BF873000201C0A002070B54169FA
:10D6C000857A0C4E044659B1437ADB0706D42423ED
:10D6D00003FB0563DB691B689B6898470023636154
:10D6E00005EBC505214606EB8500BDE8704008F056
:10D6F000EEBD00BFE4060020827A064B242101FB28
:10D7000002331A6A1B7D1B33801A23F00303B0FB1C
:10D71000F3F07047E406002038B5074B827A2424E2
:10D7200004FB0233DB69D3E901240C601568FFF7C1
:10D73000E3FF04FB005038BDE40600202DE9F04F64
:10D7400085B005466846039191461C4690469A4628
:10D7500008F06DFFDDE90067EFF3118B202383F301
:10D760001288BFF36F8F698A002942D02B8A8B42BF
:10D7700026D900220023284604F0EAFC0446F8B12A
:10D780008BF31188BFF36F8F039B002B4FD0324672
:10D790003B46684608F06FFFA27A2D4B242101FB1F
:10D7A00002332046DB691B6803A91D68DDE90023FD
:10D7B000A847606100283BD12046FFF77FFF31E09A
:10D7C000698A4B1E6B828BF31188BFF36F8F2B7DA1
:10D7D0002A8A2C6A1B3323F00303521A02FB0344E8
:10D7E0001B4B1C4AEB1A9B105343A3722B7DE37215
:10D7F000CAE78BF31188BFF36F8F54EA090409D08D
:10D8000009F000F8144A154B12589A420ABF88468C
:10D81000C846C24642465346284604F099FC044690
:10D820000028B1D10024204605B0BDE8F08F636127
:10D83000012300252381039B6382E27A65602946E8
:10D8400004F1180008F067FF63692582E360EAE7E6
:10D85000E4060020398EE33808000000C8080020E4
:10D8600070B50C4C242500B970BD037A4668013BA5
:10D87000DBB20372002BF7D1C3604360837A05FBF0
:10D8800003439B6913B198473046ECE7FFF716FF57
:10D89000FAE700BFE4060020044A0123C2F840353D
:10D8A0004FF080420020C2F87835704700E0014018
:10D8B00020B1034B800143F001031847704700BFBC
:10D8C000F06A010038B5064C064DAC4201D3002089
:10D8D00038BD54F8043B002BF7D09847F5E700BF5C
:10D8E000D06A0100D86A0100084B0246186808B1E6
:10D8F000036800B9704741899142FBD01BB1196898
:10D9000018460B46F5E71946FAE700BF280A00203B
:10D910000A4B1B681BB11A681BB9184670471A4698
:10D92000FAE75989814206D01AB1116813460A46AE
:10D93000F2E71146FAE7D868704700BF280A0020CE
:10D9400000230360044B5A6812B9C3E90000704712
:10D9500010605860704700BF280A00202DE9F04F82
:10D9600000238BB0CDE9063304460D4601F10C0AC5
:10D970002B8A3BB999462168284606F008FD2168A4
:10D98000002080E0072B40F20381EA6810685168AC
:10D9900006AB03C3BDF81A305BBA1FFA83FBADF8C0
:10D9A0001A30BDF81C305BBA9AB208215046ADF867
:10D9B0001C30059206F0DEFA2B8A5B45C0F0EE8043
:10D9C0009DF8188018F0050940F0ED802168284680
:10D9D00006F0C9FC0646002800F0E880606840F8C0
:10D9E000045B2B8ACDE9019901220092EA680421A7
:10D9F00008F015FAA068314606F005FB9DF81830CE
:10DA0000A768C3F3C103012BC7F84C9000F2C38091
:10DA10000598FFF769FF002800F093809DF81F101C
:10DA200006F0C2FA002800F08C809DF8183013F040
:10DA300007032ED0022B47D04FF00309A0683146D0
:10DA400006F0E1FAD4F8088008F10407022138460C
:10DA500008F0A5FA00287AD056490222384608F084
:10DA600083FA002873D04946384608F061FA02214B
:10DA700000286ED1384608F09AFA2168284606F048
:10DA800086FC2168304606F082FC48460BB0BDE8B3
:10DA9000F08FD0F80090A068B9F1000F51D00F219D
:10DAA000043008F07CFA00284ED02046C847814652
:10DAB000A0680F21043008F07AFA40B9B9F1000FDC
:10DAC00008BF4FF00709B9E7D0F80490E3E7B9F1D0
:10DAD000000FB3D1B7F84E90B9F1000F12D018F083
:10DAE000180F0FD1B7F84C00FFF712FF034610B91B
:10DAF0004FF00109A2E7484698478146B0B1002E91
:10DB00004ED09BE7D7E90087D8F80C30FF1A08A958
:10DB1000A7F1080206A806F057FAA8F81070A36843
:10DB20001B68DA680B4603CB1060516023683046EF
:10DB30001B6A9847814698BB5946504606F01AFA28
:10DB400016E74FF0080979E74FF0070976E7022159
:10DB500090E7384608F02BFA00288ED0D8E900A7C5
:10DB6000DAF80C30FF1A08A9A7F1080206A806F097
:10DB70002BFAAAF81070A3681B68DA680B4603CB6F
:10DB800010605160236830461B6A9847002674E78E
:10DB90004FF00909EFE64FF00D094FE74FF0090983
:10DBA0002E4600254AE74FF00809F9E74FF0020931
:10DBB000F6E700BF8970010070B504460E461546B1
:10DBC0008AB3A0F84810A0F84A201849032208F0A8
:10DBD000CBF918B9002000F0010070BD02212046E9
:10DBE00008F0DDF90028F5D011490522204608F09B
:10DBF000BBF90028EED03146204608F0A3F90028F2
:10DC0000E8D00C490222204608F0AEF90028E1D005
:10DC10002946204608F096F90028DBD0022120464C
:10DC200008F0C5F9D7E70120D7E700BF8C700100E5
:10DC3000907001008970010070B50C4615461E46B3
:10DC400048B1094833462A46214606F0F5F800282F
:10DC500018BF0C2070BD054B0348197806F0FEF87C
:10DC60000028EED00A20F5E7300A00205C0C0020E6
:10DC70007FB50C46002843D1234B69461878FEF740
:10DC8000B5FF00283ED1009806F03EF80646002871
:10DC900032D0009B5B68013B191901AA06F081FE96
:10DCA000014658BBDDE90005029B1D444368ED1A9F
:10DCB0002A4606F00FF8044630B10D24009805F00E
:10DCC000C6FF204604B070BD009B986806F0F1FBCB
:10DCD000A842F3D3009B5968014401AA304606F0DC
:10DCE00060FE0098019943688268C91A521A05F0CB
:10DCF000F1FF0028E2D0E0E71224DFE71324DDE79C
:10DD00001424DEE70A24DCE75C0C0020F0B50646AC
:10DD10000D4685B018220021284608F0FCFC7368E7
:10DD2000581C00F09080002B7CD132691F2A6DD9DD
:10DD3000B268511C6CD0C5E90023F768434B3A68C0
:10DD40009A4267D1B269202A66D862B14048036816
:10DD5000013308D0037B9A4205D171690D3008F078
:10DD6000E2FC0446A0B1002006F08EFA18B906F0D5
:10DD7000ECF900280FDA012006F086FA20B901201C
:10DD800006F0E3F9002806DA4FF0FF33EB600924D0
:10DD9000204605B0F0BDE8606946C0B2FEF726FF38
:10DDA00000283BD10098B26883689A4203D905F0F5
:10DDB0004EFF1E24ECE705F04AFF337F73B9287B42
:10DDC00001A9FEF713FFB0B9019806F08DF90446DA
:10DDD000019805F03CFF002CDADB0DE002A806F00C
:10DDE00095FAE8B907F1140102A806F0B6F900287F
:10DDF000E5DB1B24CCE70A24B4FA84F464096C74D0
:10DE00003369AB6001232B740024C1E71624BFE7FC
:10DE10001524BDE71724BBE71824B9E70A24B7E7A0
:10DE20001A24B5E70A4A13689168EB600023296059
:10DE30006B60736852689342E6D132691344994229
:10DE4000DED21F24A4E71424A2E700BF3DB8F39656
:10DE50005C0C0020F0B595B00F46202302930446D9
:10DE600015466B460CAA03A93846019200F050FAF9
:10DE70000646002840F08E8004340F21204608F02A
:10DE80008EF810B9002015B0F0BD43490422204699
:10DE900008F06AF80028F5D007F00101204608F0E4
:10DEA00051F80028EED03D490722204608F05CF8E2
:10DEB0000028E7D005A903A800F0D0F9002861DA0E
:10DEC00037490522204608F04FF80028DAD03549B6
:10DED0000422204608F048F80028D3D001A92046A3
:10DEE00008F03CF80028CDD02F490822204608F041
:10DEF0003BF80028C6D0009981F01001C1F3001151
:10DF0000204608F068F80028BCD02849072220469F
:10DF100008F02AF80028B5D0C5F34001204608F0E3
:10DF20005AF80028AED022490922204608F01CF8F1
:10DF30000028A7D0C5F38001204608F04CF800283F
:10DF4000A0D01C490622204608F00EF8002899D0DF
:10DF500005F00101204608F03EF8002892D016494D
:10DF60000922204608F000F800288BD0C5F3C00134
:10DF7000204608F030F8002884D00F21204608F011
:10DF800016F880E7192205A920468DF82C6007F0C5
:10DF9000F4FF9AE7012076E7967001009B7001007C
:10DFA000A3700100A9700100AE700100B7700100FC
:10DFB000BF700100C9700100D07001002DE9F74366
:10DFC00086683449043607460622304607F0CCFFFF
:10DFD00038B906F07BF906F07AF9072003B0BDE8FE
:10DFE000F0830221304607F0D6FF044606F06EF9B2
:10DFF000002CF0D000240DF1070120468DF80740D9
:10E0000006F023F98046204606F062F99DF80730B5
:10E01000022B054680F001092AD180454FF0010806
:10E020002CD14D45B8682CDA42462946FFF712FF3D
:10E030000028D0D022464946B868FFF70BFF0028D9
:10E04000C9D00221304607F0AEFF0028C3D01249E4
:10E050000B22304607F088FF0028BCD00021304654
:10E0600007F066FF0028B6D006F031F90020B5E7CA
:10E0700080454FF00508D4D0022BD2D8074AD45699
:10E08000CFE722464946FFF7E5FE0028A3D04246E7
:10E090002946D1E7DA700100E1700100F570010056
:10E0A0002DE9F3414FEA6008044640460F4606F06A
:10E0B0000FF9002306460DF1030140468DF80330A9
:10E0C00006F0C3F80546EFB106F004F9804505D126
:10E0D0009DF80330012B26D11C2420E0A6423DD020
:10E0E0009DF80330012BF7D0002B3BD0022B39D009
:10E0F000204606F02AF801A9C0B2FEF777FDD0B19C
:10E100000A240CE0A6422BD09DF80330012B03D04B
:10E110007BB1022BE0D0EBE7A042DDD1002420460A
:10E1200002B0BDE8F081002BE0D1A542F6D0A642B6
:10E13000F0E7A042EEE7331B594201983A465941B5
:10E1400007F048F9044628B1441E032C9ABF074B38
:10E150001C570124019805F07AFDE0E72024DEE752
:10E160002124DCE7A542C3D1D8E700BFF870010045
:10E17000F0B597B035490C9104210D91344902AAAC
:10E18000CDE90E12334A119205460722D0E9010467
:10E190001292314A139200230DF10302CDE90233AA
:10E1A0008DF8033001938DF8403014928DF854307F
:10E1B000022201AB0CA9043005F03FFF002841D139
:10E1C00006F084F8039B04346BB99DF8033063B107
:10E1D00006F080F806F07CF89DF80310FFF760FF6A
:10E1E00018B382B202E0202B0AD018222046012167
:10E1F000FFF7E2FC044606F06AF82CB300241BE0AB
:10E20000029B04AA03F1200C1746186859681646A9
:10E2100003C6083363453246F7D10021384606F07D
:10E220005BF80028D8DA0822E0E72846FFF7C6FEA8
:10E23000044620B106F04BF8204617B0F0BD06F0BA
:10E2400046F8DBE70324F7E70724F5E7A9700100A8
:10E25000FB5B0100ED700100A75C010073B5438812
:10E260000193437800930E4603780C4A0546192122
:10E27000304604F07DFE041E03DA4FF0FF3002B09A
:10E2800070BD6B683BB1064AC4F11901301904F046
:10E290006FFE031EF1DBE018F1E700BFFC70010028
:10E2A00008710100033880B219289ABF014B185633
:10E2B000012070472B71010008B5054B2C2200216D
:10E2C000184608F028FA4FF0FF3240F8042C08BD39
:10E2D000600C00200148FFF733BB00BF0805002099
:10E2E00010B5041D08490322204607F03DFE08B979
:10E2F000072010BD054B2046596807F02DFE002869
:10E30000F6D00020F5E700BF0C7101005C0C002086
:10E310002DE9F0438BB00C460DF10301054616467E
:10E320001F4605F078FF0146002840F08D8020232D
:10E3300002AA284605F04EFF002850D19DF8038020
:10E34000DFF81091B4BB0298484540D10FB1069B4D
:10E350003B60059BBDF810401C4404230DEB0302F9
:10E360002146284605F036FF40B9BDF8042046F6A0
:10E3700008139A4204BFBDF80630E41804230DEBDD
:10E3800003022146284605F025FF58BBBDF80420AE
:10E3900046F607139A4225D1BDF806700434274487
:10E3A000814604F10408B8451ED989F001094FEAF5
:10E3B000C90014E008224146204608F0ACF9029852
:10E3C000484504D107AB03CB20606160BEE74FF046
:10E3D000013303FB08F8404514BF172003200BB09E
:10E3E000BDE8F0830420FAE704230DEB0302214685
:10E3F000284605F0EFFE0028F1D1BDF80420BDF855
:10E400000630FF2A05D14FF6FF72934205D1052051
:10E41000E5E7102A01D1202B04D0043303EB0408D4
:10E420004446BEE7B9F1000F10D116B94FF001090B
:10E43000F6E72434BC420BD832464146284605F064
:10E44000C9FE0028F2D0CAE70220C8E70620C6E7C6
:10E450000720C4E73DB8F39670B58AB01B4A059211
:10E46000D0E9010504220692194A079200230126E9
:10E4700001AACDE9016308928DF82430324602AB3F
:10E4800005A9043005F0D9FD0446E8B90346024663
:10E4900003A901980435FFF73BFF58B9019805F02F
:10E4A000F3FE38B1092201212846FFF785FB2046FB
:10E4B0000AB070BD019805F067FE0646FFF7FCFE46
:10E4C000002EF4D0B2B2EEE70324F0E7967001001C
:10E4D000F15B01002DE9F043B7B0D0E9013700242A
:10E4E0000DF12008214620220646404603F104098A
:10E4F000019408F010F94FF0FF33CDE909335B4B7D
:10E500001893052319935A4B8DF87040CDE91A38AA
:10E51000584B1D9304231E930BAA574B1F93209215
:10E520002E93564A22920DAB554A2F93554B249267
:10E530000AA92992319309AA072325912A925249BF
:10E54000524A3293524B339303250FABCDE9271533
:10E55000CDE92C253493062201AB18A948468DF845
:10E5600084408DF898408DF8AC408DF8C0408DF80F
:10E57000D440239505F061FD0446002874D102A91A
:10E5800040460437FFF7C2FB88B182B2012138460A
:10E59000FFF712FB0023054610AA19460120FFF7DA
:10E5A000B7FEFFF789FE002D08BF072406E09DF89F
:10E5B00018303BB9B068FFF793FE0446204637B0E9
:10E5C000BDE8F083334D059B2B60029BAB60099B3C
:10E5D000DBB9DDF838800D996C60424605F10D001D
:10E5E00085F80C8008F06FF808F10D00C8F12002E2
:10E5F0002146284408F08FF89DF819302BB10A996C
:10E600002046FFF735FB0028BFD10C9BD5E901124E
:10E610002BB9914222D0B068FFF762FECEE70B44DF
:10E620009A1A534253410B99049A0998FFF704FB35
:10E63000034688B96A6804990A44A9686A608A42EC
:10E64000E9D1014610AA0120FFF762FEB068FFF78A
:10E6500047FEFFF731FEB1E782B297E710AA1946ED
:10E660000120FFF755FED6E72C46A7E71071010001
:10E67000F15B010016710100FB5B01001B710100E1
:10E68000F75B0100237101000C7101001F71010093
:10E69000A75C01005C0C00200148FFF751B900BFE6
:10E6A0001805002008B54FF400520023024803F07B
:10E6B0006BFF002008BD00BFC0040020F0B589B08A
:10E6C000D0E90145134A0392134A0023012701AE02
:10E6D000CDE90133CDE905268DF81C30201D6B46B0
:10E6E0003A4603A9049705F0A8FC044678B9043516
:10E6F0000A493A46284607F037FC20B131462846F9
:10E7000007F02FFC00B90724204609B0F0BD032410
:10E71000FAE700BFC7700100015C01008E700100C4
:10E7200013B5084C204607F044FE074B00932046E3
:10E73000064903234FF4006203F0BEFE002002B03E
:10E7400010BD00BF080700202C6C0100800E0020C7
:10E7500002480022002305F009BC00BFE4060020A7
:10E7600010B5036A044643B1054907F0F6FD04F10C
:10E77000100007F099FD002010BD6FF01500FBE7B9
:10E780003543010010B50446103007F095FD2146D1
:10E790000248BDE8104007F0FCBD00BF080700209C
:10E7A0000748084B10B50362074B4362FFF7D8FFD9
:10E7B000044610B9054800F02FFB204610BD00BFED
:10E7C0008C0C0020AF430100A9430100D1E70000F9
:10E7D00008B50146034807F06FFDBDE80840024850
:10E7E00003F064BED406002028050020F8B50D4EC5
:10E7F0000D4F00220023304603F0AAFC044600B966
:10E80000F8BDD4F88420211D384605F0F4FD0546F6
:10E81000204600F079FA002DEBD004482946FFF796
:10E82000B1FFE6E7D4060020C00C00208C0C0020CD
:10E830002DE9F74F05460E4614460A4601460020CC
:10E8400004F05DFE4FF0000A074640F606134FF055
:10E850005D08D1464FF0010BB245ADF8023001DB47
:10E86000002062E002210DEB0100A04700285CD1EE
:10E87000BBF1000F13D0B31C5BBAADF80230ADF89A
:10E88000043022462B788DF80630032101A805F0CC
:10E89000A3FD002849D10AF1010AA8F10308A6EB5B
:10E8A0000A0343459B46A8EB0303A8BFC346012BBD
:10E8B00005D80BF1FF3B4FF00009D34414E0FCDD19
:10E8C0004FF00109F9E705EB0A0335F80A209B78B8
:10E8D000ADF804200321224601A88DF8063005F08A
:10E8E0007BFD10BB0AF1030AABEB0A03022B524675
:10E8F000E9DCB9F1000F0FD0A6EB0A03012B17D00A
:10E90000022B22D043B97BBAADF804302246022153
:10E9100001A805F061FD40B919480121A0474FF059
:10E92000000B41F20443002896D003B0BDE8F08FFD
:10E93000AB5C8DF804303B0A0AF1010A8DF8053012
:10E940008DF8067022460321E2E70AF1010315F86B
:10E950000A20EB5C8DF804208DF8053022463B0A36
:10E96000032101A80AF1020A8DF8063005F034FDF2
:10E970000028DAD18DF8047022460121C8E700BFD3
:10E980004A700100084B70B5C31A0D4607499B1029
:10E99000044659430648402205F096FD2B460146A1
:10E9A0002046BDE870401847DC0C0020B76DDBB690
:10E9B000B068010073B50C4C0C4A4023041B009353
:10E9C0000D460B460A49A41061430646094805F066
:10E9D000A7FD011E05DA30462B4602B0BDE87040A7
:10E9E000184702B070BD00BFDC0C00208B45010051
:10E9F000B76DDBB6B068010010B5EFF311842023CA
:10EA000083F31288BFF36F8F074A136823F0020164
:10EA1000DB07116002D4012006F080FD84F3118829
:10EA2000BFF36F8F10BD00BF2C0D0020002270B50A
:10EA3000012104461046FEF719FC0F4801F0EEFFD5
:10EA40000E4B984215D101F0F9FF26690C4930466A
:10EA500005F074F800280BDB0125356424690849AA
:10EA600004F11C0005F06AF8002801DBE5640020D1
:10EA700070BD6FF00400FBE77DEB00000000AD0B04
:10EA8000346C01001FB500220123CDE90223094A9D
:10EA9000CDF800D06B46CDF804D005F06FFD00280E
:10EAA00005DB4FF480420023684603F0A7FB05B066
:10EAB0005DF804FBA945010030B4104B0C2202FBA9
:10EAC000003301460020D3E90E529863EFF3118022
:10EAD000202484F31288BFF36F8F1C6C04F0C004F1
:10EAE00044F002041C6480F31188BFF36F8F1DB1E2
:10EAF0002B46034830BC184730BC7047DC0C002064
:10EB0000B068010010B4EFF31182202383F3128860
:10EB1000BFF36F8F1748016841F002040460C80713
:10EB200007D482F31188BFF36F8F012010BC01F06E
:10EB300097BF4FF08041D1F80C04D1F80C14C907ED
:10EB4000EFD5EFF3118083F31288BFF36F8F0A497B
:10EB50000B6C03F0C00343F002030B6480F31188D5
:10EB6000BFF36F8F82F31188BFF36F8F002010BC4B
:10EB7000FFF7A2BF2C0D0020DC0C002010B10128F3
:10EB800004D07047034B1B6C5B0701D1FFF794BFA8
:10EB9000704700BFDC0C00202DE9F0413849BFF37D
:10EBA0005B8F0746012251E8003F41E80020002822
:10EBB000F9D1BFF35B8F33B9324933484B60CB6037
:10EBC0008A6004F0CEFF7B1E012B2BD8012F07D1CA
:10EBD0004FF08043D3F81C3403F00303012B21D002
:10EBE00007F0EDFB0546F8B9284B1B78E3B14FF071
:10EBF00080430222C3F808230646DFF894804FF0D2
:10EC00008044D4F81824D4F81834D20315D503F06E
:10EC10000303012B01D0012F0FD155B386F31188C7
:10EC2000BFF36F8FBDE8F081EFF31186202383F3EC
:10EC30001288BFF36F8F0125DFE7ADB1304605F0D5
:10EC40006BF9D4F81835002BDBD1D4F80421002A55
:10EC5000D7D0C4F80431D4F804310123C4F81835EE
:10EC6000C8F88031A360CCE70021212003F04AFFDF
:10EC7000E7E74FF080430222C3F80423D2E700BF46
:10EC8000D80C0020C80C0020F80C00205C0E0020DE
:10EC900000E100E008B5074807F0B7F938B10648C9
:10ECA000FEF7EEFC0448FDF71FFD002008BD6FF0E5
:10ECB0001200FBE7EC680100BDEC00000A2838B543
:10ECC000074D044604D1AB680D215B682846984780
:10ECD000AB6803485B68E1B29847204638BD00BF87
:10ECE000EC68010070B5074E04464518AC4201D1EE
:10ECF000002070BD14F8011BB36802485B68984798
:10ED0000F4E700BFEC6801000146014807F02FBAA4
:10ED1000B80600202DE9F047374D8AB0374CA76878
:10ED200002E02046984748B9FB6B002B58D1A668F3
:10ED3000B36B002B5BD1F36A002BF2D1336913B9AB
:10ED40006FF0570606E02D48202202A99847064694
:10ED50000028E9D02A4C02AF4FF00009B145DDDAB6
:10ED60002B7817F8018B7BB9D4F800A0BAF1000F0B
:10ED70000AD124480022002301A903F0BBF9D8B925
:10ED8000019B2360C3F8840095F800A02068BAF1C5
:10ED9000000F09D1D0F884307F2B12D9FFF7B4FFD0
:10EDA0000123C4F800A02B70B8F10A0F01D1002391
:10EDB0002B7009F10109D1E70123C4F800A02B70E1
:10EDC000E2E75A1C0344B8F10A0FC0F8842083F824
:10EDD0000480EED10C4BC4F800A01B689847E8E70C
:10EDE000204698470028A2D10AB0BDE8F087204607
:10EDF000984700289FD1F7E7290E0020EC68010012
:10EE0000300D0020B8060020340D0020014AFFF725
:10EE10000FBD00BFE5EC00000F4B70B518600F4C44
:10EE2000204607F0F2F8B0B1A3685B6A0BB1204648
:10EE30009847A568AB690BB1084898472B6C1BB184
:10EE40000749064800229847A3681B6A1BB1BDE822
:10EE500070400248184770BD340D0020EC68010076
:10EE600015ED0000004870479C6C01002DE9F04F43
:10EE70008FB0044602AF00694FF0FF32012107F066
:10EE800030FA6668306807F0C0F830B96FF01205E4
:10EE900028463437BD46BDE8F08FF06818B107F05A
:10EEA000B4F80028F2D0206905F089FB204605F06F
:10EEB000EEFB051E3CDDEA0734D4206905F07DFB3E
:10EEC000206905F07CFB0323019307F110030093F5
:10EED00000231A469F21204605F077FB80462069D3
:10EEE00005F06BFBB8F1000FD0D1337E002B3BD087
:10EEF000206905F064FB204605F0C9FB051E2EDDE8
:10EF0000337E25EA03053D764346CDE9008880221D
:10EF10000621204605F059FB034678B1206905F02B
:10EF20004CFBB3E700220023204605F0C1FB054659
:10EF3000206905F042FB002DC2DAA7E707F11802AD
:10EF40000121009201918022204605F03EFB00281D
:10EF5000E4D100220023204605F0AAFB05462069E3
:10EF600005F02BFB002D91D1206905F028FB18231B
:10EF70000193FB180093052200235A21204605F037
:10EF800024FB05462069EA4605F017FB002D7FF4B7
:10EF90007DAF8B4BBA699A427FF478AF97F81E80A9
:10EFA000B8F1010F9CBF08F101085FFA88F807F17A
:10EFB000200394BF4FEAC8084FF0100898441D463C
:10EFC0004FF0000BA84533D12369D869D5461946BF
:10EFD00003F1080600224D7C25B18D7C0AB19542D3
:10EFE00000D22A4602318E42F5D1002A3FF44EAFBC
:10EFF0004FF0FF359540ED4315F480557FF446AF53
:10F000004FF48052000B5A621862206905F0D7FA5B
:10F0100063685B7EDB0700F1BE80206905F0CDFAF6
:10F02000206905F0CCFA206905F0C7FA00252FE722
:10F03000EA792B7843EA0223B3F57F4F40F0A980A9
:10F04000EA786E79C7F80CD0142A28BF14229200EF
:10F05000242A134638BF2423073303F4FF63ADEBA0
:10F06000030DAB792069BA60360246EA03462B7974
:10F070001E4305F0A4FABA680DF10809CDE9009223
:10F08000330205225A21204605F09FFA06462069E0
:10F0900005F093FA002E63D1D9F8041023690029F2
:10F0A00003F111025EDA21F000410120A1F12006F6
:10F0B000C1F1200C00FA06F620FA0CFC46EA0C0618
:10F0C00000FA01F1C90841EA4676C3F811B00121FE
:10F0D000C2F804B04846C7E90032B96005F091FCB7
:10F0E000B9687A683B680131C9B2052902F10202A8
:10F0F000F0D1EA780A2A88BFD9F82820DE6183BFD8
:10F10000C2F3031101228A404FF480725A83D9F866
:10F11000003013F4C02F3AD007F1140249462846B4
:10F1200000F0D4F8064690BB97F8149009F1FF332D
:10F13000DBB2FD2B2BD819F0030F11D0206905F09D
:10F140003EFA19F0020F0FD10023CDE900338022DF
:10F15000B721204605F039FA88B1206905F02DFA6B
:10F16000D54693E60131ADE7CDE90066334680220E
:10F170000621204605F029FA0028E5D0EDE72269AE
:10F18000137C43F001031374206905F016FAD7F8D5
:10F190000CD0083516E72B46CDE900558022B92161
:10F1A000204605F012FA0546206905F006FA002D02
:10F1B000BFF636AF15F1860F3FF432AF68E600BFF9
:10F1C00053464450024B0B6001231360704700BF4D
:10F1D000600D002000487047B86C010010B5012296
:10F1E00011460648064C07F07CF806F037FA206016
:10F1F00006F030FA6060002010BD00BF680D0020EE
:10F20000600D002070B50C46154606F023FA29461D
:10F210000646204605F06FFB08B3B4FBF6F306FB89
:10F220001343E3B9B5FBF6F306FB1353BBB9B54281
:10F2300001D2002070BD4FF0FF324FF0FF3309487C
:10F2400002F0DCFF06F006FA0646204602F08AF8D5
:10F25000AD1B3444F9D1034802F0ACFFE9E76FF08D
:10F260001500E7E7680D0020F8B50E463046194650
:10F2700017461C4605F03FFB08B346EA040515F0A7
:10F2800003051CD1A4B10F484FF0FF324FF0FF33FC
:10F2900002F0B4FF24F00304A54206EB050009D1F7
:10F2A000094AD2F80034DB07FBD5064802F082FF9A
:10F2B0000020F8BD795902F075F80435ECE76FF0DD
:10F2C0001500F6E7680D002000E00140C3780F2B21
:10F2D00014D9C96B0B480B0E13708B0200EA911006
:10F2E00003F47C030906034301F0FE4110680B435D
:10F2F000054901400B431360002070476FF0850003
:10F30000704700BF00FF0300FF000080F0B54068B9
:10F31000057B01F01F0444EA4514056987B0002D00
:10F3200064D0B2F5001F00F1100506D12146284631
:10F3300006F085F9002007B0F0BD01AE0027B2F558
:10F34000800F0197776039D1B3F1007F14BF052397
:10F3500004238DF804300023CDE90463039383680C
:10F3600023FA01F111F001011AD1B2F1A07F17D1F6
:10F3700004F01F03620903F5E0732AD0012A3BD190
:10F380001F4A52F82330DB070AD40DF10306324638
:10F390002146284601F040FE1A4B98421CD00296A6
:10F3A00003AA2146284601F0F9FC174B984220D1C8
:10F3B00001222146284601F093FEBBE7B3F1C06F5E
:10F3C00005D0B3F1007F14BF01230223C1E703235B
:10F3D000BFE74FF0A042D4E73146284601F07AFE5D
:10F3E000094B9842DBD06FF00B00A4E76FF085006B
:10F3F000A1E76FF015009EE751F82330FFDE00BF54
:10F40000000300500400AD0B0000AD0B38B545689B
:10F410002B69B3B11035284601F04CFE044680B983
:10F420000146284601F012FE084B98420BD10849CC
:10F430002246284601F0EAFD224605210620FDF776
:10F4400015FF002038BD6FF00400FBE70000AD0B96
:10F4500055F40000420970B5034602D0012A17D0C6
:10F4600070BD0D4E326951680029F9D003F01F03B9
:10F4700001250C689D400029F2D08A682A4002D0FC
:10F480004B68304698472CB1236821461C46F2E76A
:10F49000024EE7E72346F8E7D8680100C468010098
:10F4A0002DE9F043466840F20635D006337B87B03D
:10F4B00002EA050554BFC2F34010032001F01F0704
:10F4C000B5F5837F144647EA43178DF8030045D00E
:10F4D0000FD8062D18D007D8B5B1022D40D06FF047
:10F4E000150007B0BDE8F083B5F5807FF7D10125A1
:10F4F0000AE040F20222954234D0B5F5407F33D085
:10F50000B5F5007FEBD102250123220303FA01F1B7
:10F510002CD57368C3F80815326982BB07F01F0346
:10F520007F0929D0012F77D13E4A02EB830284F470
:10F530008033D2F80017C3F30043C4F3404444EAD5
:10F54000430421F4E16144EA800421F0070144EA24
:10F5500005230B43C2F800370020C2E70725D3E795
:10F560000425D1E70525CFE70325CDE7630344BF95
:10F570007368C3F80C15CFE74FF0A042D5E71036FB
:10F580000DF102023946304601F046FD14F4403FC9
:10F5900080460CD13946304606F04FF8224B98454C
:10F5A000DAD19DF80210304601F08EFDD4E701ABB0
:10F5B0004FF0000903AA39463046CDE90439CDE9B8
:10F5C0000199CDF80C9001F0E9FB174B984286D1D8
:10F5D00014F4003315D09DF803308DF80E3084F408
:10F5E0008034C4F300444B4603AA394630468DF8B4
:10F5F0000C508DF80D4001F08BFC0B4B9842CDD098
:10F600006DE7CDE9043303AA0DF103033946304613
:10F61000039301F0C3FBF0E703F5E07352F82330E6
:10F62000FFDE00BF000300500000AD0B036803F0D5
:10F630001F025B09026004D0012B034818BF0020A1
:10F6400070474FF0A0407047000300502DE9F04F85
:10F65000DFF86091DFF860A185B01546834600EBC6
:10F66000810140F2FF18594503D1002005B0BDE8E3
:10F67000F08FDBF800305804C3F3C322C3F308044F
:10F6800000F191801B0E19F80270444508BF4FF03D
:10F69000FF34192B00F28A80DFE803F00D141A1DE5
:10F6A00020261D8888888836638888888888888886
:10F6B0008888667C7F82C5F80C45621C5ED10BF1A0
:10F6C000040BD0E7C5F81445631CF8D000265FE0B2
:10F6D000C5F80845F1E7C5F81045F5E7661CC5F81B
:10F6E0000845ECD0002604E0601CC5F80C45E6D0C7
:10F6F000012603A80394FFF799FF039B012202FA56
:10F7000003F3C0F80C3508E0C5F80845002FDBD13D
:10F71000631CD4D0002632460627DBF80030019364
:10F7200003F40040002818BF002203A8009218BF6D
:10F7300001260394FFF77AFF039C019B009A00EBDC
:10F740008400C3F3412CD0F800473B0243EA8C030A
:10F75000134304EA0A04234343EA4603C0F800378C
:10F76000ADE7C5F80C45D1E7C5F86045621CDBF88C
:10F770000030A4D0C3F30043002BB9D003A80394F6
:10F78000FFF754FF039B012606FA03F3C0F8083580
:10F790003246C2E7C5F86445E8E7C5F86845E5E7DD
:10F7A000C5F86C45E2E76FF015005FE76FF0850084
:10F7B0005CE700BFA1710100F0F8FCFF2DE9F0410A
:10F7C000044647680D4606F0FAFD4FF0200888B958
:10F7D000264B1B7873B16426606805F031FAF0B9E6
:10F7E000012005F033FE013EF6D10021212003F077
:10F7F00089F9F0E7EFF31186314688F31288BFF3F9
:10F800006F8F606805F01CFAA8B986F31188BFF302
:10F810006F8FEFE786F31188BFF36F8FE5E7EFF3A4
:10F820001186314688F31288BFF36F8F606805F048
:10F8300007FA0028EED0FB691D706368FA691B683F
:10F840000020C3F844250122C3F84825C3F820014D
:10F85000D3F82041C3F85801D3F858019A6081F3D6
:10F860001188BFF36F8FBDE8F08100BF5C0E0020F0
:10F87000F7B50546002201210220FDF7F7FC022022
:10F88000FDF7C4FC6B6818681A69C0F82425997DD7
:10F890005A7D0A43198B1B7D0B431343C0F86C350B
:10F8A0006E68D6E9004313F0010348D02F6907F1D1
:10F8B0000C0005F0D7FD304B98425AD1387B04F14B
:10F8C0000C0204F5907105F0C3FD387B012707FA9F
:10F8D00000F001F09DF80823C4F80035F369C4F87E
:10F8E00044350023C4F84835A760D4F85831002BBC
:10F8F000FBD00021C4F800156B68DC6801AA204623
:10F9000005F0E7F8002805DB019B226819791868E3
:10F91000FFF79CFE6A6813680821C3F80015117A86
:10F9200051B9126AC3F834250122C3F83825C3F847
:10F930001011D3F810111A60002003B0F0BD082296
:10F94000C4F80025F269C4F84425C4F848350123F9
:10F95000A360D4F82031002BFBD00023C4F8203161
:10F96000D4F820310123E3604FF48073C4F80433EA
:10F97000BBE76FF00400E0E70000AD0B7FB5054684
:10F98000406829698A6C0B6D0ABBABB14C6C8B6506
:10F9900016461A46C96C0291CDE9004611B3002BF8
:10F9A00018BF134600226946039301F047FE0E4B31
:10F9B00098420AD06FF004032C69236304F12000FD
:10F9C00002F0F8FB002384F85C3004B070BD4C6C8E
:10F9D00013B19A4228BF1A46002C8A6514BF1646F6
:10F9E0000026D7E70B46DDE70000AD0B2DE9F04F11
:10F9F00089B00E460093436801938B88046999048B
:10FA00000746914600F128814FF0FF324FF0FF3357
:10FA100004F1100002F0F2FB6660D7F81080D7F80E
:10FA200004A098F85D301BB1D8F800309E427DD01C
:10FA3000B6F804C01CF4006F40F04D811CF0090FB3
:10FA400040F04681CCF34513082B40F041813568E6
:10FA5000B64B9D4240F23C810AF1080BBBE80F0017
:10FA60000DF10C0EAEE80F00DBF80030CEF80030E0
:10FA7000AF4B9D4240F2F980AE4B9D4240F2F88080
:10FA8000AD4B9D4240F2F780AC4B9D4240F2F68078
:10FA9000AB4B9D4240F2F580AA4B9D422CBF4FF0EC
:10FAA00000454FF080451CF0020F05950CF0040353
:10FAB00000F0EA80002B14BF032302238DF81830D6
:10FAC000CCF300138DF81930DAF80030D3F808358C
:10FAD0001CF0020F4FEA5312CCF3400103F01F0356
:10FAE00040F0D980002A00F0D380012A40F016812E
:10FAF0009549012202FA03F3C1F80C3598F85D30FC
:10FB00002BB1504601F062FD002388F85D3043467A
:10FB10008E4A03A9504601F025FD8D4B984240F0D6
:10FB2000C780012388F85D30C8F80060012384F89D
:10FB30005C30019B596A4A1C03D003F1280005F090
:10FB400020FAB9F1000F40F0C980C4F834900023C6
:10FB5000A36304F1480204F1380104F1340005F014
:10FB60000EF9009B6064002B40F0C180E36300232A
:10FB7000236404F1500204F1400104F13C0005F05B
:10FB8000FEF8E06420680023236348B183683BB13A
:10FB90000121083005F006F92368186906F030FAEB
:10FBA0003846FFF7EBFE0022A06B1346834240F07D
:10FBB000A7800023256C1946A94240F0A8809342F3
:10FBC000264638BF13464FF4FA5202FB03F556F8A7
:10FBD000203B4FF000081B68B5FBF3F54FF4004CD9
:10FBE000C835414640F2E7304FF47A720023E5FB16
:10FBF0000C01FCF785FB02460B46304602F0FEFA8C
:10FC000018B9256B15F1740F13D10198C4F85880F9
:10FC100001F0DCFC84F85D803F696FF073053D63A3
:10FC200007F1200002F0C6FA87F85C80304602F047
:10FC30000BFB2368002B3DD09A68002A3AD09988A4
:10FC400011F4805636D1186906F0DAF92068314689
:10FC5000083005F0A7F82DE0A369002B7FF4D4AE9F
:10FC600063689E427FF4D0AED7E64FF000751AE786
:10FC70004FF0806517E74FF0006514E74FF08055AF
:10FC800011E74FF000550EE7003B18BF012315E7C1
:10FC90004FF0A0412DE742B1012A42D12A49012269
:10FCA00002FA03F3C1F8083528E74FF0A041F6E760
:10FCB0006FF0040523689B8813F4005304D163603C
:10FCC00004F1100002F076FA284609B0BDE8F08F82
:10FCD0006FF01505EEE76FF08505EBE7D9F800301A
:10FCE0006363002B3FF433AFD9F8043030E7009B57
:10FCF0001B68E363002B3FF43AAF009B5B6837E778
:10FD0000616B01EBC301013349680A444EE7E06BC4
:10FD100000EBC1000131406803444DE7C1F80C1508
:10FD2000FFDE0023C3F80835FAE700BF47E801000B
:10FD30008FD003001FA107003F420F007F841E00E9
:10FD4000FF083D0000127A0000030050E74E01005A
:10FD50000000AD0B00F01F0240090DD001280ED1AC
:10FD60000A4B03EB82030A4AD3F80007024042EA37
:10FD70008102C3F8002770474FF0A043F1E702F576
:10FD8000E072002353F82230FFDE00BF0003005072
:10FD9000F0F8FCFFF0B587B001238DF802300223A4
:10FDA0008DF804306B4403930F4601AB0DF1030152
:10FDB0000024049305460291059401F08BF90C4B45
:10FDC000984206460FD103AA3946284600F0E6FFBE
:10FDD000B0420BD09DF80310284601F075F96FF082
:10FDE000040007B0F0BD6FF01200FAE72046F8E714
:10FDF0000000AD0B2DE9FF410569D0F804802B6DA3
:10FE00000646A86C002835D1002B53D0B8F83840EE
:10FE10006A6CEF6C9C4228BF1C46EB6C53B1296D99
:10FE200041B107F06041B1F1005F03D0082C6F6E63
:10FE300028BF082400926A6CAC651AB1AA6C002A2B
:10FE400018BF2246CDE901271BB12B6D002B18BF2F
:10FE50002346002269464046039301F0A1FE184B59
:10FE6000984229D06FF00401304604B0BDE8F0415B
:10FE700005F08BB9696CEF6CB8F838400A46ABB145
:10FE8000834228BF03469C4228BF1C460029C4D099
:10FE900001F06043B3F1005FBFD0082C28BF0824F5
:10FEA0002246286E06F00FFC2A6EB6E7844228BF71
:10FEB0000446EBE71946D7E704B0BDE8F08100BF80
:10FEC0000000AD0B2DE9F04F8FB0984643680193C9
:10FED0008B8804690F4699040646914600F11D81FE
:10FEE0004FF0FF324FF0FF3304F1100002F086F9BB
:10FEF0006760D6F804B0D6F810A0DBF8083003939A
:10FF00009AF85D3023B1DAF800309F4200F0898022
:10FF1000B7F804E01EF4006F40F036811EF0090FC0
:10FF200040F02F81CEF34513082B40F02A813B6827
:10FF30000293029AAD4B9A4240F223810BF10C0CD2
:10FF4000BCE80F0004AD0FC5BCE80F000FC5DDE92C
:10FF500002329A4228BF1A469CE80300A44B9A42F8
:10FF600085E803001BD2A34B9A4218D2A24B9A42B7
:10FF700015D2A24B9A4200F2D980A14B9A4200F2CC
:10FF8000D780A04B9A4200F2D5809F4B9A4200F254
:10FF9000D3809E489E4B9F49824288BF0B461EF0ED
:10FFA000020F09930EF0040300F0C880002B14BF69
:10FFB000032302238DF82830CEF300138DF8293067
:10FFC000DBF80030D3F808251EF0020F4FEA521379
:10FFD000CEF3400102F01F0240F0B780002B00F08A
:10FFE000B180012B40F0FA808B4901239340C1F886
:10FFF0000C359AF85D302BB1584601F08BFD00238B
:020000040001F9
:100000008AF85D303346854A04A9584601F04EFD12
:10001000834B984240F0A58001238AF85D30CAF8EE
:100020000070012384F85C30019B196C4A1C03D0DA
:1000300003F1440004F0A5FFB9F1000F40F0A780E0
:10004000C4F834900023A36304F1480204F138019A
:1000500004F1340004F0C2FF6064B8F1000F40F016
:100060009F80C4F83C800023236404F1500204F113
:10007000400104F13C0004F0B1FF00252A46E06491
:1000800001212046256304F0DFFF3046FFF7B2FE72
:10009000A06B2A462B46834240F08B800023256CC0
:1000A0001946A94240F08C809342274638BF134638
:1000B0004FF4FA5202FB03F557F8203B4FF00008CB
:1000C0001B68B5FBF3F54FF4004CC835414640F2D0
:1000D000E7304FF47A720023E5FB0C01FCF710F9CE
:1000E00002460B46384602F089F8024618B9256BDD
:1000F00015F1740F6BD10198C4F8588001F00AFD16
:1001000084F85D806FF07301304605F03EF83846A4
:1001100002F09AF86FF0730525E0A369002B7FF4D5
:10012000DFAE63689F427FF4DBAEE2E63D4B36E72D
:100130003D4B34E73D4B32E73D4B30E7003B18BFCA
:10014000012337E74FF0A0414FE73BB1012B48D1E6
:10015000314901239340C1F808354AE74FF0A041E7
:10016000F7E76FF0040523689B8813F4005304D16C
:10017000636004F1100002F01DF828460FB0BDE8DE
:10018000F08F6FF01505EEE76FF08505EBE7D9F816
:1001900000306363002B3FF455AFD9F8043052E7C9
:1001A000D8F80030E363002B3FF45DAFD8F804309B
:1001B0005AE7616B01EBC301013349680A446AE7FE
:1001C000E06B00EBC10001314068034469E7002D9A
:1001D000C9D00146306904F037FFC4E7C1F80C15F7
:1001E000FFDE0023C3F80835FAE700BF47E8010047
:1001F0000048E8010024F40000127A00FF083D00E6
:100200007F841E003F420F001FA107008FD0030014
:1002100048E8010090D0030000030050AD510100F8
:100220000000AD0B00093D0080841E0040420F001D
:1002300020A1070070B5012383400E4ABFF35B8FF6
:10024000DC4352E8001F01EA040542E80056002E94
:10025000F7D1BFF35B8F4FF4803282400648C0F87D
:100260000823BFF35F8FBFF36F8F0B4214BF0120D2
:10027000002070BD940D00200010014070B40E49A4
:10028000D1E90034D01AC31844F1000422F07F46AB
:10029000C1E90034A6F50013B3F5400F09D2074BAE
:1002A0001B681A0A1B069C19054B42F10005C3E99D
:1002B000004570BC02F0BCBDB8070020980D0020BE
:1002C000C007002011B3BFF35B8F0123104A8340A6
:1002D00052E800CF4CEA030C42E800C10029F7D1F4
:1002E000BFF35B8F0B4A4FF480338340C2F8043373
:1002F000094BBFF35B8F1B68BFF35B8FC340DB070A
:1003000042BF064B4FF40032C3F80021704700BFD4
:10031000940D002000100140900D002000E100E04D
:100320000D4B1868010A0006BFF35F8F0B4BD3F823
:100330000435181841F10001B3F5801F0AD2084BAB
:10034000D3E90023904271EB030303D210F18070D4
:1003500041F10001704700BF980D002000100140DE
:10036000C00700202DE9F04F85B016461F469DF8C6
:1003700040A00446FFF75EFF0190FFF7D1FFB042B7
:1003800071EB070354D23E4B301A67EB01019842E0
:1003900071F100014FD23B4B03EB0413D3E902236D
:1003A0009F4208BF96425ED037494FF4803804F12F
:1003B000500508FA04F8AD00C1F848832046ADB2F4
:1003C00004F04DFF26F07F4B05F1804504F5A8733E
:1003D00005F58835DC464FF003090293029A2CF0AC
:1003E0007F4341F82230C1F84483D1F80435274ACD
:1003F0006FF00200C01A604420F07F40904232D972
:10040000286868B1D1F804350393A3EB0B0020F002
:100410007F40B0F5000F26D9204604F020FF039B53
:10042000BAF1000F07D109EB030C09F10109D5E777
:10043000BAF1000F09D06FF0150520460199FFF7BA
:1004400041FF284605B0BDE8F08F0123104ABFF3F5
:100450005B8FA34052E8000F184342E800010029D7
:10046000F8D1BFF35B8F07490E98230101EB04120B
:10047000C8500F9B5360C2E902670025DDE700BF4B
:1004800001008000A807002000100140FDFF7F0050
:10049000900D00207FB51C4C1C4BC4F80833C4F8E9
:1004A00048331B4B00254FF0FF304FF0FF31C4F8AD
:1004B0000855C3E902014FF48033C4F80433154BE7
:1004C00002264FF400320121C4F804631120C3F85E
:1004D00080212A46FCF7CAFE1120FCF797FE0E4A3F
:1004E0000123A360236013600C4B0D4A0093CDE9F8
:1004F000015500232846FFF735FF3046FEF74CFB39
:10050000284604B070BD00BF0010014003000F007A
:10051000A807002000E100E0940D00207D0201000A
:10052000FFFF7F002DE9F7432F4CD4F804339907E0
:100530000BD5D4F8043143B12C4A0023C4F804315C
:10054000D4F80431136801331360D4F80433DA03A8
:1005500029D5BFF35B8F264B53E8002F22F0010112
:1005600043E800100028F7D1BFF35B8FD30702D414
:10057000D4F84031BBB10025C4F84051D4F8403123
:10058000FFF7CEFEEFF31182202383F31288BFF32F
:100590006F8F184BD3E90267B042B94106D282F39C
:1005A0001188BFF36F8F03B0BDE8F0834FF0FF38C1
:1005B0004FF0FF39C3E90289D3E900101D604FF401
:1005C0008033C4F84833C4F84051D4F8403182F342
:1005D0001188BFF36F8F0029E5D0009032463B466B
:1005E00028468847DFE700BF00100140980D002033
:1005F000900D0020A807002030B5431C124C85B098
:1006000005D08442A8BF0446012CB8BF0124FFF7DF
:1006100087FE0E4B0C4DD3E90013401AB0F5000FC6
:1006200010D22218AA4228BF2A4652184FF00000C2
:1006300007490091CDE9010043F10003FFF792FE65
:1006400005B030BD2A46F0E7FFFF7F00B807002065
:100650007D02010008B5FFF763FE024B1B68C01A5C
:1006600008BD00BFB807002010B5084C0123636027
:100670001120FCF7D9FD064BC4F80833C4F8483301
:10068000044B4FF40032C3F8802110BD001001402C
:1006900003000F0000E100E0F0B5816885B010397B
:1006A000054621F0070403F031FB0B4B6E4603F1C6
:1006B000100C324618685968374603C7083363453B
:1006C0003E46F7D110232146284603F0D6FA0038DB
:1006D00018BF012005B0F0BD9C6E010030B50D467D
:1006E000816887B0102302AA1039044603F0B0FADB
:1006F000002802DA012007B030BD102202A92046EE
:1007000004F0D1FD00283AD11E49102202A806F0BB
:100710000AF800280CBF012302232B70204604F0A6
:10072000AEFD012301460DF10702204603F090FAC9
:100730000028DFDB9DF8073003F00F021B096A7009
:100740002B7101220DF10701204604F0ACFD10B918
:100750006B78042B03D901236B7000232B71A268E3
:10076000183A22F00702083AA91C204604F0AEFD10
:100770000028BFD1E91C204604F001FEBBE703239B
:10078000CBE700BF9C6E01007FB5264D4400694653
:1007900055F8240004F0F9FD002835D1013402A9F0
:1007A00055F8240004F0F1FD01282BD103238DF826
:1007B00008308DF80B309DF800509DF808601A4AFB
:1007C00000241078294604F060FD18B350783146B3
:1007D00004F05BFDF0B19378042B03D09DF8031077
:1007E000994217D1D378042B03D09DF80B1099426E
:1007F00010D11379042B09D15079831E022B03D811
:1008000004B070BD0028D6D0FF20F9E79DF8021093
:100810009942F1D00134032C02F10602D1D101201A
:10082000EEE700BF7C6E0100D1710100024AD2F8F0
:100830000034002BFBD0704700E0014010B54FF0B2
:100840008053D3F830210D2A55D14FF0804100223A
:10085000C1F80C21C1F81021C1F83825464AD3F857
:100860000404C2F82005D3F80804C2F82405D3F81C
:100870000C04C2F82805D3F81004C2F82C05D3F8EC
:100880001404C2F83005D3F81804C2F83405D3F8BC
:100890001C04C2F84005D3F82004C2F84405D3F87C
:1008A0002404C2F84805D3F82804C2F84C05D3F84C
:1008B0002C04C2F85005D3F83004C2F85405D3F81C
:1008C0003404C2F86005D3F83804C2F86405D3F8DC
:1008D0003C04C2F86805D3F84004C2F86C05D3F8AC
:1008E0004434C2F87035D1F80034DB0709D56FF015
:1008F0000103C1F800344FF08053D3F830310D2B91
:100900000CD14FF08053D3F834313BB14FF010236A
:10091000D3F808224FF08043C3F858254FF0102336
:10092000D3F80022002A03DBD3F80432002B22DAAA
:10093000124901234FF01020C1F804351224FFF7AB
:1009400075FFC0F80042FFF771FFC0F80442FFF7DF
:100950006DFF0023C1F80435FFF768FFBFF34F8F29
:100960000749084BCA6802F4E0621343CB60BFF347
:100970004F8F00BFFDE710BD00C0004000E0014008
:1009800000ED00E00400FA0530B50468CCB1BFF317
:100990005B8FB4FA84F3C3F11F03DBB201229A40E8
:1009A00024EA020250E8005FA54204D140E8002C8E
:1009B000BCF1000FF6D1BFF35B8FE6D102480B709C
:1009C00030BD0248FCE700BF0000AD0B0200AD0BDC
:1009D00010B50368CB40DB0714D401238B400268B9
:1009E000BFF35B8F43EA020150E8004F944204D109
:1009F00040E8001CBCF1000FF6D1BFF35B8FEED1D5
:100A0000014810BD0148FCE70000AD0B0400AD0B30
:100A1000014BC3F80405704700F00140044B1A79FC
:100A200022B9012218601A710248704702487047C3
:100A30009C0D00200000AD0B0C00AD0B08B5074B62
:100A40001B682BB10020FCF703FC08B9FCF7DEFBA8
:100A50004FF080430022C3F8182508BD9C0D0020EC
:100A600010B510B1012843D010BD4FF08043D3F82A
:100A70001814D3F81824C80321D502F00303012B5E
:100A800004D013B1002004F0EFFC00234FF08042AB
:100A90000220C2F8183508224FF4827303F1804314
:100AA0000021196002F180421C6801241460154A7B
:100AB00012680AB34FF08043C3F80403D4E7D3F8B5
:100AC0001424D107E1D5D3F81C249207DAD40D4AB7
:100AD00012681AB10222C3F80423C5E7D3F804212F
:100AE000002AFBD00022C3F80421D3F80431BBE76D
:100AF00000224FF48073D1E71A68002AFCD01960F5
:100B00001B68B1E79C0D002010B54FF08043D3F86F
:100B1000002152B10020C3F80001D3F800210122C6
:100B2000C3F80823104B1B6898474FF08043D3F855
:100B3000042172B10022C3F80421D3F80421D3F8B0
:100B40001824D3F81824920704D10122C3F81825D9
:100B50009A6010BD0222C3F80823034BBDE8104081
:100B60001B680120184700BF9C0D0020036803F09C
:100B70001F025B09026004D0012B034818BF00204C
:100B800070474FF0A040704700030050034A4309EC
:100B900000F01F00D35C1844C0B27047E37101003D
:100BA00070B50546FFF7F2FF0C4C08300E4634F8DE
:100BB0001030DA0508D5C3F3432304EBC3022846FB
:100BC00054F8333052689847A3682BB1E268314635
:100BD0002846BDE87040184770BD00BF24060020BD
:100BE00008B5FFF7D3FF034B083033F81000400B74
:100BF00008BD00BF2406002008B5FFF7C7FF034B60
:100C0000083033F81000C0F3400008BD240600206F
:100C100008B5FFF7BBFF034B083033F81000C0F3F3
:100C2000401008BD24060020034611F0010010B555
:100C3000CCB20DD1A207C4F3400012D5094AD2F8B4
:100C400020055860C2F82005003818BF012008E0D0
:100C50004FF0A041D1F820251A60C1F82025002AC4
:100C6000E8D010BD0003005010B5FFF78FFF124A07
:100C7000083032F81030D9051CD5C3F3432123F4D2
:100C8000F85322F8103002F10E04002034F8023F2D
:100C900013F4807F03D0C3F3432399420AD0013079
:100CA0002A28F3D1002342F831300448BDE810402F
:100CB000FFF78EBE10BD00BF240600209006002066
:100CC000F0B5054600200446012607468C420BD1AC
:100CD000114BD3F87C2132B10022C3F87C21D3F828
:100CE0007C3140F00040F0BDE3B29B0003F5807220
:100CF0009B0806FA03F31D420BD002F1804202F575
:100D0000C042D2F800C0BCF1000F02D017601268D8
:100D100018430134DAE700BF00600040F7B506462B
:100D20000846FFF733FF194F00F108050C4637F866
:100D30001530DB0727D5304604F05BFC2046FFF773
:100D400067FF40B12046FFF74BFF316800F5A27006
:100D5000002341F820302046FFF786FF002301A83A
:100D600027F815300194FFF701FF019B00EB83008A
:100D7000074BD0F80027134043F00203C0F80037B8
:100D8000044803B0F0BD0448FBE700BF2406002080
:100D9000F0F8FCFF0000AD0B0400AD0B2DE9FF41A6
:100DA000164680460846FFF7F1FE0D4631680446B8
:100DB00009B32846FFF720FF18B12846FFF728FFA0
:100DC00010BB0023CDE900338DF80E308DF80F30C5
:100DD0000DF10F020B4628460DF10E0104F0A0FBA9
:100DE000474A04F1080132F8113023F0020343F0BE
:100DF000010322F81130736863B328461F785968DD
:100E0000FFF7FAFE10B1D1B13E4826E03C4A04F1AA
:100E1000080032F8103023F02003DB04DB0C22F84A
:100E2000103061B1032FEFD87168496891F800C0A4
:100E3000D8F80010A7B90CF5A27C41F82C70304A04
:100E400004F1080132F8113023F01C0343EA870350
:100E500022F81130B3684BBB2B4804B0BDE8F081D9
:100E600001EB8C0143EA4C33D1F810E52EF0030E70
:100E7000C1F810E5D8F8001001EB8C0E43F0200308
:100E8000DEF8101522F8103021F44F3121F44071B2
:100E9000CEF810152902DEF8108501F47C5141EAE4
:100EA000074141EA0801CEF81015C8E7D3E9006709
:100EB0002846FFF7D9FE002ECED0114DD5E90023EC
:100EC000964203D19F4201D1002209E00F480DF163
:100ED0000F01FFF759FD0C4B9842BED19DF80F2032
:100EE00045F8326005EBC20308345F6035F8143012
:100EF00043EA422343F4807325F81430ACE700BF83
:100F0000240600200400AD0B0000AD0B900600206D
:100F10002DE9F0430C4685B08046204611461E461A
:100F2000FFF734FE054629B32046FFF765FE18B9E2
:100F30002046FFF76DFE18BB314F05F1080937F861
:100F4000193013F01C0F02D04B78012B18D001235D
:100F50008DF80F300023CDE900134A1C8B1C20466E
:100F60000DF10F0104F0DCFA37F8193043F00303F8
:100F700027F81930002E41D02046FFF73DFE18B962
:100F8000204805B0BDE8F08396F800C0D8F80030DE
:100F90001B4F0CF5A272002143F8221005F1080244
:100FA00037F8121021F02001C904C90C27F81210DB
:100FB00075781DB3D8F80000B67800EB8C002D04CE
:100FC000D0F8103523F4991323F4F853C0F81035F2
:100FD000230203F47C5305F440353605D0F810E5C0
:100FE0002B4306F4801641EA4C31334341F0200193
:100FF00043EA0E0327F81210C0F810350248C0E784
:10100000240600200400AD0B0000AD0B014BC3E92A
:10101000021270472406002010B508461446FFF758
:10102000F7FD50B10846FFF7B1FD054B083033F826
:10103000103004485B0B237010BD0348FCE700BF71
:10104000240600200000AD0B0400AD0B70B5164D5A
:1010500095F8744006462CBB2146542205F1100039
:1010600005F059FB30686E6E21468E420ED100238A
:10107000C0F87C31D0F87C3140F30730FCF7C6F87B
:1010800001230A4885F87430EB6670BDCBB29B0033
:1010900003F580727C2B08BF845001F1010108BF69
:1010A0008358E2E70248F0E7240600200000AD0B79
:1010B0000C00AD0B034B93F87400003818BF0120EF
:1010C000704700BF240600200148FFF781BC00BF25
:1010D0008C0600200148FFF757BC00BF8C0600209B
:1010E00073B503681646D3F80423002AA8BF4FF04F
:1010F00000420546A8BFC3F8042308460C46FFF784
:1011000087FD00B30846FFF777FD0146D8B92046B2
:10111000FFF766FD04B2A40004F580720346286858
:101120008150296882582144D1F8102542F00102EB
:10113000C1F810252EB12968012202FA03F3C1F883
:10114000043302B070BD2046FFF720FD0F4B08307E
:1011500033F81030C3F38203042B12D0052B12D0C6
:1011600001A80194FFF702FD019AD0F81035D34091
:1011700003F00103991C204602B0BDE8704004F062
:1011800018BA0321F7E70221F5E700BF2406002083
:101190002DE9F04F694BDFF8A881D3F80403D8F8A4
:1011A0006410C0B289B040F00040FFF789FD051E11
:1011B0002FDAC24600235AF8701F06A8CDE906337D
:1011C000FFF732FD5F4B01930DF118094FF0000B53
:1011D000019A12F8013B0192DA0803F007031AF8AA
:1011E000022022FA03F3DA071CD409F10409BBF147
:1011F000000F14D0D8F864104FF00040FFF760FDE6
:10120000D8F8701006A8FFF70FFD0028DAD125F0F6
:1012100000450124002D79D109B0BDE8F08F4FF0D1
:10122000010BD5E7484B5B440293D9F80010002925
:10123000DBD0029B91FAA1F11C78B1FA81F141EA6D
:1012400044142046FFF7A2FC0830059438F81070CB
:10125000C808BB0819F80020039301F00701012317
:1012600003FA01F122EA010209F8002005A8FFF7BC
:101270007DFC059A039B02F5E072C7F3820650F8E5
:1012800022205B073746C2F3014224D52046394667
:10129000D6B2FFF785FC05A80594FFF767FC059B10
:1012A00003F5E07350F82330C3F301439E4207D1A6
:1012B0000021204604F07DF93146204604F079F9FA
:1012C00005A80594FFF752FC059B012202FA03F3DF
:1012D000C0F82035A9E7022A0CD10321204604F0EA
:1012E00068F906F00503012BEAD139462046FFF7DD
:1012F00057FCE5E702212046039204F05AF9032E39
:10130000F3D0039A032ADBD1022EEDE795FAA5F379
:10131000B3FA83F304FA03F29B0003F1804303F56D
:10132000C04325EA0205D3F81005D3F81015C0F321
:101330000520C1F30141FFF733FC6BE7006000407B
:1013400024060020F3710100F3710100044AD2F871
:101350000034DB07FBD50160BFF35F8F704700BF30
:1013600000E001404FF080531A69B0FBF2F302FB3A
:10137000130373B9084B0222C3F80425C3F8080508
:10138000D3F80024D207FBD500220448C3F8042573
:1013900070470348704700BF00E001400000AD0BFC
:1013A0000A00AD0B10B5054C0123C4F80435FFF756
:1013B000CDFF0023C4F8043510BD00BF00E001409C
:1013C00001460148FFF7E0BA9C060020036803F0DD
:1013D0001F025B09026004D0012B034818BF0020E4
:1013E00070474FF0A04070470003005007B50190D0
:1013F00001A8FFF7EBFF019B00EB8300054BD0F842
:101400000027134043F00303C0F8003703B05DF832
:1014100004FB00BFF0F8FCFF73B5CB7B0446002B48
:1014200038D10B7B0878012B77D804F028F90B789A
:10143000019301A8FFF7CAFF019B00EB83003C4B1F
:10144000D0F80027134043F00103C0F80037487874
:10145000FF2804D004F013F94878FFF7C7FF8B7812
:10146000FF2B0FD001A88D7B0193FFF7AFFF019BEE
:1014700000EB83002E4BD0F80027134043EA85038E
:10148000C0F80037C878FF2804D004F0EBF8C8781B
:10149000FFF7ACFF23792748CA78282505FB03030B
:1014A0009A770B7C9BB94B7825680E78FF2B18BF79
:1014B0001A468B78C5F8086508BF4FF0FF32FF2B3E
:1014C00008BF4FF0FF33C5F80C25C5F81035236869
:1014D0008A68C3F824254B7B0A7B2568003B18BF2C
:1014E0000123022A1CD0032A1DD0012A01D143F076
:1014F0000203C5F8543523794979282202FB0303F6
:10150000D97723795343C35883B1206840F3073018
:1015100002B0BDE87040FBF779BE04F0A3F886E79F
:1015200043F00403E5E743F00603E2E702B070BDD1
:10153000F0F8FCFFA40D002007B5019001A8FFF70B
:1015400045FF019B00EB8300054BD0F800271340BB
:1015500043F00203C0F8003703B05DF804FB00BF9E
:10156000F0F8FCFF2DE9F04190F80480144C4FF0A6
:10157000280C0CFB08FC04EB0C06074696F81CE054
:10158000BEF1000F19D144F80C20736041B1CB7B40
:1015900086F82530CB78B3774B79F377FFF73CFFAC
:1015A0003A6808480123C2F80035282202FB0844A3
:1015B000002262772377BDE8F0810348FBE700BF94
:1015C000A40D00200000AD0B0C00AD0B70B506792A
:1015D000194C056828237343E35833B145F30730AA
:1015E000FBF722FE0423C5F808330023C5F80035B5
:1015F000282303FB064393F82530BBB9D5F808052B
:10160000FFF79AFFD5F81005421C01D0FFF794FFB1
:10161000D5F80C05431C01D0FFF78EFF282303FBF0
:101620000643987FFF2801D0FFF786FF282303FB9E
:1016300006440023237770BDA40D00202DE9F84354
:101640000779394C28237B439046E2180E46517F98
:101650008146002966D1E3580BB10123537796E800
:101660000F00282505FB074505F10C0C8CE80F0041
:10167000A87F0023FF2885F8243001D003F0FFFF66
:101680002823B8F1000F06D003FB074300222748A8
:101690005A77BDE8F883D9F8005003FB07430422CA
:1016A000C5F80823C3F82080C5F80881D5F80821BB
:1016B00072689AB133681B78C5F81C357368012BC2
:1016C0000ED933685B78C5F81C3528237B43E65870
:1016D00076B10423C5F804331548DAE7DB7FEBE77E
:1016E000F368012BF1D9282303FB0743DB7FEAE7EB
:1016F00007EB870104EBC101D5F80831002BFBD0C3
:10170000C5F808612846D5F8083103F0C5FF002860
:10171000F2D1282303FB0744A07FFF28DCD003F08D
:10172000A1FFD9E70348B4E7A40D00200300AD0BE7
:101730000000AD0B0B00AD0B10B54FF040200023A7
:10174000C0F808310A49D0F8083103F0A5FF68B99C
:10175000887FFF2801D003F085FF00234B770B72B1
:10176000BDE81040D1E900310248184710BD00BF64
:10177000A40D0020AC0D0020036803F01F025B09DC
:10178000026004D0012B034818BF002070474FF0BF
:10179000A0407047000300500F4B984219D00DD85D
:1017A0000E4B984215D007D80D4B984211D00D4BD7
:1017B000C31A5842584170470B4BF9E70B4B9842FC
:1017C00007D004D80A4B984203D00A4BF0E70A4BE3
:1017D000EEE70120704700BF80841E0020A10700B3
:1017E00048E8010090D0030040420F000024F400BC
:1017F00000093D0000127A000048E80173B5164662
:10180000421C1C460546069B18D0012902D1BBB1DB
:1018100003F0C8FF01A80195FFF7AEFF019B00EBA5
:1018200083002402D0F80027074B44EA86040C43C7
:1018300013401C4344EA4101C0F8001702B070BDD8
:1018400003F0BDFFE6E700BFF0F8FCFF2DE9F04F25
:10185000814B4D6990F804909D4285B006460C4638
:1018600000F0C78000F2B7807C4B9D4200F0C4803E
:1018700000F2A9807A4B9D4200F0C180794B9D42D5
:101880000CBF4FF080654FF08045774F94F82300F0
:10189000242202FB0973997F60F300019977337961
:1018A000217C02FB03739A7F61F341029A7794F8DB
:1018B0002380B8F1000F34D162696C4B9A420CBF9F
:1018C0004FF0030A4FF0000A237E012B94BF002340
:1018D000012300932068534642460121FFF78EFF03
:1018E000CDF800806068534642460121FFF786FF2D
:1018F000CDF80080A27EA06853464146FFF77EFFE8
:10190000237C83F001030093E068534642460121A3
:10191000FFF774FF01210091E06953464246FFF74B
:101920006DFF94F821202423002A71D003FB097352
:101930004FF0FF321A62D4E900BAE369D4F8089094
:10194000A07C217E94F81980D4F80CE0227C94F8D5
:1019500022C0029394F8203094F824400393336813
:1019600074B9029CC3F808B5C3F80CA5C3F8109568
:10197000C3F86C45C3F814E5C3F86825C3F864C51B
:10198000B8F1000218BF01220229C3F8C005C3F84C
:10199000245558D0032959D0012901D142F002021F
:1019A000C3F85425039AC3F860253379242253439E
:1019B000FB58002B4DD0306840F3073005B0BDE830
:1019C000F04FFBF723BC2A4B9D420CBF4FF08055D4
:1019D0004FF0804559E7274B9D4213D0234B9D4242
:1019E00013D0254B9D420CBF4FF000454FF0804572
:1019F0004BE74FF0005548E74FF0006545E74FF0E3
:101A0000007542E74FF020653FE74FF0A0553CE7F7
:101A100003FB0979E168C9F82010217C99F81E3090
:101A200061F3410389F81E30E369D4F80890A07C83
:101A3000217E94F819800293D4E900BA4FF0FF3E5A
:101A40004FF0020C86E742F00402A9E742F00602DA
:101A5000A6E705B0BDE8F08F80841E0020A1070036
:101A600048E8010090D00300CC0D00200048E801B8
:101A700040420F000024F40000127A00431C07B516
:101A80000ED0019001A8FFF777FE019B00EB8300C9
:101A9000054BD0F80027134043F00203C0F800378D
:101AA00003B05DF804FB00BFF0F8FCFF2DE9F8433C
:101AB0000746144C97F80480242505FB08F504EB31
:101AC00005091E4699F81C30C3B999B14869FFF75A
