:020000040000FA
:10C000003DB8F39600000000000200003CA90000CB
:10C010000000000000000000000000000000000020
:10C02000FFFFFFFFFFFFFFFFFFFFFFFFFFFFFFFF20
:10C03000FFFFFFFFFFFFFFFFFFFFFFFFFFFFFFFF10
:10C04000FFFFFFFFFFFFFFFFFFFFFFFFFFFFFFFF00
:10C05000FFFFFFFFFFFFFFFFFFFFFFFFFFFFFFFFF0
:10C06000FFFFFFFFFFFFFFFFFFFFFFFFFFFFFFFFE0
:10C07000FFFFFFFFFFFFFFFFFFFFFFFFFFFFFFFFD0
:10C08000FFFFFFFFFFFFFFFFFFFFFFFFFFFFFFFFC0
:10C09000FFFFFFFFFFFFFFFFFFFFFFFFFFFFFFFFB0
:10C0A000FFFFFFFFFFFFFFFFFFFFFFFFFFFFFFFFA0
:10C0B000FFFFFFFFFFFFFFFFFFFFFFFFFFFFFFFF90
:10C0C000FFFFFFFFFFFFFFFFFFFFFFFFFFFFFFFF80
:10C0D000FFFFFFFFFFFFFFFFFFFFFFFFFFFFFFFF70
:10C0E000FFFFFFFFFFFFFFFFFFFFFFFFFFFFFFFF60
:10C0F000FFFFFFFFFFFFFFFFFFFFFFFFFFFFFFFF50
:10C10000FFFFFFFFFFFFFFFFFFFFFFFFFFFFFFFF3F
:10C11000FFFFFFFFFFFFFFFFFFFFFFFFFFFFFFFF2F
:10C12000FFFFFFFFFFFFFFFFFFFFFFFFFFFFFFFF1F
:10C13000FFFFFFFFFFFFFFFFFFFFFFFFFFFFFFFF0F
:10C14000FFFFFFFFFFFFFFFFFFFFFFFFFFFFFFFFFF
:10C15000FFFFFFFFFFFFFFFFFFFFFFFFFFFFFFFFEF
:10C16000FFFFFFFFFFFFFFFFFFFFFFFFFFFFFFFFDF
:10C17000FFFFFFFFFFFFFFFFFFFFFFFFFFFFFFFFCF
:10C18000FFFFFFFFFFFFFFFFFFFFFFFFFFFFFFFFBF
:10C19000FFFFFFFFFFFFFFFFFFFFFFFFFFFFFFFFAF
:10C1A000FFFFFFFFFFFFFFFFFFFFFFFFFFFFFFFF9F
:10C1B000FFFFFFFFFFFFFFFFFFFFFFFFFFFFFFFF8F
:10C1C000FFFFFFFFFFFFFFFFFFFFFFFFFFFFFFFF7F
:10C1D000FFFFFFFFFFFFFFFFFFFFFFFFFFFFFFFF6F
:10C1E000FFFFFFFFFFFFFFFFFFFFFFFFFFFFFFFF5F
:10C1F000FFFFFFFFFFFFFFFFFFFFFFFFFFFFFFFF4F
:10C20000802400202DD000007F37010019D00000CD
:10C2100019D0000019D0000019D000000000000063
:10C2200000000000000000000000000005D2000037
:10C2300019D0000000000000D1D1000019D000008A
:10C24000B9D30000B9D30000B9D30000B9D30000BE
:10C25000B9D30000B9D30000B9D30000B9D30000AE
:10C26000B9D30000B9D30000B9D30000B9D300009E
:10C27000B9D30000B9D30000B9D30000B9D300008E
:10C28000B9D30000B9D30000B9D30000B9D300007E
:10C29000B9D30000B9D30000B9D30000B9D300006E
:10C2A000B9D30000B9D30000B9D30000B9D300005E
:10C2B000B9D30000B9D30000B9D30000B9D300004E
:10C2C000B9D30000B9D30000B9D30000B9D300003E
:10C2D000B9D30000B9D30000B9D30000B9D300002E
:10C2E000B9D30000B9D30000B9D30000B9D300001E
:10C2F000B9D30000B9D30000B9D30000B9D300000E
:10C3000053B94AB9002908BF00281CBF4FF0FF31BC
:10C310004FF0FF3000F00CB8ADF1080C6DE904CE21
:10C3200000F008F8DDF804E0DDE9022304B070470E
:10C33000704700BF2DE9F04786468C460846089EA8
:10C34000154674461946002B40F0C2808542B2FA69
:10C3500082F245D94AB1C2F1200300FA02FC2EFA5A
:10C3600003F3954043EA0C0C94404FEA154EA8B2F3
:10C37000BCFBFEF8230C0EFB18CC08FB00F943EACB
:10C380000C43994528D9EB1808F1FF3704D2994599
:10C3900002D9A8F102072B44A3EB0903A4B2B3FB13
:10C3A000FEFC0EFB1C330CFB00F044EA0344A042ED
:10C3B00014D92C190CF1FF3304D2A04202D9ACF1EC
:10C3C00002032C44241A43EA07401EB1D440002340
:10C3D00034607360BDE8F0874746DDE76346F1E708
:10C3E00092BB431B01214FEA154EAFB2B3FBFEFCDB
:10C3F000200C0EFB1C330CFB07F840EA0343984566
:10C4000062D9EB180CF1FF3004D2984502D9ACF197
:10C4100002002B44A3EB0803A4B2B3FBFEFC0EFB0B
:10C420001C330CFB07F744EA0344A7424ED92C19EE
:10C430000CF1FF3304D2A74202D9ACF102032C4421
:10C44000E41B43EA0040C0E7C2F1200320FA03F1F5
:10C45000954090402EFA03F303434FEA154EAFB2D6
:10C46000B1FBFEFC0EFB1C10190C0CFB07F841EA9B
:10C470000041884504FA02F422D969180CF1FF3012
:10C4800004D2884502D9ACF102002944A1EB08018D
:10C490009BB2B1FBFEFC0EFB1C110CFB07F743EA41
:10C4A00001439F420ED9EB180CF1FF3104D29F4299
:10C4B00002D9ACF102012B44DB1B41EA004192E7B7
:10C4C0006046E3E76146F7E76046A3E76346B7E700
:10C4D000834206D916B9002108467BE7C6E900E089
:10C4E000F9E7B3FA83F78FB9834201D3724508D8CD
:10C4F000BEEB020460EB030301209C461EB9002141
:10C5000068E73846FAE7C6E9004CF8E7C7F1200CBF
:10C51000BB4022FA0CF41C432EFA0CF120FA0CF367
:10C52000B84001434FEA14490EFA07F5B3FBF9F896
:10C530001FFA84FE09FB18300B0C08FB0EFA43EAC5
:10C5400000439A4502FA07F240D9E31808F1FF3098
:10C5500004D29A4502D9A8F102002344A3EB0A03AE
:10C5600089B2B3FBF9F809FB183308FB0EFE41EA68
:10C5700003418E452CD9611808F1FF3304D28E4552
:10C5800002D9A8F10203214443EA0040A0FB02982B
:10C59000A1EB0E014145CE46434602D306D14D459F
:10C5A00004D2B9EB020E68EB04030138002EA6D0CA
:10C5B000B5EB0E0261EB030101FA0CFC22FA07F362
:10C5C0004CEA0303F940C6E9003198E74046C5E765
:10C5D0004346D9E72DE9F0413A4809F03DF830B932
:10C5E000394806F0A1FE4FF0FF30BDE8F081374832
:10C5F00006F099FB0028F3DB354806F094FB002891
:10C6000001DA3448EDE7344806F08DFB002801DA02
:10C610003248E6E732482D4C06F086FE314806F0F7
:10C6200083FE03250121204606F097FB642006F0D7
:10C63000A8FB0021204606F090FB642006F0A1FB39
:10C64000013DEFD1214E224FDFF88C800324B5FB52
:10C65000F4F404EB44042C1B012C16D0022C22D041
:10C660000121304606F079FB0021384606F075FBC3
:10C670004046002106F071FB1B4806F055FE4FF4C2
:10C68000FA60013506F07DFBE0E70021304606F058
:10C6900064FB2146384606F060FB4046002106F068
:10C6A0005CFB1248E9E70021304606F056FB00210A
:10C6B000384606F052FB4046012106F04EFB0C487E
:10C6C000DBE700BF285F0100106501005861010031
:10C6D00050610100286501004861010041650100C9
:10C6E0005965010093650100B9650100C465010049
:10C6F000D0650100014B1B68184700BFF004002003
:10C70000014B1860704700BFF004002030B585B0C1
:10C7100004460D4610220021684609F023FB02233F
:10C720008DF802302A46044B01932146684606F0F4
:10C730009DF805B030BD00BFF5C6000080B50546C8
:10C740000E461746984605F04DFE034609F082FB5B
:10C75000DFF81890044649F8003042463046394622
:10C76000A84754F8090000F0E1FC00BF08000000F1
:10C7700008B50446EFF31183202383F31288BFF337
:10C780006F8F03F08DFD204600F07AFC024806F022
:10C79000CBFD07F006F8FCE7DB6501002DE9F0436F
:10C7A000079D15B91560002012E00324B5FBF4F4D1
:10C7B00004EB4407BD4218BF0134B4F1804F09D2E5
:10C7C000A40001348C4200D838B914606FF00B001B
:10C7D000BDE8F0834FF0FF34F7E7DFF8BCE0044634
:10C7E0000021B94203F1030C04F104062CD3A94241
:10C7F000274624D21F7801F1010CAC45264938BFE9
:10C800005B784FEAA70E28BF002311F80EE084F8EA
:10C8100000E0AC4501EB131E3CBF9B0003F03C0362
:10C820004FEA071707F0300738BFCB5C1EF80770D8
:10C83000677028BF3D23A3703D23E3703746381A45
:10C84000002310603B70AEE71CF8034C1CF8023C60
:10C850001CF8018C4FEAA40924011EF8099006F87F
:10C86000049C04F030040EEB13199B0019F80440EB
:10C8700006F8034C03F03C030EEB981408F03F0855
:10C88000E35C06F8023C1EF8083006F8013C033170
:10C8900034466346A5E700BF846601002DE9F043F6
:10C8A000DDF81CE0DFF82C8100273C463D4675454D
:10C8B0001FD3E4BB14600020BDE8F0830136764549
:10C8C00033D013F806C0BCF1200FF7D0AEEB060949
:10C8D000B9F1010FA6EB05050DD0BCF10D0F0AD182
:10C8E00003EB060999F80190B9F10A0F6ED1751C96
:10C8F000DDE72E46E3E7BCF10A0FF8D02DB9BCF115
:10C900003D0F05D10137022F0DD96FF01500D3E788
:10C910001CF0800FF9D118F80C507F2DF5D03F2D69
:10C9200001D8002FF1D10134E1E73546C1E704F029
:10C9300007064FF0060CE4080CFB06F60CFB04F4AB
:10C940000736E41B04EBD60470B18C420CD80027E8
:10C95000DFF880E0DFF880801D44014603263C4676
:10C960009D4205D10C1AA5E714606FF00B00A3E7F8
:10C9700013F8019BA9F10A0C5FFA8CFCBCF1160FAD
:10C9800004D848FA0CFC1CF0010FE9D01EF809C0CD
:10C990000134BCF1400F08BF013E0CF03F0C042CE9
:10C9A0004CEA8717DCD17EB13C0C012E0C7002D111
:10C9B00001310024D4E7022E4FEA17244C7016BF31
:10C9C0008F7002310331F4E73446C9E7002DA2D05D
:10C9D0009BE700BF04660100F6FFBFFF2DE9F047AB
:10C9E000058B04462807904611D4022905F0070557
:10C9F00040F0CC80204606F0A4FC78B10138218BB1
:10CA0000042811D8DFE800F0C2106D8595000129D7
:10CA10000CBF45F0100545F02005258388F31188EB
:10CA2000BFF36F8FBDE8F08701F0070AAA4500F059
:10CA3000A5800027B9463E46A368002B00F0BC80C5
:10CA400041F00801218388F31188BFF36F8FA1683B
:10CA5000002900F0BA800D68002900F0B680D1F8F6
:10CA60000480334652462046C047002D76D02B68BE
:10CA700029461D46F0E701F007035A1F012A1BD87B
:10CA8000002221F00701062B276889B2C4E90022A1
:10CA900009D13B4603E0628B013262831B68002BA5
:10CAA000F9D141F002012183204606F04AFC00281A
:10CAB0007AD041F0200176E0042B0AD121F0070161
:10CAC00089B22183204606F03CFC10B141F02001E0
:10CAD0002183218B01F0070AAA454FD00027B946D0
:10CAE000AAE7236921F0070141F00601062DD3F8DA
:10CAF000009021832DD1B9F1000F3FD041F0080102
:10CB0000218388F31188BFF36F8F3A492046C847C5
:10CB100029E021F00701236941F0040189B2042DC5
:10CB2000D3F804902183E6D000273E464FF0040A54
:10CB300082E721F00701236941F0050189B2052D43
:10CB4000D3F808902183D6D000273E464FF0050A3F
:10CB500072E700273E464FF0060A6DE72B4687E74F
:10CB6000B9F1000FD1D1EFF31188202383F312889C
:10CB7000BFF36F8F238B23F008032383258BEA06F3
:10CB80002ED525F01003238305F007056669218B58
:10CB9000002EBFF670AF00232768C4E9003321F0F0
:10CBA000070141F001012183218B01F0070AAA4509
:10CBB0004FF000097FF440AF002F9CD041F00801F6
:10CBC000218388F31188BFF36F8F002FC8D03D6891
:10CBD000394633465246204606F0DFFB2F46F4E73F
:10CBE000AB067FF51BAF25F02003238305F0070577
:10CBF00000E700BFC7330100014B0360002070470E
:10CC00006061010070B5114B1C680D46DCB1104B22
:10CC1000196800238B4202DB6FF0010070BD2246D1
:10CC200012F8106B864202D001331446F2E7E06836
:10CC300010B96FF01200F1E708F00EFD0028F8D0EF
:10CC40002C600020EAE76FF00C00E7E7F404002016
:10CC5000606101002DE9F3470D46DDE90A78914650
:10CC60001E46044620B96FF00D0002B0BDE8F08703
:10CC70000029F8D0002AF6D00093002301938B6896
:10CC80000846DB6898470268B6FBF2F302FB1363C1
:10CC900082462262002BE6D16A461349284607F0F5
:10CCA000D6FA019A002ADED007EB08039A42DAD3BB
:10CCB000216AB7FBF1F301FB1373002BD3D1C4E955
:10CCC0000096E5602361A3606761B8F1000F01D1B0
:10CCD000A2EB07080C9BC4F81880E3619AF80530B2
:10CCE00084F824300020C0E7BF35010008B50448AF
:10CCF00006F01AFBBDE80840024806F015BB00BF6D
:10CD0000C4660100F966010030BFFFF7FDBF00BF38
:10CD10002DE9F0410B4EDFF8308006EB0807CC1B05
:10CD2000054632460949204608F0F4FFA01942465C
:10CD30000021083C09F016F82C6707F10800BDE84F
:10CD4000F08100BF00000000040000002861010025
:10CD5000074A936893F90E10002907DB5269934242
:10CD60001FBF044A536843F080535360704700BFAD
:10CD7000F40D002000ED00E070B5264B15469A6AD0
:10CD800012F0100F9A6A14BF1124102412F0080F29
:10CD90009A6A18BF1224920706460AD5586B9A6AF7
:10CDA000140634D519B19A6A22F080029A621324CB
:10CDB00001E06FF01500174B9A6A12F0010F9A6AA2
:10CDC00018BF142412F0200F9A6A18BF1524D20637
:10CDD00002D49B6A9B070AD50E4B5B68190506D5E2
:10CDE000314600F09FFA10B180F309880224094B04
:10CDF0009A6A920642BF5A6A22F400525A629A6AAA
:10CE000042F0FF029A6200232B70204670BD6FF043
:10CE10001500CCE700ED00E0134B9A6A12F0007F9A
:10CE20009A6A14BF1E201D2012F0807F9A6A18BFD4
:10CE30001F2012F4002F9A6A18BF212012F4802FAD
:10CE40009A6A18BF222012F4003F9A6A18BF232062
:10CE500012F4803F9A6A6FEA02426FEA12429A62C3
:10CE600018BF2420704700BF00ED00E010B5194B3B
:10CE70000246986A9C6A10F4805F14BF172016203F
:10CE800014F4006F9C6A18BF1820A40509D5986B8C
:10CE9000986A000404D51AB19A6A22F400429A6290
:10CEA00019200C4B9A6A12F4806F9A6A18BF1A20E4
:10CEB000D2050CD49B6A13F4005F18BF1C20054AEE
:10CEC000936A43F47F43936200230B7010BD1B20D1
:10CED000F5E700BF00ED00E0F0B5484B5B688BB0B4
:10CEE0000446C3F30803002585F31188BFF36F8F51
:10CEF00002F07F40B0F17F4F11D102F00C00082802
:10CF00000DD010074CBF0C4601250022033B8DF8C5
:10CF10000720032B05D8DFE803F0246367602C4665
:10CF2000F3E700239DF80720CAB902AE04F12007F9
:10CF300020686168324603C20834BC421646F7D105
:10CF4000099A002D54D0C2F3080121B96FEA522288
:10CF50006FEA4222099202A9184606F006FC0BB0BD
:10CF6000F0BD264BDA6A9107DBD4DA6A002AD8DBF7
:10CF7000DA6A5200D5D55A69A16942F480725A61C1
:10CF8000BFF34F8FBFF36F8F5A6931F8021C22F441
:10CF900080725A61BFF34F8FBFF36F8F4DF60272ED
:10CFA00091420AD09A6AD2B24AB10DF10702012128
:10CFB0002046FFF7E1FE0346B4E72368B2E79A6A2A
:10CFC00012F47F4F05D00DF107010120FFF74EFF4E
:10CFD000F1E79B6AB3F5803FA3D3FFF71DFFEAE7B4
:10CFE0000DF107020021E3E70DF107010020EDE755
:10CFF00022F4FF7222F00102ACE700BF00ED00E076
:10D00000044B5A6942F010025A615A6922F0080230
:10D010005A61704700ED00E0EFF30880EFF30981FB
:10D0200001B57246FFF758FF01BD00BF002080F335
:10D030001488BFF36F8F03F01DFA00200D490860BC
:10D04000BFF34F8F0C4880F3088800F03DF8202094
:10D0500080F3118809484FF40461401880F309886F
:10D06000EFF314800221084380F31488BFF36F8F1D
:10D0700000F020F994ED00E080240020C01600208C
:10D08000BFF34F8F0549064BCA6802F4E0621343B1
:10D09000CB60BFF34F8F00BFFDE700BF00ED00E0A6
:10D0A0000400FA050749D1F890200023C2F30722B3
:10D0B0001846934200DB7047C1F89830C1F8A000D1
:10D0C0000133F6E700ED00E008B572B6002383F304
:10D0D0001388FFF7E7FF144B4FF0FF32C3F88020AF
:10D0E000C3F88420C3F88820C3F88C20C3F89020AC
:10D0F000C3F89420C3F89820C3F89C20C3F880217B
:10D10000C3F88421C3F88821C3F88C21C3F8902187
:10D11000C3F89421C3F89821C3F89C2162B6BFF3E9
:10D120004F8FBFF36F8F08BD00E100E0084B9B6895
:10D1300083420BD1EFF3058343B1064B5A6842F0AB
:10D1400080525A605A6A22F400425A6208F039BD8D
:10D15000F40D002000ED00E0094A93686FF00A0129
:10D160009967084958674B6843F080534B60002328
:10D1700083F31188BFF36F8F9368986F704700BF78
:10D18000F40D002000ED00E010B50446EFF311832C
:10D19000202383F31288BFF36F8F0A4B586998607E
:10D1A000094B4FF000625A60084B026F1A60002270
:10D1B000436F426783F31188BFF36F8F00F01AF952
:10D1C000204610BDF40D002000ED00E0100A002004
:10D1D0000B498A684FF030001044EFF3098C80E867
:10D1E000F01F74467046FFF7CFFFA64604498A68D1
:10D1F00002F1300090E8F01F8CF3098870470000BE
:10D20000F40D00201EF0040F0CBFEFF30880EFF3C5
:10D210000980816911F8021C0229FFD001B506F0CE
:10D22000AAFA01BD40B2002807DB044A41090123E4
:10D2300000F01F00834042F82130704700E100E019
:10D2400040B200280CDB4309064900F01F002033E0
:10D250000122824041F82320BFF34F8FBFF36F8F2D
:10D26000704700BF00E100E0054B420900F01F00DD
:10D2700053F82220012303FA00F01040704700BF4A
:10D2800000E100E040B20028A8BF00F1604001F1D9
:10D290000101B8BF064B4FEA4111ACBF00F5614038
:10D2A00000F00F00C9B2B4BF195480F800137047E2
:10D2B00014ED00E00B4A08B50B4B22F07F029A6098
:10D2C000BFF34F8FBFF36F8FD3F8882022F4700223
:10D2D000C3F8882004F08AFA05F022F900F060F81B
:10D2E00004F0C8FA00C2000000ED00E042F8203C63
:10D2F000009B42F81C3C0A49019B42F8183C029BE7
:10D3000042F8143C21F001014FF0807342F8043CD4
:10D3100042F8081C0023203A02654367704700BFAB
:10D320003DC70000094A0346906870B113F1160F1B
:10D33000006E05D0A0F140029A4205D8834203D284
:10D34000814228BF0020704700207047F40D002064
:10D3500008B515460B4A0C4B9060026F1A600E46DA
:10D3600000F048F82C4686F309884FF00000074B80
:10D37000984720464FF000014FF000024FF00003A5
:10D38000034C2047F40D0020100A002095370100BF
:10D390003DC70000014B10221A61704700ED00E00C
:10D3A000044800232021C2180133302B82F80013D7
:10D3B000F9D1704700E100E008B5EFF30583064AB4
:10D3C000103B02EBC30152F8330049688847BDE8BF
:10D3D0000840FFF7BDBC00BFA05F0100024B034A3D
:10D3E0000348012100F076B8000002200000002070
:10D3F000D4610100026E054B403A1A60044A402194
:10D40000C3E901121846012100F06EB8140A002089
:10D4100000000B15084AC2F898000B6823F01F03A0
:10D42000034343F01003C2F89C308B6843F00103C0
:10D43000C2F8A030704700BF00ED00E02DE9F043D6
:10D44000DFF8608085B00E461F4604464FF00009A5
:10D45000B14523DA6068D8B13FB1411E08421BD103
:10D460001F2819D92368194216D12368019306F0A1
:10D47000B4F9A36803430393D8F89050C5F3072584
:10D48000D0B2013DA84207D801A9FFF7C3FF421C53
:10D4900009F101090C34DBE76FF01502104605B005
:10D4A000BDE8F08300ED00E0044B0522C3F89420B2
:10D4B000BFF34F8FBFF36F8F704700BF00ED00E0E9
:10D4C000BFF35F8F024B0022C3F89420704700BF68
:10D4D00000ED00E010B5034C01232278FFF7AEFF0A
:10D4E000207010BD2C0E002008B50B4A00231278C6
:10D4F000FFF7A4FF10F1160F07D0084A0021D2F859
:10D500009030C3F30723984200DB08BDC2F89800AF
:10D51000C2F8A0100130F2E72C0E002000ED00E070
:10D520002DE9F043534B544CD3F890302568C3F3A6
:10D5300007239D4285B000F29A80FFF7C1FF0020CB
:10D540000C2685421AD14D4C4D4F25706846FFF789
:10D5500053FBDFF82081DFF82C9106460025AE4210
:10D5600013D1237843490020D1F89020C2F3072239
:10D57000934276DBFFF798FF002042E0616806FBEC
:10D580000011FFF747FF0130DBE7009800EB0511C2
:10D590004FEA051CCB683B40B3F5000F48D00AD8D2
:10D5A000B3F5001F30D0B3F5800F36D0B3F5801F30
:10D5B00010D00135D3E7B3F1807F42D0B3F1007FC3
:10D5C000F7D150F80C3088684A6806F006F940F444
:10D5D000802009E050F80C3088684A6806F0FDF8B1
:10D5E00040F0885040F43020CDE901230390D8F872
:10D5F00090302078C3F30723013B98422AD96FF07B
:10D60000150005B0BDE8F08350F80C3088684A6812
:10D6100006F0E3F840EA0900E6E750F80C308868C5
:10D620004A6806F0DAF840F0007040F40030DBE7BA
:10D6300050F80C3088684A6806F0CFF840F08270E5
:10D64000D2E750F80C3088684A6806F0C6F840F017
:10D650008870C9E701A9FFF7DDFE23780133237045
:10D66000A7E7C1F89830C1F8A00001337CE74FF07C
:10D67000FF30C6E700ED00E0E06101002C0E002065
:10D680000000F0FF0000081108B5024B1B68984726
:10D69000002008BD200A0020034B044A186093783C
:10D6A00043F0020393707047200A0020F804002022
:10D6B00008B50649064821F00701C1F1005202F5FC
:10D6C000003205F0D7FD002008BD00BF87300020E4
:10D6D000240A002070B54169857A0C4E044659B180
:10D6E000437ADB0706D4242303FB0563DB691B684D
:10D6F0009B6898470023636105EBC505214606EB4F
:10D700008500BDE8704008F009B900BFEC060020B4
:10D71000827A064B242101FB02331A6A1B7D1B33DC
:10D72000801A23F00303B0FBF3F07047EC060020EF
:10D7300038B5074B827A242404FB0233DB69D3E932
:10D7400001240C601568FFF7E3FF04FB005038BDAF
:10D75000EC0600202DE9F04F85B0054668460391A0
:10D7600091461C4690469A4608F088FADDE9006723
:10D77000EFF3118B202383F31288BFF36F8F698A35
:10D78000002942D02B8A8B4226D90022002328462A
:10D7900004F030F90446F8B18BF31188BFF36F8FB2
:10D7A000039B002B4FD032463B46684608F08AFA6E
:10D7B000A27A2D4B242101FB02332046DB691B6832
:10D7C00003A91D68DDE90023A847606100283BD15B
:10D7D0002046FFF77FFF31E0698A4B1E6B828BF397
:10D7E0001188BFF36F8F2B7D2A8A2C6A1B3323F09D
:10D7F0000303521A02FB03441B4B1C4AEB1A9B10F7
:10D800005343A3722B7DE372CAE78BF31188BFF3F6
:10D810006F8F54EA090409D008F01CFB144A154B19
:10D8200012589A420ABF8846C846C24642465346E4
:10D83000284604F0DFF804460028B1D10024204631
:10D8400005B0BDE8F08F6361012300252381039BB0
:10D850006382E27A6560294604F1180008F082FAD2
:10D8600063692582E360EAE7EC060020398EE3383D
:10D8700008000000D008002070B50C4C242500B929
:10D8800070BD037A4668013BDBB20372002BF7D10F
:10D89000C3604360837A05FB03439B6913B19847D8
:10D8A0003046ECE7FFF716FFFAE700BFEC06002072
:10D8B000024B0122C3F840250020704700E00140E0
:10D8C00020B1034B800143F001031847704700BFAC
:10D8D0004061010038B5064C064DAC4201D3002032
:10D8E00038BD54F8043B002BF7D09847F5E700BF4C
:10D8F0002061010028610100084B0246186808B148
:10D90000036800B9704741899142FBD01BB1196887
:10D9100018460B46F5E71946FAE700BF300A002023
:10D920000A4B1B681BB11A681BB9184670471A4688
:10D93000FAE75989814206D01AB1116813460A469E
:10D94000F2E71146FAE7D868704700BF300A0020B6
:10D9500000230360044B5A6812B9C3E90000704702
:10D9600010605860704700BF300A00202DE9F04F6A
:10D9700000238BB0CDE9063304460D4601F10C0AB5
:10D980002B8A3BB999462168284606F052F921684E
:10D99000002080E0072B40F20381EA68106851689C
:10D9A00006AB03C3BDF81A305BBA1FFA83FBADF8B0
:10D9B0001A30BDF81C305BBA9AB208215046ADF857
:10D9C0001C30059205F028FF2B8A5B45C0F0EE80E5
:10D9D0009DF8188018F0050940F0ED802168284670
:10D9E00006F013F90646002800F0E880606840F869
:10D9F000045B2B8ACDE9019901220092EA68042197
:10DA000007F034FDA068314605F04FFF9DF818304F
:10DA1000A768C3F3C103012BC7F84C9000F2C38081
:10DA20000598FFF769FF002800F093809DF81F100C
:10DA300005F00CFF002800F08C809DF8183013F0E2
:10DA400007032ED0022B47D04FF00309A0683146C0
:10DA500005F02BFFD4F8088008F1040702213846AE
:10DA600007F0C4FD00287AD056490222384607F054
:10DA7000A2FD002873D04946384607F080FD0221F8
:10DA800000286ED1384607F0B9FD2168284606F017
:10DA9000D0F82168304606F0CCF848460BB0BDE817
:10DAA000F08FD0F80090A068B9F1000F51D00F218D
:10DAB000043007F09BFD00284ED02046C847814621
:10DAC000A0680F21043007F099FD40B9B9F1000FAB
:10DAD00008BF4FF00709B9E7D0F80490E3E7B9F1C0
:10DAE000000FB3D1B7F84E90B9F1000F12D018F073
:10DAF000180F0FD1B7F84C00FFF712FF034610B90B
:10DB00004FF00109A2E7484698478146B0B1002E80
:10DB10004ED09BE7D7E90087D8F80C30FF1A08A948
:10DB2000A7F1080206A805F0A1FEA8F81070A368E6
:10DB30001B68DA680B4603CB1060516023683046DF
:10DB40001B6A9847814698BB5946504605F064FECB
:10DB500016E74FF0080979E74FF0070976E7022149
:10DB600090E7384607F04AFD00288ED0D8E900A794
:10DB7000DAF80C30FF1A08A9A7F1080206A805F088
:10DB800075FEAAF81070A3681B68DA680B4603CB11
:10DB900010605160236830461B6A9847002674E77E
:10DBA0004FF00909EFE64FF00D094FE74FF0090973
:10DBB0002E4600254AE74FF00809F9E74FF0020921
:10DBC000F6E700BF3667010070B504460E461546FD
:10DBD0008AB3A0F84810A0F84A201849032207F099
:10DBE000EAFC18B9002000F0010070BD02212046B7
:10DBF00007F0FCFC0028F5D011490522204607F06B
:10DC0000DAFC0028EED03146204607F0C2FC00289E
:10DC1000E8D00C490222204607F0CDFC0028E1D0D4
:10DC20002946204607F0B5FC0028DBD0022120461B
:10DC300007F0E4FCD7E70120D7E700BF3967010010
:10DC40003D6701003667010070B50C4615461E465B
:10DC500048B1094833462A46214605F03FFD0028D1
:10DC600018BF0C2070BD054B0348197805F048FD1E
:10DC70000028EED00A20F5E7380A0020640C0020C6
:10DC80007FB50C46002843D1234B69461878FEF730
:10DC9000B9FF00283ED1009805F088FC0646002810
:10DCA00032D0009B5B68013B191901AA06F0CBFA40
:10DCB000014658BBDDE90005029B1D444368ED1A8F
:10DCC0002A4605F059FC044630B10D24009805F0B1
:10DCD00010FC204604B070BD009B986806F03BF82D
:10DCE000A842F3D3009B5968014401AA304606F0CC
:10DCF000AAFA0098019943688268C91A521A05F075
:10DD00003BFC0028E2D0E0E71224DFE71324DDE744
:10DD10001424DEE70A24DCE7640C0020F0B5064694
:10DD20000D4685B018220021284608F01BF87368BC
:10DD3000581C00F09080002B7CD132691F2A6DD9CD
:10DD4000B268511C6CD0C5E90023F768434B3A68B0
:10DD50009A4267D1B269202A66D862B14048036806
:10DD6000013308D0037B9A4205D171690D3008F068
:10DD700001F80446A0B1002005F0D8FE18B905F05E
:10DD800036FE00280FDA012005F0D0FE20B9012070
:10DD900005F02DFE002806DA4FF0FF33EB60092472
:10DDA000204605B0F0BDE8606946C0B2FEF72AFF24
:10DDB00000283BD10098B26883689A4203D905F0E5
:10DDC00098FB1E24ECE705F094FB337F73B9287BA6
:10DDD00001A9FEF717FFB0B9019805F0D7FD044679
:10DDE000019805F086FB002CDADB0DE002A805F0B7
:10DDF000DFFEE8B907F1140102A805F000FE0028D3
:10DE0000E5DB1B24CCE70A24B4FA84F464096C74BF
:10DE10003369AB6001232B740024C1E71624BFE7EC
:10DE20001524BDE71724BBE71824B9E70A24B7E790
:10DE30001A24B5E70A4A13689168EB600023296049
:10DE40006B60736852689342E6D132691344994219
:10DE5000DED21F24A4E71424A2E700BF3DB8F39646
:10DE6000640C0020F0B595B00F46202302930446C1
:10DE700015466B460CAA03A93846019200F050FAE9
:10DE80000646002840F08E8004340F21204607F01B
:10DE9000ADFB10B9002015B0F0BD43490422204667
:10DEA00007F089FB0028F5D007F00101204607F0B4
:10DEB00070FB0028EED03D490722204607F07BFB8F
:10DEC0000028E7D005A903A800F0D0F9002861DAFE
:10DED00037490522204607F06EFB0028DAD0354985
:10DEE0000422204607F067FB0028D3D001A9204672
:10DEF00007F05BFB0028CDD02F490822204607F011
:10DF00005AFB0028C6D0009981F01001C1F300111E
:10DF1000204607F087FB0028BCD02849072220466E
:10DF200007F049FB0028B5D0C5F34001204607F0B3
:10DF300079FB0028AED022490922204607F03BFB9E
:10DF40000028A7D0C5F38001204607F06BFB00280E
:10DF5000A0D01C490622204607F02DFB002899D0AE
:10DF600005F00101204607F05DFB002892D016491C
:10DF70000922204607F01FFB00288BD0C5F3C00103
:10DF8000204607F04FFB002884D00F21204607F0E1
:10DF900035FB80E7192205A920468DF82C6007F093
:10DFA00013FB9AE7012076E7436701004867010009
:10DFB00050670100566701005B670100646701005C
:10DFC0006C670100766701007D6701002DE9F7436A
:10DFD00086683449043607460622304607F0EBFAD5
:10DFE00038B905F0C5FD05F0C4FD072003B0BDE854
:10DFF000F0830221304607F0F5FA044605F0B8FD3B
:10E00000002CF0D000240DF1070120468DF80740C8
:10E0100005F06DFD8046204605F0ACFD9DF807300B
:10E02000022B054680F001092AD180454FF00108F6
:10E030002CD14D45B8682CDA42462946FFF712FF2D
:10E040000028D0D022464946B868FFF70BFF0028C9
:10E05000C9D00221304607F0CDFA0028C3D01249BA
:10E060000B22304607F0A7FA0028BCD0002130462A
:10E0700007F085FA0028B6D005F07BFD0020B5E753
:10E0800080454FF00508D4D0022BD2D8074AD45689
:10E09000CFE722464946FFF7E5FE0028A3D04246D7
:10E0A0002946D1E7876701008E670100A26701005A
:10E0B0002DE9F3414FEA6008044640460F4605F05B
:10E0C00059FD002306460DF1030140468DF803304B
:10E0D00005F00DFD0546EFB105F04EFD804505D17B
:10E0E0009DF80330012B26D11C2420E0A6423DD010
:10E0F0009DF80330012BF7D0002B3BD0022B39D0F9
:10E10000204605F074FC01A9C0B2FEF77BFDD0B13A
:10E110000A240CE0A6422BD09DF80330012B03D03B
:10E120007BB1022BE0D0EBE7A042DDD100242046FA
:10E1300002B0BDE8F081002BE0D1A542F6D0A642A6
:10E14000F0E7A042EEE7331B594201983A465941A5
:10E1500006F090FC044628B1441E032C9ABF074BDE
:10E160001C570124019805F0C4F9E0E72024DEE7FC
:10E170002124DCE7A542C3D1D8E700BFA567010091
:10E18000F0B597B035490C9104210D91344902AA9C
:10E19000CDE90E12334A119205460722D0E9010457
:10E1A0001292314A139200230DF10302CDE902339A
:10E1B0008DF8033001938DF8403014928DF854306F
:10E1C000022201AB0CA9043005F089FB002841D1E3
:10E1D00005F0CEFC039B04346BB99DF8033063B1AA
:10E1E00005F0CAFC05F0C6FC9DF80310FFF760FFC0
:10E1F00018B382B202E0202B0AD018222046012157
:10E20000FFF7E2FC044605F0B4FC2CB300241BE04D
:10E21000029B04AA03F1200C174618685968164699
:10E2200003C6083363453246F7D10021384605F06E
:10E23000A5FC0028D8DA0822E0E72846FFF7C6FE4A
:10E24000044620B105F095FC204617B0F0BD05F05E
:10E2500090FCDBE70324F7E70724F5E756670100A6
:10E26000495201009A670100F552010073B54388D5
:10E270000193437800930E4603780C4A0546192112
:10E28000304604F0C7FA041E03DA4FF0FF3002B044
:10E2900070BD6B683BB1064AC4F11901301904F036
:10E2A000B9FA031EF1DBE018F1E700BFA96701002E
:10E2B000B5670100033880B219289ABF014B185680
:10E2C00001207047D867010008B5054B2C220021BA
:10E2D000184607F047FD4FF0FF3240F8042C08BD08
:10E2E000680C00200148FFF733BB00BF0805002081
:10E2F00010B5041D08490322204607F05CF908B94F
:10E30000072010BD054B2046596807F04CF900283E
:10E31000F6D00020F5E700BFB9670100640C0020CB
:10E320002DE9F0438BB00C460DF10301054616466E
:10E330001F4605F0C2FB0146002840F08D802023D7
:10E3400002AA284605F098FB002850D19DF80380CA
:10E35000DFF81091B4BB0298484540D10FB1069B3D
:10E360003B60059BBDF810401C4404230DEB0302E9
:10E370002146284605F080FB40B9BDF8042046F64A
:10E3800008139A4204BFBDF80630E41804230DEBCD
:10E3900003022146284605F06FFB58BBBDF8042058
:10E3A00046F607139A4225D1BDF806700434274477
:10E3B000814604F10408B8451ED989F001094FEAE5
:10E3C000C90014E008224146204607F0CBFC029821
:10E3D000484504D107AB03CB20606160BEE74FF036
:10E3E000013303FB08F8404514BF172003200BB08E
:10E3F000BDE8F0830420FAE704230DEB0302214675
:10E40000284605F039FB0028F1D1BDF80420BDF8FD
:10E410000630FF2A05D14FF6FF72934205D1052041
:10E42000E5E7102A01D1202B04D0043303EB0408C4
:10E430004446BEE7B9F1000F10D116B94FF00109FB
:10E44000F6E72434BC420BD832464146284605F054
:10E4500013FB0028F2D0CAE70220C8E70620C6E76F
:10E460000720C4E73DB8F39670B58AB01B4A059201
:10E47000D0E9010504220692194A079200230126D9
:10E4800001AACDE9016308928DF82430324602AB2F
:10E4900005A9043005F023FA0446E8B9034602460C
:10E4A00003A901980435FFF73BFF58B9019805F01F
:10E4B0003DFB38B1092201212846FFF785FB2046A4
:10E4C0000AB070BD019805F0B1FA0646FFF7FCFEF0
:10E4D000002EF4D0B2B2EEE70324F0E74367010068
:10E4E0003F5201002DE9F043B7B0D0E901370024D5
:10E4F0000DF12008214620220646404603F104097A
:10E50000019407F02FFC4FF0FF33CDE909335B4B4B
:10E510001893052319935A4B8DF87040CDE91A389A
:10E52000584B1D9304231E930BAA574B1F93209205
:10E530002E93564A22920DAB554A2F93554B249257
:10E540000AA92992319309AA072325912A925249AF
:10E55000524A3293524B339303250FABCDE9271523
:10E56000CDE92C253493062201AB18A948468DF835
:10E5700084408DF898408DF8AC408DF8C0408DF8FF
:10E58000D440239505F0ABF90446002874D102A9C4
:10E5900040460437FFF7C2FB88B182B201213846FA
:10E5A000FFF712FB0023054610AA19460120FFF7CA
:10E5B000B7FEFFF789FE002D08BF072406E09DF88F
:10E5C00018303BB9B068FFF793FE0446204637B0D9
:10E5D000BDE8F083334D059B2B60029BAB60099B2C
:10E5E000DBB9DDF838800D996C60424605F10D000D
:10E5F00085F80C8007F08EFB08F10D00C8F12002B1
:10E600002146284407F0AEFB9DF819302BB10A993A
:10E610002046FFF735FB0028BFD10C9BD5E901123E
:10E620002BB9914222D0B068FFF762FECEE70B44CF
:10E630009A1A534253410B99049A0998FFF704FB25
:10E64000034688B96A6804990A44A9686A608A42DC
:10E65000E9D1014610AA0120FFF762FEB068FFF77A
:10E6600047FEFFF731FEB1E782B297E710AA1946DD
:10E670000120FFF755FED6E72C46A7E7BD6701004E
:10E680003F520100C367010049520100C867010001
:10E6900045520100D0670100B9670100CC67010055
:10E6A000F5520100640C00200148FFF751B900BF8A
:10E6B0001805002008B54FF400520023024803F06B
:10E6C000B5FB002008BD00BFC0040020F0B589B034
:10E6D000D0E90145134A0392134A0023012701AEF2
:10E6E000CDE90133CDE905268DF81C30201D6B46A0
:10E6F0003A4603A9049705F0F2F8044678B90435C0
:10E700000A493A46284606F056FF20B131462846C7
:10E7100006F04EFF00B90724204609B0F0BD0324DF
:10E72000FAE700BF746701004F5201003B67010028
:10E7300013B5084C204607F063F9074B00932046B9
:10E74000064903234FF4006203F008FB002002B0E7
:10E7500010BD00BF100700207C620100800E002069
:10E7600002480022002305F053B800BFEC06002049
:10E7700010B5036A044643B1054907F015F904F1E1
:10E78000100007F0B8F8002010BD6FF01500FBE78F
:10E79000D93B010010B50446103007F0B4F821460B
:10E7A0000248BDE8104007F01BB900BF1007002069
:10E7B0000748084B10B50362074B4362FFF7D8FFC9
:10E7C000044610B9054800F02FFB204610BD00BFDD
:10E7D000940C0020533C01004D3C0100E1E7000097
:10E7E00008B50146034807F08EF8BDE80840024826
:10E7F00003F0AEBADC06002028050020F8B50D4E67
:10E800000D4F00220023304603F0F4F8044600B90F
:10E81000F8BDD4F88420211D384605F03EFA05469F
:10E82000204600F079FA002DEBD004482946FFF786
:10E83000B1FFE6E7DC060020C80C0020940C0020A5
:10E840002DE9F74F05460E4614460A4601460020BC
:10E8500004F0A7FA4FF0000A074640F606134FF0FF
:10E860005D08D1464FF0010BB245ADF8023001DB37
:10E87000002062E002210DEB0100A04700285CD1DE
:10E88000BBF1000F13D0B31C5BBAADF80230ADF88A
:10E89000043022462B788DF80630032101A805F0BC
:10E8A000EDF9002849D10AF1010AA8F10308A6EB05
:10E8B0000A0343459B46A8EB0303A8BFC346012BAD
:10E8C00005D80BF1FF3B4FF00009D34414E0FCDD09
:10E8D0004FF00109F9E705EB0A0335F80A209B78A8
:10E8E000ADF804200321224601A88DF8063005F07A
:10E8F000C5F910BB0AF1030AABEB0A03022B52461F
:10E90000E9DCB9F1000F0FD0A6EB0A03012B17D0F9
:10E91000022B22D043B97BBAADF804302246022143
:10E9200001A805F0ABF940B919480121A0474FF003
:10E93000000B41F20443002896D003B0BDE8F08FED
:10E94000AB5C8DF804303B0A0AF1010A8DF8053002
:10E950008DF8067022460321E2E70AF1010315F85B
:10E960000A20EB5C8DF804208DF8053022463B0A26
:10E97000032101A80AF1020A8DF8063005F07EF99C
:10E980000028DAD18DF8047022460121C8E700BFC3
:10E99000F7660100084B70B5C31A0D4607499B1076
:10E9A000044659430648402205F0E0F92B4601464B
:10E9B0002046BDE870401847E40C0020B76DDBB678
:10E9C000005F010073B50C4C0C4A4023041B0093FC
:10E9D0000D460B460A49A41061430646094805F056
:10E9E000F1F9011E05DA30462B4602B0BDE8704051
:10E9F000184702B070BD00BFE40C00202F3E01009C
:10EA0000B76DDBB6005F010010B5EFF31184202372
:10EA100083F31288BFF36F8F074A136823F0020154
:10EA2000DB07116002D4012006F0C8F884F31188D6
:10EA3000BFF36F8F10BD00BF340D0020002270B5F2
:10EA4000012104461046FEF71DFC0F4801F002FEAE
:10EA50000E4B984215D101F00DFE26690C49304647
:10EA600004F0BEFC00280BDB01253564246908494D
:10EA700004F11C0004F0B4FC002801DBE564002074
:10EA800070BD6FF00400FBE78DEB00000000AD0BE4
:10EA9000846201001FB500220123CDE90223094A47
:10EAA000CDF800D06B46CDF804D005F0B9F90028B8
:10EAB00005DB4FF480420023684602F0F1FF05B009
:10EAC0005DF804FB4D3E010030B4104B0C2202FBFC
:10EAD000003301460020D3E90E529863EFF3118012
:10EAE000202484F31288BFF36F8F1C6C04F0C004E1
:10EAF00044F002041C6480F31188BFF36F8F1DB1D2
:10EB00002B46034830BC184730BC7047E40C00204B
:10EB1000005F010010B4EFF31182202383F3128809
:10EB2000BFF36F8F1748016841F002040460C80703
:10EB300007D482F31188BFF36F8F012010BC01F05E
:10EB4000ABBD4FF08041D1F80C04D1F80C14C907CB
:10EB5000EFD5EFF3118083F31288BFF36F8F0A496B
:10EB60000B6C03F0C00343F002030B6480F31188C5
:10EB7000BFF36F8F82F31188BFF36F8F002010BC3B
:10EB8000FFF7A2BF340D0020E40C002010B10128D3
:10EB900004D07047034B1B6C5B0701D1FFF794BF98
:10EBA000704700BFE40C00202DE9F0413849BFF365
:10EBB0005B8F0746012251E8003F41E80020002812
:10EBC000F9D1BFF35B8F33B9324933484B60CB6027
:10EBD0008A6004F018FC7B1E012B2BD8012F07D173
:10EBE0004FF08043D3F81C3403F00303012B21D0F2
:10EBF00006F00CFF0546F8B9284B1B78E3B14FF03F
:10EC000080430222C3F808230646DFF894804FF0C1
:10EC10008044D4F81824D4F81834D20315D503F05E
:10EC20000303012B01D0012F0FD155B386F31188B7
:10EC3000BFF36F8FBDE8F081EFF31186202383F3DC
:10EC40001288BFF36F8F0125DFE7ADB1304604F0C6
:10EC5000B5FDD4F81835002BDBD1D4F80421002AF7
:10EC6000D7D0C4F80431D4F804310123C4F81835DE
:10EC7000C8F88031A360CCE70021212003F094FB89
:10EC8000E7E74FF080430222C3F80423D2E700BF36
:10EC9000E00C0020D00C0020000D0020700E0020A1
:10ECA00000E100E008B5074806F0D6FC38B1064898
:10ECB000FEF7F2FC0448FDF723FD002008BD6FF0CD
:10ECC0001200FBE73C5F0100CDEC00000A2838B5DC
:10ECD000074D044604D1AB680D215B682846984770
:10ECE000AB6803485B68E1B29847204638BD00BF77
:10ECF0003C5F010070B5074E04464518AC4201D197
:10ED0000002070BD14F8011BB36802485B68984787
:10ED1000F4E700BF3C5F01000146014806F04EBD2C
:10ED2000C00600202DE9F047374D8AB0374CA76860
:10ED300002E02046984748B9FB6B002B58D1A668E3
:10ED4000B36B002B5BD1F36A002BF2D1336913B99B
:10ED50006FF0570606E02D48202202A99847064684
:10ED60000028E9D02A4C02AF4FF00009B145DDDAA6
:10ED70002B7817F8018B7BB9D4F800A0BAF1000FFB
:10ED80000AD124480022002301A902F005FED8B9C7
:10ED9000019B2360C3F8840095F800A02068BAF1B5
:10EDA000000F09D1D0F884307F2B12D9FFF7B4FFC0
:10EDB0000123C4F800A02B70B8F10A0F01D1002381
:10EDC0002B7009F10109D1E70123C4F800A02B70D1
:10EDD000E2E75A1C0344B8F10A0FC0F8842083F814
:10EDE0000480EED10C4BC4F800A01B689847E8E7FC
:10EDF000204698470028A2D10AB0BDE8F0872046F7
:10EE0000984700289FD1F7E72D0E00203C5F0100B6
:10EE1000380D0020C00600203C0D0020014AFFF7FD
:10EE20000FBD00BFF5EC00000F4B70B518600F4C24
:10EE3000204606F011FCB0B1A3685B6A0BB1204616
:10EE40009847A568AB690BB1084898472B6C1BB174
:10EE50000749064800229847A3681B6A1BB1BDE812
:10EE600070400248184770BD3C0D00203C5F010017
:10EE700025ED000000487047EC6201002DE9F04FDD
:10EE80008FB0044602AF00694FF0FF32012106F057
:10EE90004FFD6668306806F0DFFB30B96FF0120591
:10EEA00028463437BD46BDE8F08FF06818B106F04B
:10EEB000D3FB0028F2D0206904F0D3FF204605F0F0
:10EEC00038F8051E3CDDEA0734D4206904F0C7FF9A
:10EED000206904F0C6FF0323019307F11003009398
:10EEE00000231A469F21204604F0C1FF8046206976
:10EEF00004F0B5FFB8F1000FD0D1337E002B3BD02A
:10EF0000206904F0AEFF204605F013F8051E2EDD43
:10EF1000337E25EA03053D764346CDE9008880220D
:10EF20000621204604F0A3FF034678B1206904F0CF
:10EF300096FFB3E700220023204605F00BF80546B4
:10EF4000206904F08CFF002DC2DAA7E707F1180250
:10EF50000121009201918022204604F088FF0028C0
:10EF6000E4D100220023204604F0F4FF0546206986
:10EF700004F075FF002D91D1206904F072FF182371
:10EF80000193FB180093052200235A21204604F028
:10EF90006EFF05462069EA4604F061FF002D7FF40C
:10EFA0007DAF8B4BBA699A427FF478AF97F81E8099
:10EFB000B8F1010F9CBF08F101085FFA88F807F16A
:10EFC000200394BF4FEAC8084FF0100898441D462C
:10EFD0004FF0000BA84533D12369D869D5461946AF
:10EFE00003F1080600224D7C25B18D7C0AB19542C3
:10EFF00000D22A4602318E42F5D1002A3FF44EAFAC
:10F000004FF0FF359540ED4315F480557FF446AF42
:10F010004FF48052000B5A621862206904F021FFFD
:10F0200063685B7EDB0700F1BE80206904F017FF98
:10F03000206904F016FF206904F011FF00252FE776
:10F04000EA792B7843EA0223B3F57F4F40F0A98099
:10F05000EA786E79C7F80CD0142A28BF14229200DF
:10F06000242A134638BF2423073303F4FF63ADEB90
:10F07000030DAB792069BA60360246EA03462B7964
:10F080001E4304F0EEFEBA680DF10809CDE90092C6
:10F09000330205225A21204604F0E9FE0646206983
:10F0A00004F0DDFE002E63D1D9F804102369002995
:10F0B00003F111025EDA21F000410120A1F12006E6
:10F0C000C1F1200C00FA06F620FA0CFC46EA0C0608
:10F0D00000FA01F1C90841EA4676C3F811B00121EE
:10F0E000C2F804B04846C7E90032B96005F0DBF861
:10F0F000B9687A683B680131C9B2052902F1020298
:10F10000F0D1EA780A2A88BFD9F82820DE6183BFC7
:10F11000C2F3031101228A404FF480725A83D9F856
:10F12000003013F4C02F3AD007F1140249462846A4
:10F1300000F0D4F8064690BB97F8149009F1FF331D
:10F14000DBB2FD2B2BD819F0030F11D0206904F08E
:10F1500088FE19F0020F0FD10023CDE90033802281
:10F16000B721204604F083FE88B1206904F077FEC1
:10F17000D54693E60131ADE7CDE9006633468022FE
:10F180000621204604F073FE0028E5D0EDE7226951
:10F19000137C43F001031374206904F060FED7F878
:10F1A0000CD0083516E72B46CDE900558022B92151
:10F1B000204604F05CFE0546206904F050FE002D58
:10F1C000BFF636AF15F1860F3FF432AF68E600BFE9
:10F1D00053464450024B0B6001231360704700BF3D
:10F1E000680D0020004870470863010010B5012237
:10F1F00011460648064C06F09BFB05F07FFD20609B
:10F2000005F078FD6060002010BD00BF700D00208B
:10F21000680D002070B50C46154605F06BFD2946BB
:10F220000646204604F0B9FF08B3B4FBF6F306FB2C
:10F230001343E3B9B5FBF6F306FB1353BBB9B54271
:10F2400001D2002070BD4FF0FF324FF0FF3309486C
:10F2500002F026FC05F04EFD0646204601F09EFE1B
:10F26000AD1B3444F9D1034802F0F6FBE9E76FF037
:10F270001500E7E7700D0020F8B50E463046194638
:10F2800017461C4604F089FF08B346EA040515F04A
:10F2900003051CD1A4B10F484FF0FF324FF0FF33EC
:10F2A00002F0FEFB24F00304A54206EB050009D1A1
:10F2B000094AD2F80034DB07FBD5064802F0CCFB44
:10F2C0000020F8BD795901F089FE0435ECE76FF0B4
:10F2D0001500F6E7700D002000E00140C3780F2B09
:10F2E00014D9C96B0B480B0E13708B0200EA9110F6
:10F2F00003F47C030906034301F0FE4110680B434D
:10F30000054901400B431360002070476FF08500F2
:10F31000704700BF00FF0300FF000080F0B54068A9
:10F32000057B01F01F0444EA4514056987B0002DF0
:10F3300064D0B2F5001F00F1100506D12146284621
:10F3400005F0CDFC002007B0F0BD01AE0027B2F5FE
:10F35000800F0197776039D1B3F1007F14BF052387
:10F3600004238DF804300023CDE9046303938368FC
:10F3700023FA01F111F001011AD1B2F1A07F17D1E6
:10F3800004F01F03620903F5E0732AD0012A3BD180
:10F390001F4A52F82330DB070AD40DF10306324628
:10F3A0002146284601F054FC1A4B98421CD0029684
:10F3B00003AA2146284601F00DFB174B984220D1A5
:10F3C00001222146284601F0A7FCBBE7B3F1C06F3C
:10F3D00005D0B3F1007F14BF01230223C1E703234B
:10F3E000BFE74FF0A042D4E73146284601F08EFC3B
:10F3F000094B9842DBD06FF00B00A4E76FF085005B
:10F40000A1E76FF015009EE751F82330FFDE00BF43
:10F41000000300500400AD0B0000AD0B38B545688B
:10F420002B69B3B11035284601F060FC044680B961
:10F430000146284601F026FC084B98420BD10849AA
:10F440002246284601F0FEFB224605210620FDF754
:10F4500019FF002038BD6FF00400FBE70000AD0B82
:10F4600065F40000420970B5034602D0012A17D0A6
:10F4700070BD0D4E326951680029F9D003F01F03A9
:10F4800001250C689D400029F2D08A682A4002D0EC
:10F490004B68304698472CB1236821461C46F2E75A
:10F4A000024EE7E72346F8E7285F0100145F0100FA
:10F4B0002DE9F043466840F20635D006337B87B02D
:10F4C00002EA050554BFC2F34010032001F01F07F4
:10F4D000B5F5837F144647EA43178DF8030045D0FE
:10F4E0000FD8062D18D007D8B5B1022D40D06FF037
:10F4F000150007B0BDE8F083B5F5807FF7D1012591
:10F500000AE040F20222954234D0B5F5407F33D074
:10F51000B5F5007FEBD102250123220303FA01F1A7
:10F520002CD57368C3F80815326982BB07F01F0336
:10F530007F0929D0012F77D13E4A02EB830284F460
:10F540008033D2F80017C3F30043C4F3404444EAC5
:10F55000430421F4E16144EA800421F0070144EA14
:10F5600005230B43C2F800370020C2E70725D3E785
:10F570000425D1E70525CFE70325CDE7630344BF85
:10F580007368C3F80C15CFE74FF0A042D5E71036EB
:10F590000DF102023946304601F05AFB14F4403FA7
:10F5A00080460CD13946304605F097FB224B9845F2
:10F5B000DAD19DF80210304601F0A2FBD4E701AB8E
:10F5C0004FF0000903AA39463046CDE90439CDE9A8
:10F5D0000199CDF80C9001F0FDF9174B984286D1B6
:10F5E00014F4003315D09DF803308DF80E3084F4F8
:10F5F0008034C4F300444B4603AA394630468DF8A4
:10F600000C508DF80D4001F09FFA0B4B9842CDD075
:10F610006DE7CDE9043303AA0DF103033946304603
:10F62000039301F0D7F9F0E703F5E07352F82330C4
:10F63000FFDE00BF000300500000AD0B036803F0C5
:10F640001F025B09026004D0012B034818BF002091
:10F6500070474FF0A0407047000300502DE9F04F75
:10F66000DFF86091DFF860A185B01546834600EBB6
:10F67000810140F2FF18594503D1002005B0BDE8D3
:10F68000F08FDBF800305804C3F3C322C3F308043F
:10F6900000F191801B0E19F80270444508BF4FF02D
:10F6A000FF34192B00F28A80DFE803F00D141A1DD5
:10F6B00020261D8888888836638888888888888876
:10F6C0008888667C7F82C5F80C45621C5ED10BF190
:10F6D000040BD0E7C5F81445631CF8D000265FE0A2
:10F6E000C5F80845F1E7C5F81045F5E7661CC5F80B
:10F6F0000845ECD0002604E0601CC5F80C45E6D0B7
:10F70000012603A80394FFF799FF039B012202FA45
:10F7100003F3C0F80C3508E0C5F80845002FDBD12D
:10F72000631CD4D0002632460627DBF80030019354
:10F7300003F40040002818BF002203A8009218BF5D
:10F7400001260394FFF77AFF039C019B009A00EBCC
:10F750008400C3F3412CD0F800473B0243EA8C03FA
:10F76000134304EA0A04234343EA4603C0F800377C
:10F77000ADE7C5F80C45D1E7C5F86045621CDBF87C
:10F780000030A4D0C3F30043002BB9D003A80394E6
:10F79000FFF754FF039B012606FA03F3C0F8083570
:10F7A0003246C2E7C5F86445E8E7C5F86845E5E7CD
:10F7B000C5F86C45E2E76FF015005FE76FF0850074
:10F7C0005CE700BF4E680100F0F8FCFF2DE9F04156
:10F7D000044647680D4606F019F94FF0200888B92D
:10F7E000264B1B7873B16426606804F07BFEF0B989
:10F7F000012005F07BF9013EF6D10021212002F025
:10F80000D3FDF0E7EFF31186314688F31288BFF39A
:10F810006F8F606804F066FEA8B986F31188BFF3A5
:10F820006F8FEFE786F31188BFF36F8FE5E7EFF394
:10F830001186314688F31288BFF36F8F606804F039
:10F8400051FE0028EED0FB691D706368FA691B68E1
:10F850000020C3F844250122C3F84825C3F820013D
:10F86000D3F82041C3F85801D3F858019A6081F3C6
:10F870001188BFF36F8FBDE8F08100BF700E0020CC
:10F88000F7B50546002201210220FDF7FBFC02200E
:10F89000FDF7C8FC6B6818681A69C0F82425997DC3
:10F8A0005A7D0A43198B1B7D0B431343C0F86C35FB
:10F8B0006E68D6E9004313F0010348D02F6907F1C1
:10F8C0000C0005F01FF9304B98425AD1387B04F1F7
:10F8D0000C0204F5907105F00BF9387B012707FA4B
:10F8E00000F000F0B1FE0823C4F80035F369C4F855
:10F8F00044350023C4F84835A760D4F85831002BAC
:10F90000FBD00021C4F800156B68DC6801AA204612
:10F9100004F031FD002805DB019B22681979186885
:10F92000FFF79CFE6A6813680821C3F80015117A76
:10F9300051B9126AC3F834250122C3F83825C3F837
:10F940001011D3F810111A60002003B0F0BD082286
:10F95000C4F80025F269C4F84425C4F848350123E9
:10F96000A360D4F82031002BFBD00023C4F8203151
:10F97000D4F820310123E3604FF48073C4F80433DA
:10F98000BBE76FF00400E0E70000AD0B2DE9FF419D
:10F990000569D0F804802B6D0646A86C002835D187
:10F9A000002B53D0B8F838406A6CEF6C9C4228BFEB
:10F9B0001C46EB6C53B1296D41B107F06041B1F1C8
:10F9C000005F03D0082C6F6E28BF082400926A6C79
:10F9D000AC651AB1AA6C002A18BF2246CDE90127EE
:10F9E0001BB12B6D002B18BF2346002269464046F1
:10F9F000039301F041FD184B984229D06FF00401A8
:10FA0000304604B0BDE8F04104F0E7BE696CEF6C2D
:10FA1000B8F838400A46ABB1834228BF03469C423F
:10FA200028BF1C460029C4D001F06043B3F1005F39
:10FA3000BFD0082C28BF08242246286E06F06AF999
:10FA40002A6EB6E7844228BF0446EBE71946D7E79B
:10FA500004B0BDE8F08100BF0000AD0B2DE9F04F10
:10FA60008FB09846436801938B8804690F469904C8
:10FA70000646914600F11D814FF0FF324FF0FF33F3
:10FA800004F1100002F00CF86760D6F804B0D6F864
:10FA900010A0DBF8083003939AF85D3023B1DAF850
:10FAA00000309F4200F08980B7F804E01EF4006F38
:10FAB00040F036811EF0090F40F02F81CEF3451340
:10FAC000082B40F02A813B680293029AAD4B9A4280
:10FAD00040F223810BF10C0CBCE80F0004AD0FC504
:10FAE000BCE80F000FC5DDE902329A4228BF1A4672
:10FAF0009CE80300A44B9A4285E803001BD2A34B69
:10FB00009A4218D2A24B9A4215D2A24B9A4200F2C4
:10FB1000D980A14B9A4200F2D780A04B9A4200F2C2
:10FB2000D5809F4B9A4200F2D3809E489E4B9F49BE
:10FB3000824288BF0B461EF0020F09930EF00403A9
:10FB400000F0C880002B14BF032302238DF8283057
:10FB5000CEF300138DF82930DBF80030D3F80825F8
:10FB60001EF0020F4FEA5213CEF3400102F01F02C3
:10FB700040F0B780002B00F0B180012B40F0FA80FC
:10FB80008B4901239340C1F80C359AF85D302BB1B5
:10FB9000584601F029FC00238AF85D303346854A37
:10FBA00004A9584601F0ECFB834B984240F0A58035
:10FBB00001238AF85D30CAF80070012384F85C30B4
:10FBC000019B196C4A1C03D003F1440004F06FFE42
:10FBD000B9F1000F40F0A780C4F834900023A3636C
:10FBE00004F1480204F1380104F1340004F01EFD70
:10FBF0006064B8F1000F40F09F80C4F83C8000239F
:10FC0000236404F1500204F1400104F13C0004F0CB
:10FC10000DFD00252A46E06401212046256304F0FD
:10FC20003BFD3046FFF7B2FEA06B2A462B468342CF
:10FC300040F08B800023256C1946A94240F08C804F
:10FC40009342274638BF13464FF4FA5202FB03F59E
:10FC500057F8203B4FF000081B68B5FBF3F54FF455
:10FC6000004CC835414640F2E7304FF47A72002329
:10FC7000E5FB0C01FCF744FB02460B46384601F05D
:10FC80000FFF024618B9256B15F1740F6BD101985F
:10FC9000C4F8588001F0A8FB84F85D806FF0730110
:10FCA000304604F09AFD384601F020FF6FF07305EE
:10FCB00025E0A369002B7FF4DFAE63689F427FF4E9
:10FCC000DBAEE2E63D4B36E73D4B34E73D4B32E7FA
:10FCD0003D4B30E7003B18BF012337E74FF0A04111
:10FCE0004FE73BB1012B48D1314901239340C1F883
:10FCF00008354AE74FF0A041F7E76FF004052368A5
:10FD00009B8813F4005304D1636004F1100001F0E8
:10FD1000A3FE28460FB0BDE8F08F6FF01505EEE7A3
:10FD20006FF08505EBE7D9F800306363002B3FF4F3
:10FD300055AFD9F8043052E7D8F80030E363002B10
:10FD40003FF45DAFD8F804305AE7616B01EBC301B3
:10FD5000013349680A446AE7E06B00EBC1000131F6
:10FD60004068034469E7002DC9D00146306904F0BA
:10FD700093FCC4E7C1F80C15FFDE0023C3F8083577
:10FD8000FAE700BF47E801000048E8010024F4005A
:10FD900000127A00FF083D007F841E003F420F00E2
:10FDA0001FA107008FD0030048E8010090D0030096
:10FDB00000030050FD4701000000AD0B00093D00AD
:10FDC00080841E0040420F0020A1070000F01F02A7
:10FDD00040090DD001280ED10A4B03EB82030A4AD9
:10FDE000D3F80007024042EA8102C3F800277047B7
:10FDF0004FF0A043F1E702F5E072002353F8223000
:10FE0000FFDE00BF00030050F0F8FCFFF0B587B044
:10FE100001238DF8023002238DF804306B440393E4
:10FE20000F4601AB0DF10301002404930546029136
:10FE3000059400F06BFF0C4B984206460FD103AAC5
:10FE40003946284600F0C6FDB0420BD09DF803109D
:10FE5000284600F055FF6FF0040007B0F0BD6FF0CA
:10FE60001200FAE72046F8E70000AD0B70B5012359
:10FE700083400E4ABFF35B8FDC4352E8001F01EA68
:10FE8000040542E80056002EF7D1BFF35B8F4FF414
:10FE9000803282400648C0F80823BFF35F8FBFF36B
:10FEA0006F8F0B4214BF0120002070BD9C0D0020FD
:10FEB0000010014070B40E49D1E90034D01AC318C3
:10FEC00044F1000422F07F46C1E90034A6F5001396
:10FED000B3F5400F09D2074B1B681A0A1B069C1981
:10FEE000054B42F10005C3E9004570BC02F0F2BBCE
:10FEF000C0070020A00D0020C807002011B3BFF3E9
:10FF00005B8F0123104A834052E800CF4CEA030C78
:10FF100042E800C10029F7D1BFF35B8F0B4A4FF4D1
:10FF200080338340C2F80433094BBFF35B8F1B68F7
:10FF3000BFF35B8FC340DB0742BF064B4FF4003279
:10FF4000C3F80021704700BF9C0D00200010014045
:10FF5000980D002000E100E00D4B1868010A000632
:10FF6000BFF35F8F0B4BD3F80435181841F1000134
:10FF7000B3F5801F0AD2084BD3E90023904271EBFE
:10FF8000030303D210F1807041F10001704700BFFC
:10FF9000A00D002000100140C80700202DE9F04FFF
:10FFA00085B016461F469DF840A00446FFF75EFF49
:10FFB0000190FFF7D1FFB04271EB070354D23E4BE3
:10FFC000301A67EB0101984271F100014FD23B4BAF
:10FFD00003EB0413D3E902239F4208BF96425ED08D
:10FFE00037494FF4803804F1500508FA04F8AD00A1
:10FFF000C1F848832046ADB204F081FC26F07F4B67
:020000040001F9
:1000000005F1804504F5A87305F58835DC464FF009
:1000100003090293029A2CF07F4341F82230C1F881
:100020004483D1F80435274A6FF00200C01A6044B7
:1000300020F07F40904232D9286868B1D1F8043569
:100040000393A3EB0B0020F07F40B0F5000F26D9FF
:10005000204604F054FC039BBAF1000F07D109EBD2
:10006000030C09F10109D5E7BAF1000F09D06FF0CF
:10007000150520460199FFF741FF284605B0BDE868
:10008000F08F0123104ABFF35B8FA34052E8000FAB
:10009000184342E800010029F8D1BFF35B8F0749FC
:1000A0000E98230101EB0412C8500F9B5360C2E964
:1000B00002670025DDE700BF01008000B0070020D7
:1000C00000100140FDFF7F00980D00207FB51C4C03
:1000D0001C4BC4F80833C4F848331B4B00254FF0C1
:1000E000FF304FF0FF31C4F80855C3E902014FF467
:1000F0008033C4F80433154B02264FF4003201213B
:10010000C4F804631120C3F880212A46FDF7BAF829
:100110001120FDF787F80E4A0123A36023601360C6
:100120000C4B0D4A0093CDE9015500232846FFF7FB
:1001300035FF3046FEF738FD284604B070BD00BFDD
:100140000010014003000F00B007002000E100E0B4
:100150009C0D0020B5FE0000FFFF7F002DE9F74356
:100160002F4CD4F8043399070BD5D4F8043143B19C
:100170002C4A0023C4F80431D4F804311368013345
:100180001360D4F80433DA0329D5BFF35B8F264B11
:1001900053E8002F22F0010143E800100028F7D1B6
:1001A000BFF35B8FD30702D4D4F84031BBB1002535
:1001B000C4F84051D4F84031FFF7CEFEEFF311827E
:1001C000202383F31288BFF36F8F184BD3E90267A4
:1001D000B042B94106D282F31188BFF36F8F03B0EA
:1001E000BDE8F0834FF0FF384FF0FF39C3E90289D3
:1001F000D3E900101D604FF48033C4F84833C4F8CD
:100200004051D4F8403182F31188BFF36F8F002939
:10021000E5D0009032463B4628468847DFE700BFDE
:1002200000100140A00D0020980D0020B007002014
:1002300030B5431C124C85B005D08442A8BF04469B
:10024000012CB8BF0124FFF787FE0E4B0C4DD3E9FC
:100250000013401AB0F5000F10D22218AA4228BF8E
:100260002A4652184FF0000007490091CDE90100DD
:1002700043F10003FFF792FE05B030BD2A46F0E7D8
:10028000FFFF7F00C0070020B5FE000008B5FFF7A4
:1002900063FE024B1B68C01A08BD00BFC0070020E8
:1002A00010B5084C012363601120FCF7C9FF064B11
:1002B000C4F80833C4F84833044B4FF40032C3F891
:1002C000802110BD0010014003000F0000E100E09C
:1002D000F0B5816885B01039054621F0070403F0B8
:1002E00067F90B4B6E4603F1100C324618685968DB
:1002F000374603C7083363453E46F7D110232146EE
:10030000284603F00CF9003818BF012005B0F0BDF5
:100310000065010030B50D46816887B0102302AA40
:100320001039044603F0E6F8002802DA012007B08D
:1003300030BD102202A9204604F005FB00283AD166
:100340001E49102202A805F015FD00280CBF01234C
:1003500002232B70204604F0E2FA012301460DF13E
:100360000702204603F0C6F80028DFDB9DF80730BF
:1003700003F00F021B096A702B7101220DF10701B6
:10038000204604F0E0FA10B96B78042B03D901235E
:100390006B7000232B71A268183A22F00702083A0A
:1003A000A91C204604F0E2FA0028BFD1E91C20462F
:1003B00004F035FBBBE70323CBE700BF006501007A
:1003C0007FB5264D4400694655F8240004F02DFB06
:1003D000002835D1013402A955F8240004F025FB8A
:1003E00001282BD103238DF808308DF80B309DF8B0
:1003F00000509DF808601A4A00241078294604F03D
:1004000094FA18B35078314604F08FFAF0B193782B
:10041000042B03D09DF80310994217D1D378042BF5
:1004200003D09DF80B10994210D11379042B09D1F8
:100430005079831E022B03D804B070BD0028D6D09B
:10044000FF20F9E79DF802109942F1D00134032C06
:1004500002F10602D1D10120EEE700BFE064010005
:100460007E680100024AD2F80034002BFBD07047AE
:1004700000E0014010B54FF08053D3F830210D2A31
:1004800055D14FF080410022C1F80C21C1F8102154
:10049000C1F83825464AD3F80404C2F82005D3F839
:1004A0000804C2F82405D3F80C04C2F82805D3F8D0
:1004B0001004C2F82C05D3F81404C2F83005D3F8A0
:1004C0001804C2F83405D3F81C04C2F84005D3F868
:1004D0002004C2F84405D3F82404C2F84805D3F830
:1004E0002804C2F84C05D3F82C04C2F85005D3F800
:1004F0003004C2F85405D3F83404C2F86005D3F8C8
:100500003804C2F86405D3F83C04C2F86805D3F88F
:100510004004C2F86C05D3F84434C2F87035D1F801
:100520000034DB0709D56FF00103C1F800344FF048
:100530008053D3F830310D2B0CD14FF08053D3F8CA
:1005400034313BB14FF01023D3F808224FF08043F1
:10055000C3F858254FF01023D3F80022002A03DBFC
:10056000D3F80432002B22DA124901234FF0102075
:10057000C1F804351224FFF775FFC0F80042FFF7F9
:1005800071FFC0F80442FFF76DFF0023C1F8043586
:10059000FFF768FFBFF34F8F0749084BCA6802F4A3
:1005A000E0621343CB60BFF34F8F00BFFDE710BD88
:1005B00000C0004000E0014000ED00E00400FA054A
:1005C00030B50468CCB1BFF35B8FB4FA84F3C3F1E8
:1005D0001F03DBB201229A4024EA020250E8005FC6
:1005E000A54204D140E8002CBCF1000FF6D1BFF3C6
:1005F0005B8FE6D102480B7030BD0248FCE700BFBC
:100600000000AD0B0200AD0B10B50368CB40DB075B
:1006100014D401238B400268BFF35B8F43EA0201CD
:1006200050E8004F944204D140E8001CBCF1000F98
:10063000F6D1BFF35B8FEED1014810BD0148FCE756
:100640000000AD0B0400AD0B014BC3F8040570476F
:1006500000F00140044B1A7922B9012218601A7186
:100660000248704702487047A40D00200000AD0BFF
:100670000C00AD0B08B5074B1B682BB10020FCF735
:10068000F3FD08B9FCF7CEFD4FF080430022C3F81C
:10069000182508BDA40D002010B510B1012843D0C5
:1006A00010BD4FF08043D3F81814D3F81824C803B2
:1006B00021D502F00303012B04D013B1002004F074
:1006C00023FA00234FF080420220C2F81835082296
:1006D0004FF4827303F180430021196002F18042DC
:1006E0001C6801241460154A12680AB34FF0804355
:1006F000C3F80403D4E7D3F81424D107E1D5D3F821
:100700001C249207DAD40D4A12681AB10222C3F8E7
:100710000423C5E7D3F80421002AFBD00022C3F844
:100720000421D3F80431BBE700224FF48073D1E7F2
:100730001A68002AFCD019601B68B1E7A40D0020DC
:1007400010B54FF08043D3F8002152B10020C3F818
:100750000001D3F800210122C3F80823104B1B68C5
:1007600098474FF08043D3F8042172B10022C3F8B8
:100770000421D3F80421D3F81824D3F818249207BD
:1007800004D10122C3F818259A6010BD0222C3F8D3
:100790000823034BBDE810401B680120184700BF29
:1007A000A40D0020036803F01F025B09026004D05F
:1007B000012B034818BF002070474FF0A04070473E
:1007C00000030050034A430900F01F00D35C1844A3
:1007D000C0B270479068010070B50546FFF7F2FFA0
:1007E0000C4C08300E4634F81030DA0508D5C3F347
:1007F000432304EBC302284654F833305268984729
:10080000A3682BB1E26831462846BDE8704018471E
:1008100070BD00BF2C06002008B5FFF7D3FF034BC7
:10082000083033F81000400B08BD00BF2C06002034
:1008300008B5FFF7C7FF034B083033F81000C0F3CB
:10084000400008BD2C06002008B5FFF7BBFF034B96
:10085000083033F81000C0F3401008BD2C0600200B
:10086000034611F0010010B5CCB20DD1A207C4F3BC
:10087000400012D5094AD2F820055860C2F8200578
:10088000003818BF012008E04FF0A041D1F8202522
:100890001A60C1F82025002AE8D010BD00030050DE
:1008A00010B5FFF78FFF124A083032F81030D90523
:1008B0001CD5C3F3432123F4F85322F8103002F17E
:1008C0000E04002034F8023F13F4807F03D0C3F3FA
:1008D000432399420AD001302A28F3D1002342F859
:1008E00031300448BDE81040FFF78EBE10BD00BF98
:1008F0002C06002098060020F0B50546002004468E
:10090000012607468C420BD1114BD3F87C2132B122
:100910000022C3F87C21D3F87C3140F00040F0BDC8
:10092000E3B29B0003F580729B0806FA03F31D42B5
:100930000BD002F1804202F5C042D2F800C0BCF1F7
:10094000000F02D01760126818430134DAE700BFC5
:1009500000600040F7B506460846FFF733FF194F21
:1009600000F108050C4637F81530DB0727D530466F
:1009700004F08FF92046FFF767FF40B12046FFF7EC
:100980004BFF316800F5A270002341F8203020466B
:10099000FFF786FF002301A827F815300194FFF721
:1009A00001FF019B00EB8300074BD0F800271340A9
:1009B00043F00203C0F80037044803B0F0BD044818
:1009C000FBE700BF2C060020F0F8FCFF0000AD0B99
:1009D0000400AD0B2DE9FF41164680460846FFF79F
:1009E000F1FE0D463168044609B32846FFF720FFA3
:1009F00018B12846FFF728FF10BB0023CDE90033CC
:100A00008DF80E308DF80F300DF10F020B46284691
:100A10000DF10E0104F0D4F8474A04F1080132F850
:100A2000113023F0020343F0010322F81130736800
:100A300063B328461F785968FFF7FAFE10B1D1B1A9
:100A40003E4826E03C4A04F1080032F8103023F01A
:100A50002003DB04DB0C22F8103061B1032FEFD848
:100A60007168496891F800C0D8F80010A7B90CF572
:100A7000A27C41F82C70304A04F1080132F81130A0
:100A800023F01C0343EA870322F81130B3684BBB01
:100A90002B4804B0BDE8F08101EB8C0143EA4C33F4
:100AA000D1F810E52EF0030EC1F810E5D8F80010CB
:100AB00001EB8C0E43F02003DEF8101522F8103005
:100AC00021F44F3121F44071CEF810152902DEF8DF
:100AD000108501F47C5141EA074141EA0801CEF852
:100AE0001015C8E7D3E900672846FFF7D9FE002EA6
:100AF000CED0114DD5E90023964203D19F4201D1BA
:100B0000002209E00F480DF10F01FFF759FD0C4BD2
:100B10009842BED19DF80F2045F8326005EBC20324
:100B200008345F6035F8143043EA422343F480739D
:100B300025F81430ACE700BF2C0600200400AD0BF4
:100B40000000AD0B980600202DE9F0430C4685B05F
:100B50008046204611461E46FFF734FE054629B35F
:100B60002046FFF765FE18B92046FFF76DFE18BB5B
:100B7000314F05F1080937F8193013F01C0F02D076
:100B80004B78012B18D001238DF80F300023CDE9CD
:100B900000134A1C8B1C20460DF10F0104F010F8C5
:100BA00037F8193043F0030327F81930002E41D0ED
:100BB0002046FFF73DFE18B9204805B0BDE8F08398
:100BC00096F800C0D8F800301B4F0CF5A272002137
:100BD00043F8221005F1080237F8121021F0200125
:100BE000C904C90C27F8121075781DB3D8F8000095
:100BF000B67800EB8C002D04D0F8103523F499134F
:100C000023F4F853C0F81035230203F47C5305F4A1
:100C100040353605D0F810E52B4306F4801641EA3E
:100C20004C31334341F0200143EA0E0327F8121000
:100C3000C0F810350248C0E72C0600200400AD0BB8
:100C40000000AD0B014BC3E9021270472C060020D7
:100C500010B508461446FFF7F7FD50B10846FFF7F8
:100C6000B1FD054B083033F8103004485B0B23709E
:100C700010BD0348FCE700BF2C0600200000AD0BB0
:100C80000400AD0B70B5164D95F8744006462CBBAC
:100C90002146542205F1100005F064F830686E6EAC
:100CA00021468E420ED10023C0F87C31D0F87C3131
:100CB00040F30730FCF7B6FA01230A4885F8743090
:100CC000EB6670BDCBB29B0003F580727C2B08BF36
:100CD000845001F1010108BF8358E2E70248F0E7C0
:100CE0002C0600200000AD0B0C00AD0B034B93F85D
:100CF0007400003818BF0120704700BF2C06002088
:100D00000148FFF781BC00BF940600200148FFF7AF
:100D100057BC00BF9406002073B503681646D3F88D
:100D20000423002AA8BF4FF000420546A8BFC3F81D
:100D3000042308460C46FFF787FD00B30846FFF77B
:100D400077FD0146D8B92046FFF766FD04B2A4003E
:100D500004F580720346286881502968825821442E
:100D6000D1F8102542F00102C1F810252EB12968F2
:100D7000012202FA03F3C1F8043302B070BD204629
:100D8000FFF720FD0F4B083033F81030C3F3820318
:100D9000042B12D0052B12D001A80194FFF702FDFD
:100DA000019AD0F81035D34003F00103991C204676
:100DB00002B0BDE8704003F04CBF0321F7E7022109
:100DC000F5E700BF2C0600202DE9F04F694BDFF856
:100DD000A881D3F80403D8F86410C0B289B040F0F9
:100DE0000040FFF789FD051E2FDAC24600235AF89E
:100DF000701F06A8CDE90633FFF732FD5F4B019364
:100E00000DF118094FF0000B019A12F8013B019205
:100E1000DA0803F007031AF8022022FA03F3DA07CC
:100E20001CD409F10409BBF1000F14D0D8F86410E8
:100E30004FF00040FFF760FDD8F8701006A8FFF7EC
:100E40000FFD0028DAD125F000450124002D79D1CD
:100E500009B0BDE8F08F4FF0010BD5E7484B5B447C
:100E60000293D9F800100029DBD0029B91FAA1F17E
:100E70001C78B1FA81F141EA44142046FFF7A2FC44
:100E80000830059438F81070C808BB0819F800201D
:100E9000039301F00701012303FA01F122EA0102A1
:100EA00009F8002005A8FFF77DFC059A039B02F5D1
:100EB000E072C7F3820650F822205B073746C2F380
:100EC000014224D520463946D6B2FFF785FC05A855
:100ED0000594FFF767FC059B03F5E07350F823309A
:100EE000C3F301439E4207D10021204603F0B1FE27
:100EF0003146204603F0ADFE05A80594FFF752FCED
:100F0000059B012202FA03F3C0F82035A9E7022A63
:100F10000CD10321204603F09CFE06F00503012BB3
:100F2000EAD139462046FFF757FCE5E70221204683
:100F3000039203F08EFE032EF3D0039A032ADBD133
:100F4000022EEDE795FAA5F3B3FA83F304FA03F260
:100F50009B0003F1804303F5C04325EA0205D3F863
:100F60001005D3F81015C0F30520C1F30141FFF7B8
:100F700033FC6BE7006000402C060020A0680100F5
:100F8000A0680100044AD2F80034DB07FBD50160F9
:100F9000BFF35F8F704700BF00E001404FF0805308
:100FA0001A69B0FBF2F302FB130373B9084B022278
:100FB000C3F80425C3F80805D3F80024D207FBD5ED
:100FC00000220448C3F8042570470348704700BF57
:100FD00000E001400000AD0B0A00AD0B10B5054C60
:100FE0000123C4F80435FFF7CDFF0023C4F804350E
:100FF00010BD00BF00E0014001460148FFF7E0BA24
:10100000A4060020036803F01F025B09026004D0FD
:10101000012B034818BF002070474FF0A0407047D5
:101020000003005073B51646421C1C460546069B3D
:1010300018D0012902D1BBB103F0B7FE01A8019578
:10104000FFF7E0FF019B00EB83002402D0F80027AC
:10105000074B44EA86040C4313401C4344EA410115
:10106000C0F8001702B070BD03F0ACFEE6E700BFA9
:10107000F0F8FCFF4B69184A934221D00DD8174A6B
:1010800093421DD007D8164A934219D0154A93426D
:1010900016D015487047154AF9E7154A934208D00B
:1010A00004D8144A93420BD0134AF0E7134A9342F0
:1010B000EFD10279124B1348002A08BF1846704737
:1010C00091F8213013B1CB680133F2D1CB690133F0
:1010D000EFD10C48704700BF80841E0020A107009C
:1010E00048E8010090D003000400AD0B40420F001F
:1010F0000024F40000093D0000127A000048E801D5
:101100000300AD0B0000AD0B2DE9F04F874B4D698F
:1011100090F804909D4285B006460C4600F0CE80C3
:1011200000F2BE80824B9D4200F0CB8000F2B08086
:10113000804B9D4200F0C8807F4B9D420CBF4FF01A
:1011400080654FF080457D4F94F82300242202FBF8
:101150000973997F60F3000199773379217C02FB51
:1011600003739A7F61F341029A7794F82380B8F170
:10117000000F34D16269724B9A420CBF4FF0030AE0
:101180004FF0000A237E012B94BF0023012300931C
:101190002068534642460121FFF744FFCDF8008006
:1011A0006068534642460121FFF73CFFCDF80080BE
:1011B000A27EA06853464146FFF734FF237C83F0AC
:1011C00001030093E068534642460121FFF72AFFDE
:1011D00001210091E06953464246FFF723FF33792E
:1011E000002B7AD094F82130002B76D0242303FBF7
:1011F00009734FF0FF321A62A3680293D4E900BA70
:10120000E36994F81290227E94F81980D4F80CE0E7
:1012100094F810C094F8220003933379002B7AD00D
:1012200094F8201094F8244033687CB9029CC3F8E9
:1012300008B5C3F80CA5C3F81045039CC3F86C456A
:10124000C3F814E5C3F868C5C3F86405B8F1000035
:1012500018BF0120022AC3F8C095C3F824555CD0FA
:10126000032A5DD0012A01D140F00200C3F85405E1
:10127000C3F86015337924225343FB58002B52D016
:10128000306840F3073005B0BDE8F04FFBF7CABF48
:101290002C4B9D420CBF4FF080554FF0804552E7DC
:1012A000294B9D4213D0264B9D4213D0274B9D4284
:1012B0000CBF4FF000454FF0804544E74FF000551C
:1012C00041E74FF000653EE74FF000753BE74FF018
:1012D000206538E74FF0A05535E7242202FB097955
:1012E000E368C9F82030227C99F81E3062F341038C
:1012F00089F81E30A3680293E36994F81290227E65
:1013000094F819800393D4E900BA4FF0000C4FF021
:10131000FF3E022081E7022184E740F00400A5E7B8
:1013200040F00600A2E705B0BDE8F08F80841E0003
:1013300020A1070048E8010090D00300AC0D002078
:101340000048E80140420F000024F40000127A0037
:10135000431C07B50ED0019001A8FFF753FE019B77
:1013600000EB8300054BD0F80027134043F0020345
:10137000C0F8003703B05DF804FB00BFF0F8FCFFD5
:101380002DE9F04790F80490144C242505FB09F54D
:1013900004EB050A1F469AF81C3006469046D3B95E
:1013A00061B96251CAF80470242303FB0944002385
:1013B00063770B4801232377BDE8F087FFF75AFED8
:1013C000074B9842F8D1304644F80580CAF80470BB
:1013D000FFF79AFEE8E70348EEE700BFAC0D0020F8
:1013E0000000AD0B0C00AD0B2DE9F0410446067971
:1013F00000681F4D40F30730FBF722FF242373439F
:10140000EB5853B123681B4AC3F8082306EBC60107
:10141000206805EB810103F0E2FC2421236801FB35
:101420000651D3F80805D3F80C75D3F810858B7FD7
:10143000DB0716D4FFF78CFF4046FFF789FF3846DD
:10144000FFF786FF086AFFF783FF23794BB1236814
:10145000D3F86C05D3F81415FFF77AFF0846FFF7A9
:1014600077FF242303FB065500232B77BDE8F0818B
:10147000AC0D0020520108002DE9F0430779554DCD
:1014800024237B439046EA180E46517F85B081465F
:10149000002940F09C80EB5823B118F0140F04BFD2
:1014A0000123537796E80F00242404FB075404F12A
:1014B0000C0C8CE80F00206A421C04D0A37F9B0711
:1014C0001AD503F072FC3368D9F8004023B103F059
:1014D0006043B3F1005F06D1B36883B103F06043AA
:1014E000B3F1005F0BD0242303FB075300223A48DB
:1014F0005A7705B0BDE8F08303F064FCE3E718F029
:10150000010318BF0123C4F8503518F0020318BFB7
:101510000123C4F8403596E80F00EC468CE80F0034
:10152000039BC4F84405C4F84815C4F83425C4F82E
:1015300038350023C4F81831D4F818310723C4F81B
:10154000003524237B4318F0080F05EB03021DD15F
:10155000E8580121216158B9D4F81831002BFBD08B
:1015600062464021204603F0E2FB24237B43EA1835
:10157000EB5813BB106A461C13D107EBC70705EBEA
:101580008701204603F02BFC1448B2E7EB58A3B9BF
:10159000106A411CF8D0937F9A070BD503F012FC18
:1015A000F2E7937F9B0702D503F00CFCE5E703F01D
:1015B000FCFBE2E703F0F9FBE6E718F0040F4FF05D
:1015C000400314BFC4F80833C4F80433DCE704480C
:1015D0008FE700BFAC0D00200A00AD0B0000AD0B83
:1015E0000B00AD0B02494FF0402003F00EBC00BFD2
:1015F000AC0D00200149024803F007BCD00D0020CB
:1016000000F0024008B5144BA8220021184604F04F
:10161000A9FB0322026111494261114A8161C26141
:101620004FF480620262002282624262C2620166FC
:101630000C4941661021816603460267C266426713
:10164000BFF35F8F084911F8010D98540132102A39
:10165000F9D1BFF35F8F08BD10040020A26801001C
:101660001000002000000020BB68010070B5164685
:101670001D465A1C03681344C2689A42044605D2A8
:10168000006A082103F0F4FE002070BD32783DB1FD
:10169000AB1E062B9ABF0C4AD35C00231833DAB278
:1016A000204603F0E8FE0028EED03544B54203D1D1
:1016B000A3680133A360E8E723685A1C226015F889
:1016C000012D1A70F2E700BFBC68010038B5EFF3D6
:1016D0001185202383F31288BFF36F8F064B9C681C
:1016E00003F0CDFF85F31188BFF36F8F2046BDE86F
:1016F0003840FBF71BBD00BFF40D002038B5094B87
:1017000053F82040013053F82050A54200D838BD8E
:10171000636823B1204603F0B5FF0834F5E723687A
:101720009847FAE7E864010070B52B4B2B4C2C4D21
:10173000012286B003201A70FFF7E0FFFBF7D6FA0C
:1017400003F0BCFF0420FFF7D9FF2646AE4204F1A8
:10175000300410D300F06AFD204C224EAC4226D358
:1017600000F078FDFAF736FF1F4A137B23F00103E0
:10177000137306B070BD54F80C3C059354F8103C3C
:10178000049354F8143C039354F8183C029354F80F
:101790001C3C019354F8203C009354E90A2354E97B
:1017A0000C0100F049FB54F8303C5E65CDE7D4E90C
:1017B0000A23B3F1FF3F08BFB2F1FF3F05D052EA61
:1017C0000301206803D104F02AF93034C6E731461A
:1017D000183000F005FFF8E7700E002020610100CE
:1017E000206101004D5B01005008002008B503484E
:1017F000034A0021121A03F05DFF08BD1007002004
:10180000740E002070B5002386B00122CDE90423B8
:10181000134E144D01930F22CDE9023212491423C5
:1018200003FB005506EBC01604464FF4C07000FBE6
:1018300004110E4B00954FF4A072304600F0FCFAF4
:10184000737B0B4AEE6023F0040373734FF404635D
:1018500004FB033313442C746B6006B070BD00BFEF
:10186000D0070020F40D0020001F002007580100C1
:10187000C0160020BFB50020FFF740FF2C4B83F3BC
:1018800008882C4D2C4E6B692C4F43F400736B6110
:101890000024E02385F82230EC772C766C76AC7649
:1018A00085F820406B6A43F4E0236B6285F823409F
:1018B000FBF7A6FBFBF76EFD4FF0FF33AB62EB626D
:1018C000FBF72EFEFBF78AFD1D4BB36040F20112C1
:1018D0009A81C3E91844DC6603F0BDFE0120FFF7DE
:1018E0000DFF0220174DFFF709FF00F0D3FC164B48
:1018F00075610593012315490094CDE903434FF425
:1019000080623B46CDE90144284600F095FA6A7BA7
:10191000064622F0040228466A7304F0BCF820460A
:10192000FFF770FF3A4631462846FBF711FD00BF2E
:10193000001F002000ED00E0F40D00202917010039
:101940007009002050080020C3680100802000209A
:1019500038B5064C064DAC4201D3002038BDD4E961
:101960000112204603F0ABFE1434F4E7DC0600203D
:10197000DC06002038B5064C064D0020AC4200D3F2
:1019800038BD204603F000FF0028F9DB1C34F5E7E2
:10199000C0060020DC06002073B50C46EFF3118171
:1019A000202585F31288BFF36F8FC5685DB1256070
:1019B0002B68C360836901338361002081F3118840
:1019C000BFF36F8F11E052EA030603D125606FF079
:1019D0000B00F3E7CDE900230246083000F0B6FB28
:1019E00018B9034B9B685B69236002B070BD00BFF0
:1019F000F40D002037B51146EFF31185202282F354
:101A00001288BFF36F8F04689CB12368426823F08B
:101A100003039442036008BF43600121204603F0A2
:101A20005EFF044685F31188BFF36F8F204603B035
:101A300030BD51EA0302F5D000F10802CDE90013F0
:101A40001046294600F082FB0028EFD1014B9B682D
:101A50005C69EBE7F40D002038B50446EFF311851F
:101A6000202383F31288BFF36F8F04F073F848B11B
:101A70000022826704F00FF829460848BDE8384084
:101A800000F090BBD4E902329A4218BF0133A36040
:101A900085F31188BFF36F8F38BD00BF710E002032
:101AA00013B5EFF31181202484F31288BFF36F8FF5
:101AB000846844B1013C846081F31188BFF36F8F67
:101AC000002002B010BD52EA030406D181F3118850
