:020000040000FA
:1000000000790020E11F000073730000CD1F000085
:10001000CD1F0000CD1F0000CD1F0000000000001C
:100020000000000000000000000000008D21000022
:10003000CD1F00000000000059210000CD1F00006E
:100040003923000039230000392300003923000040
:100050003923000039230000392300003923000030
:100060003923000039230000392300003923000020
:100070003923000039230000392300003923000010
:100080003923000039230000392300003923000000
:1000900039230000392300003923000039230000F0
:1000A00039230000392300003923000039230000E0
:1000B00039230000392300003923000039230000D0
:1000C00039230000392300003923000039230000C0
:1000D00039230000392300003923000039230000B0
:1000E00039230000392300003923000039230000A0
:1000F0003923000039230000392300003923000090
:1001000053B94AB9002908BF00281CBF4FF0FF317E
:100110004FF0FF3000F00CB8ADF1080C6DE904CEE3
:1001200000F008F8DDF804E0DDE9022304B07047D0
:10013000704700BF2DE9F04786468C460846089E6A
:10014000154674461946002B40F0C2808542B2FA2B
:1001500082F245D94AB1C2F1200300FA02FC2EFA1C
:1001600003F3954043EA0C0C94404FEA154EA8B2B5
:10017000BCFBFEF8230C0EFB18CC08FB00F943EA8D
:100180000C43994528D9EB1808F1FF3704D299455B
:1001900002D9A8F102072B44A3EB0903A4B2B3FBD5
:1001A000FEFC0EFB1C330CFB00F044EA0344A042AF
:1001B00014D92C190CF1FF3304D2A04202D9ACF1AE
:1001C00002032C44241A43EA07401EB1D440002302
:1001D00034607360BDE8F0874746DDE76346F1E7CA
:1001E00092BB431B01214FEA154EAFB2B3FBFEFC9D
:1001F000200C0EFB1C330CFB07F840EA0343984528
:1002000062D9EB180CF1FF3004D2984502D9ACF159
:1002100002002B44A3EB0803A4B2B3FBFEFC0EFBCD
:100220001C330CFB07F744EA0344A7424ED92C19B0
:100230000CF1FF3304D2A74202D9ACF102032C44E3
:10024000E41B43EA0040C0E7C2F1200320FA03F1B7
:10025000954090402EFA03F303434FEA154EAFB298
:10026000B1FBFEFC0EFB1C10190C0CFB07F841EA5D
:100270000041884504FA02F422D969180CF1FF30D4
:1002800004D2884502D9ACF102002944A1EB08014F
:100290009BB2B1FBFEFC0EFB1C110CFB07F743EA03
:1002A00001439F420ED9EB180CF1FF3104D29F425B
:1002B00002D9ACF102012B44DB1B41EA004192E779
:1002C0006046E3E76146F7E76046A3E76346B7E7C2
:1002D000834206D916B9002108467BE7C6E900E04B
:1002E000F9E7B3FA83F78FB9834201D3724508D88F
:1002F000BEEB020460EB030301209C461EB9002103
:1003000068E73846FAE7C6E9004CF8E7C7F1200C81
:10031000BB4022FA0CF41C432EFA0CF120FA0CF329
:10032000B84001434FEA14490EFA07F5B3FBF9F858
:100330001FFA84FE09FB18300B0C08FB0EFA43EA87
:1003400000439A4502FA07F240D9E31808F1FF305A
:1003500004D29A4502D9A8F102002344A3EB0A0370
:1003600089B2B3FBF9F809FB183308FB0EFE41EA2A
:1003700003418E452CD9611808F1FF3304D28E4514
:1003800002D9A8F10203214443EA0040A0FB0298ED
:10039000A1EB0E014145CE46434602D306D14D4561
:1003A00004D2B9EB020E68EB04030138002EA6D08C
:1003B000B5EB0E0261EB030101FA0CFC22FA07F324
:1003C0004CEA0303F940C6E9003198E74046C5E727
:1003D0004346D9E7F0B52F4B2F4AC3F800262F48E4
:1003E000C3F8042685B0C3F808264921C3F80C26B3
:1003F000C3F81026C3F81426C3F81826C3F81C2621
:1004000006F02DFF00F058F800F09CF801A800F06D
:100410004BFD234B1B68834204D02248452106F044
:100420001EFFFEE7039A2048492106F018FF1F48E7
:10043000492106F014FF4FF44041002007F037FD3A
:10044000044620B11A48452106F009FFFEE7694637
:100450009DF8080000F054F8009B039D1D44019B8B
:100460001E8903F0B1FCAF1901F042F801F016F853
:1004700001F0E0FDAB5983F3088884F31488BFF3DF
:100480006F8FBFF36F8F7B6898470A48452106F04E
:10049000E6FEFEE7000001403546526EDA9D0000A0
:1004A00008080020F39D0000169E0000459E0000F5
:1004B0006A9E00009D9E000010B50E4C204608F07C
:1004C000E9FF28B9BDE810400B48452106F0C7BE3A
:1004D0002269A168136843F4804313600B68074ADC
:1004E0000E212046984720460022BDE810400E21EC
:1004F00006F03FBB8C970000C09E00000100020088
:1005000008B5024638B105480023452106F0A7FE8C
:100510006FF0150008BD0860FCE700BFF79E000003
:1005200021B1012906D06FF015007047044B53F834
:1005300030007047024B03EBC0035868704700BFA0
:100540009899000002484FF4C05104F0B1B900BFBF
:10055000F02D00202DE9F04FF9B0DDE9848ADFF8B5
:10056000F891869CD9F8006038A817461D4608F017
:10057000E5FC002138A804F0D1FAB8F1000F07D04B
:10058000BAF1000F04DD5246414638A808F0DFFCFE
:100590003B897A89D7F80CB013449B444FF000088C
:1005A000C34564D80DA938A808F010FD38A808F094
:1005B000C9FC24B120220DA9204606F02FFF0023FC
:1005C00000932A464FF6FF73394607A806F0FCFA57
:1005D000804600285BD128460C9C00F0FDF984423F
:1005E00055D8DFF878B1DFF878A14FF0FF340DF17E
:1005F000160305AA06A907A806F034FB002846DB67
:1006000040F0A280069907A806F078FB50B9BDF823
:100610001600544A4FF6FF7132F8023B8B4236D037
:100620009842F9D1BDF81670102F3AD0202F6DD016
:10063000012FDCD1BDF81430202B28D8069938AA18
:10064000284606F01AFE044608BB9DF814300293B3
:10065000202B09D8DAF80030434F0393039B9C42C8
:100660001DA836DB08F06EFC4FF0FF34BFE7839B1C
:10067000829AABEB080A9A4528BF9A4653464146F0
:10068000284606F0FAFD28B138A808F05BFCD9F836
:1006900000605CE08299524638A808F058FCD044CB
:1006A0007EE7BDF81470202FF1D106993B4638AA99
:1006B000284606F0E2FD0028E9D13A4638A90DA8FF
:1006C00006F02AFBDBF800308342E0D14FF001084E
:1006D0008DE708F033FC00211DA804F01FFA7A68AA
:1006E00057F8081B12681DA808F031FC15A91DA8B1
:1006F00008F06CFC029A38A915A806F07FFE18B91C
:100700001DA808F01FFC72E70134A7E7631C3FF443
:100710006EAFDAF80030A342A6DDBDF81430B3F5B1
:10072000807FB4D1069938AA284606F0A6FD002895
:10073000ADD1E4B2BDF81430009438AA39460DA802
:1007400000F014F806468FE7B8F1000F9FD030464E
:1007500079B0BDE8F08F00BFC40400200808002075
:10076000A0990000AC9D0000A49900002DE9F04F75
:10077000DFF8E4A1ADF5417D07462AA89DF828B32E
:10078000DAF800501E468946904608F090FB092290
:1007900001212AA804F03EF9704B53F83B40059420
:1007A00003EBCB0380AA5B681B681C442146302303
:1007B00005A807F066FC002840F0C580059B809ADC
:1007C00013449C4240F0BF802CAA214605A807F0A4
:1007D0006CFC002840F0B7800DF1B80B5A4621465A
:1007E00005A807F062FC0390002840F0AC802CA81C
:1007F00008F009F8059A2B90944240F0A480039BDE
:10080000CDF804B000931A462CA92AA808F00CFBD6
:10081000002840F098802AA804F012F9002840F03F
:1008200092802CA807F0EFFF2B902AA808F049FB34
:10083000864240F08880B6F5807FDAF8005040F0BC
:100840008280B9F1200F7ED180AA41462AA804F007
:100850001DF90446002876D19DF8FF32BC2B72D1D9
:1008600006900DF59079DF260FA808F067FB0021B0
:100870000FA804F053F920220DF2DF210FA808F091
:1008800066FB042206A90FA808F061FB07A90FA8C0
:1008900008F09CFB202E9DF81B30B046A8BF4FF0FF
:1008A000200801334846424607A9A6EB08068DF802
:1008B0001B3006F0B3FD002EC144D5DC0FA808F0B4
:1008C00041FB48AB80AA184600219C46067812F8E6
:1008D00001EB013186EA0E06DF2900F8016BF5D144
:1008E0001A7802F07F021A7013F8016B5EBB0134B4
:1008F000BE2CF9D19CF8BE30012B24D10FA808F0F2
:100900001DFB31460FA804F009F9154908220FA86C
:1009100008F01DFB394620220FA808F018FB202202
:100920000DF2DF110FA808F012FB07A90FA808F0BD
:100930004DFB0FA808F006FB20220DF2DF2107A8CF
:1009400006F0EAF905462AA808F0BDFA28460DF592
:10095000417DBDE8F08F00BFC4040020A4990000D1
:100960001D9F0000094A0B78400052F820108B426E
:1009700009D0013052F82000834214BF4FF0FF30FD
:100980004FF4C06070474FF4C0607047AC990000EE
:100990001FB50F4B13F830000C4601F04BF950B95E
:1009A0002068816810236A46103906F066FC28B179
:1009B000206806F061FC4FF0FF3006E00549102288
:1009C000684606F01BFD0028F2D104B010BD00BF40
:1009D000AC990000CA9D000013B5044606F0A3F9C7
:1009E0006A460146204606F0D6F830B10448452153
:1009F00006F035FC002002B010BD0098FBE700BFF8
:100A0000259F00002DE9F041384F88B006460020B0
:100A10000D463C68FFF784FD06A9C0B201F00AF953
:100A2000E0B92946FFF77CFD2C2407A9C0B204FBDE
:100A3000056401F0FFF8A8B12C2068433218069B2A
:100A4000116911F0100F1DD01DB10699304606F046
:100A500055FA274B1C68069806F00EFC204608B095
:100A6000BDE8F081079806F051FC8046079806F033
:100A700003FC631EE21C13F8011F4145DCD19342C5
:100A8000F9D1E1E736581B4886422AD1D668108949
:100A9000801926D25289121823D29868824220D215
:100AA00040F60C6211401CD14FF480720192124A40
:100AB0000092CDE90311224602910846FFF74AFD54
:100AC00004460E4B1B68A342C5D065B106980021B1
:100AD000826806F0FCFB0A4A0A48452106F0BFFB83
:100AE000B7E73C68EDE7084AF6E700BFC40400201A
:100AF000C00400203DB8F396F0450020080800200F
:100B0000689F0000729F0000609F00007FB50D4647
:100B1000044600212846CDE9021106F0AEF928B3BB
:100B20002368194EB34203D103AA204606F039F9CF
:100B3000E36AB34204D102AA0121204606F031F94A
:100B4000DDE90232934288BF0393039BAB60039AB3
:100B50002946204600F0AAFB0C4B1A68002A03DD48
:100B60000B48572106F07BFB04B070BD01A9FFF7CD
:100B70000FFF019805F1080106F0E0F8AB68019855
:100B8000039306F079FBE2E73DB8F3966C2C002066
:100B90009A9F00002DE9F84FDFF870B01C4C1D4DF6
:100BA000884691469A4600260B9B9E4201D3002020
:100BB0000FE00B9B154A9F1BB7F5806F28BF4FF4C2
:100BC00080673B4606EB0A01404606F056FB10B133
:100BD0000120BDE8F88F0A993B465A4671184846ED
:100BE00006F060FB0028F3D1C4F800563E44C4F878
:100BF0000456C4F80856C4F80C56C4F81056C4F885
:100C00001456C4F81856C4F81C56CDE70C0800203A
:100C1000000001403546526EF0B59A4B43620E46D5
:100C200003F580530021036589B004460846FFF7A9
:100C300077FC04F120010546C0B200F0FBFF03463B
:100C4000E8B90121FFF76CFC04F14C010546C0B284
:100C500000F0F0FF0346E0B9204606F0E3F8054651
:100C6000C8B900221146204606F085F8054668B34B
:100C700085480022572106F0F2FA01239DE0002268
:100C8000CDE90023814800232A46452106F0E7FAF2
:100C9000FEE70122F4E77E484FF40072572106F088
:100CA000DEFA01239D4284F85830DAD194F85830A6
:100CB0008DF81730042B00F28380012B00F287801F
:100CC00000F09A80FF2384F8583095E0204600F029
:100CD000FFF90028D1D004A806F0C6F80146204646
:100CE00006F061F918B16B482A465721C3E704A8FA
:100CF00006F0C3F880F0010104AAC9B2204606F04C
:100D00003AF802460028B3D104A806F0B6F8054622
:100D100060BB04A92046FFF7F9FE9DF8173084F860
:100D20005830033B012B06D8284600F0E3F810B1F9
:100D3000FF2384F858309DF81730023B022B0BD864
:100D4000002000F0C1F838B1FF2384F85830524831
:100D5000452106F084FAFEE794F85830FF2BF6D0D0
:100D600004AA0021204606F006F886E79DF81770D1
:100D7000012F17D1104603F0D3F8831E022B05462E
:100D80000DD839462046FFF73DFE444B1B6898427C
:100D900005D0434B1D68A84214BF0525012584F8E2
:100DA000585083E701212046FFF72CFE3B4B1B6880
:100DB00098420CBF9DF81730052384F8583075E72A
:100DC000052B7FF47FAF002000F094F811E004A918
:100DD0002046FFF79BFE94F85830DA1E012A14D8FB
:100DE000002000F087F800287FF46CAF002000F0AE
:100DF0006BF800287FF466AF94F85830FF2B07D1CA
:100E00002548452106F02BFAFEE7022BF4D1EDE749
:100E10000022012B234D039214D01146204605F0E9
:100E2000AAFF78B12D68102200210DEB020006F018
:100E300000FBE06C06F020FA206A06F01DFA284656
:100E400009B0F0BD00212046FFF7DCFD134F3B68E1
:100E50009842E7D12B689842E4D0114B1B68984226
:100E6000E0D0039B01330393039B012B00D0FEE7EB
:100E7000206A05F08EFE3071236A5B6834603D683D
:100E8000B360D0E70C0C002058A00000C99F000000
:100E900016A0000084A00000AEA0000008080020FA
:100EA000C0040020C404002038B5064D044660226A
:100EB0000021284606F0BDFA21462846FFF7ACFE81
:100EC00038BD00BF0C2C002013B5094B01A913F845
:100ED000300000F0AFFE48B9019807F096F80446DC
:100EE000019806F0C9F9204602B010BD0124FAE7C6
:100EF000B49900001FB50F4B01A913F8300000F0A2
:100F000099FEA8B9019802A902F0B4FF044668B995
:100F10009DF80B30032B03D1019807F044F80446E9
:100F2000019806F0A9F9204604B010BD0124F7E7A6
:100F30000124F8E7B49900002DE9F34106460C4678
:100F400017461D460BB9002628E0184605F095FF08
:100F50000028F8D16946FFF71BFD009838B9012435
:100F6000009806F089F9204602B0BDE8F08101A999
:100F700005F0E4FE0028F2D1009806F07DF9304635
:100F8000019906F05EF8736A5E686B79012B21D1D6
:100F9000002CD8D12B68834298BF00262146002020
:100FA000FFF7BEFA6946C0B200F044FE0028D6D171
:100FB000009820233A46314606F05FF9044600289F
:100FC000CDD1002DCCD03C680D4BE41A18BF4FF0AA
:100FD000FF34C5E7022BB6D12B68012B05D983421C
:100FE000B1D8B4FA84F46409ADE7ACD1002CD5D003
:100FF000012CA8D12C79023C18BF0124A3E700BF23
:101000003DB8F3962DE9F04F074685B00C460146F2
:1010100000201646FFF7A6FC051E52DB3846E46D9D
:1010200005F081FE5FFA84F96B1E09FB03084FF09F
:10103000000A4FF0010B4FF0FF34A5B9BAF1010FD0
:1010400003DD2248452106F00AF9631C07D0B4F5F8
:10105000007F2ADA013440F201133460B38028465D
:1010600005B0BDE8F08F6B1E00930DF10F02012358
:101070004146384606F001F9031E019323DB0122A5
:101080000DF10F01384606F029FF019B40B15B4589
:1010900001D00AF1010A009DA8EB09089B46CCE7A4
:1010A000B4F1FF3F08BF2C46F5E70223A4F5007416
:1010B0007371631004F0010401330134336034713F
:1010C000CDE70725CBE70125C9E700BFBAA000009F
:1010D00070B5866A456D044605F0A2FFAE420AD09F
:1010E0006B1CB34207D0834205D01448572106F049
:1010F000B6F8002070BDB6F5007F1CD91048572106
:10110000F5E7626A216D02EBC30201EBC30152688D
:101110004968914202D00B485721E8E701339D42CC
:10112000EFD1AE4205D9636A03EBC5035B68934216
:10113000F1D10120DEE700231A46F0E7DDA0000030
:1011400015A1000044A1000000B589B004A9032046
:1011500006F036FF9DF81020012A41D0254B264984
:10116000032A08BF0B469DF8132002929DF8122017
:1011700001929DF81120214800924921204A06F051
:101180006EF806A9012006F01BFF9DF81820012A21
:1011900028D0184B1849032A08BF0B469DF81B207E
:1011A00002929DF81A2001929DF81920009213488E
:1011B000144A492106F053F89DF81030012B13D141
:1011C0009DF81230032B0FD19DF81830012B0BD056
:1011D0000D48492106F043F8022009B05DF804FBF0
:1011E0000A4BC0E7094BD9E70948492106F037F80F
:1011F0000020F2E770A1000079A100008DA100009D
:101200007FA10000CEA10000DEA1000074A10000BB
:10121000FDA1000070B54B6814461E4A03F0FF2381
:10122000934286B006460D462FD10B68012B2CD178
:1012300004A9204602F01EFE9DF81020012A26D0A7
:10124000154B1649032A08BF0B469DF8132002923E
:101250009DF8122001929DF8112000921048114A29
:10126000492105F0FCFF9DF81030032B0DD12146DC
:10127000304605F043FE204606F095FEA96820465C
:1012800005F06AFD204602F0D5FD06B070BD064BA4
:10129000DBE700BF0001000470A1000079A100009D
:1012A0008DA10000CEA1000074A100002DE9F04F37
:1012B000164689B005460C467448492105F0CFFF13
:1012C0003146284605F0BDFE6B6A824620465E68C0
:1012D00005F0D3FDE8B1E86D05F020FDAF6A00230D
:1012E000013F3344834201D2013FFAE7BA4510D3AC
:1012F0006748572105F0B3FF07FB06F365480AFB73
:101300000662572105F0ABFF0123E37109B0BDE888
:10131000F08F06A9032000F08DFC07A9012000F042
:1013200089FC079A21462846FFF774FF6379012B51
:101330004BD1DFF864B1574641E02268C2F10103A6
:1013400053449F423AD86B6A196853F8370003EB4D
:10135000C703012A53F8083CA3EB0103A0EB0109E2
:10136000049311D1079B0393E368022B08D04146F5
:10137000284605F0C3FD22464146284605F0F4FD07
:101380000399284605F0BAFD32464946404605F025
:10139000B3FD049B42464146CDE900962846FFF73F
:1013A000F9FB2146284605F075FD236801332360CB
:1013B00020B1DBF800300133CBF80030013FDDF81D
:1013C0001880002FB9D10123236002236371012704
:1013D000BA45DDF8189006D2484605F04DFF07984B
:1013E00005F04AFF92E723689F424DD36A6ADDF811
:1013F0001CB052F837100491FB00083B11680391B0
:10140000D1582A6DD0581368A0EB03082379012B1B
:1014100038D1039B3246C91A4846059105F06CFD48
:101420000599009143464A46594601962846FFF7DA
:10143000B1FB2146284605F02DFD0223237118B18A
:10144000154A13680133136032464146584605F089
:1014500053FDDDE9032349469B1ACDE900865A4630
:101460002846FFF797FB2146284605F013FD236821
:10147000013323600123237130B1074A136801331C
:10148000136001E0022BDFD00137A1E714A20000B6
:101490003DA200006CA200006C2C0020BFF36F8FF7
:1014A00072B6124B4FF0FF32C3F88020C3F884208D
:1014B000C3F88820C3F88C20C3F89020C3F8942088
:1014C000C3F89820C3F89C20C3F88021C3F8842176
:1014D000C3F88821C3F88C21C3F89021C3F8942164
:1014E000C3F89821C3F89C21704700BF00E100E0D9
:1014F000F8B5254B254D4FF0FF3401275F60C3F849
:101500004843C3F8084303F5C04300265F60C3F8AF
:101510004843C3F8084303F5983302205F60C3F8DB
:101520004843C3F80843C5F8084300F04DFE6F6018
:10153000C5F84C61D5F84C31C5F81061D5F81031BB
:10154000C5F84461D5F84431C5F8006505F518358E
:101550002820C5F8084300F037FE6F60C5F84C61DD
:10156000D5F84C31C5F81061D5F81031C5F8446193
:10157000D5F84431064BC5F80065C3F808454FF06F
:101580008043C3F80843F8BD00B00040002000408D
:1015900000F00140014B1B68184700BFC804002041
:1015A000014B1860704700BFC804002007B50B4608
:1015B000002102460091034800F006F803B05DF8F0
:1015C00004FB00BF951500002DE9F04F8DB01D46BE
:1015D000531E8246019103934FF00009039B5878F4
:1015E000252803F1010419D11E4600204FF0FF38D1
:1015F000023603460290444631780396392954D87E
:101600001F2914D8002900F0EE8101992520D04728
:1016100001993078D04709F10209DFE7002800F08E
:10162000E2810199D04709F101090394D6E7A1F1BC
:101630002002192AE9D801A757F822F0A5160000C0
:101640000B1600000B160000A51600000B1600007C
:10165000251700000B1600000B1600000B160000EB
:101660000B16000071170000A51600000B160000F5
:1016700085170000311700000B1600003F1700000F
:101680005F1700005F1700005F1700005F17000082
:101690005F1700005F1700005F1700005F17000072
:1016A0005F17000008460136A6E7582900F0EB80D6
:1016B000A1F16302D7B2172FA7D8172AA5D801A77F
:1016C00057F822F02D190000AB1700000B16000090
:1016D0000B1600000B1600008B170000AB17000064
:1016E0000B1600000B1600008B1700000B160000F5
:1016F0000B1600000B160000611800000B1600000E
:101700000B160000011900000B160000AB170000BB
:101710000B1600000B160000611800000B160000ED
:101720008B17000001992520D04709F1010955E7E1
:10173000029A02F0FE0202924FF00008B3E7002C7A
:101740000DDAB8F1000F0DDA029A002A00F0438199
:1017500024EAE4740A2202FB0414303CA3E7B8F143
:10176000000FF5DB0A2202FB0812A2F130089AE70B
:10177000B8F1000F55F8042B80F22F81002A80F277
:101780002E815442022202928DE7682903D1682BF0
:1017900006D1482387E76C2902D16C2B00F0218108
:1017A000002B7FF432AF0B467DE77A2B06D17529EB
:1017B00055F8046B14D14FF0000B0CE06C2BF6D0F5
:1017C0004C2BF4D1073525F007037529D3E9006BBD
:1017D00003F1080506D120283BD1854F013C09E0E3
:1017E0004FEAE67BBBF1000FF5DA7642814F6BEBF7
:1017F0004B0B013C0DF12D03059300230493304660
:1018000059460A220023FEF77BFC059B303203F881
:10181000012DB4460593049B5A46BCF10A0F8B4632
:1018200072F1000203F1FF3106460491E7D2C3F1E1
:10183000010B30330DEB0306B8F1000FA6F10406DF
:101840006DDA029BD9077DD4A8EB0B03A4EB0B0444
:1018500013E02B280ABF684F684F04F1FF34C9E733
:1018600070290FD155F8042B0023FAB9634F644E49
:10187000053C6FF004034FF0050B029A920770D4F9
:10188000A04666E078216C2B03D155F8042B002389
:1018900008E04C2BF9D1073525F007031D465B689E
:1018A00055F8082B232825D1880621D5554F023C11
:1018B00001F06001A1F1390B0DF12D0E002602F0AF
:1018C0000F01092988BF594430310EF8011D102A33
:1018D0004FEA121141EA03714FEA131C73F100033E
:1018E00006F1FF3008D2C6F1010B06F13003A1E783
:1018F000454FDCE7414FDBE706460A466346DEE735
:1019000055F8046B304605F072FDB8F1000F8346C0
:1019100002DB4045A8BFC346384F4FF00008A8EB94
:101920000B03002B92DDA4EB0804A6E755F8043B5B
:101930008DF81830314F013C4FF0FF334FF0010B61
:1019400006AE9AE7A046EAE7029301992020D04725
:10195000029BB8F10108F7D524EAE472013C9144F6
:10196000A41AB84606E0049302920199D047029A5D
:10197000049B9046424612F8010B0028F3D11A4608
:10198000013A15D5002BACBFC7EB03077F425B467E
:10199000013B15D5BBF1000FA8BF5F444F4426465D
:1019A000013E14D5002CA8BF3F1907EB080915E626
:1019B0000493029201993020D047049B029ADFE7FA
:1019C0000293019916F8010BD047029BE0E70199B9
:1019D0002020D047E4E70122D5E6904663E614468E
:1019E00061E64C235FE648460DB0BDE8F08F00BFCE
:1019F000ADA30000ABA30000AFA30000F69E000063
:101A0000B7A30000B1A30000B4A300002DE9F04784
:101A1000058B04462807904611D4022905F00705D6
:101A200040F0CC80204605F042FB78B10138218B94
:101A3000042811D8DFE800F0C2106D859500012957
:101A40000CBF45F0100545F02005258388F311886B
:101A5000BFF36F8FBDE8F08701F0070AAA4500F0D9
:101A6000A5800027B9463E46A368002B00F0BC8045
:101A700041F00801218388F31188BFF36F8FA168BB
:101A8000002900F0BA800D68002900F0B680D1F876
:101A90000480334652462046C047002D76D02B683E
:101AA00029461D46F0E701F007035A1F012A1BD8FB
:101AB000002221F00701062B276889B2C4E9002221
:101AC00009D13B4603E0628B013262831B68002B25
:101AD000F9D141F002012183204605F0E8FA0028FF
:101AE0007AD041F0200176E0042B0AD121F00701E1
:101AF00089B22183204605F0DAFA10B141F02001C5
:101B00002183218B01F0070AAA454FD00027B9464F
:101B1000AAE7236921F0070141F00601062DD3F859
:101B2000009021832DD1B9F1000F3FD041F0080181
:101B3000218388F31188BFF36F8F3A492046C84745
:101B400029E021F00701236941F0040189B2042D45
:101B5000D3F804902183E6D000273E464FF0040AD4
:101B600082E721F00701236941F0050189B2052DC3
:101B7000D3F808902183D6D000273E464FF0050ABF
:101B800072E700273E464FF0060A6DE72B4687E7CF
:101B9000B9F1000FD1D1EFF31188202383F312881C
:101BA000BFF36F8F238B23F008032383258BEA0673
:101BB0002ED525F01003238305F007056669218BD8
:101BC000002EBFF670AF00232768C4E9003321F070
:101BD000070141F001012183218B01F0070AAA4589
:101BE0004FF000097FF440AF002F9CD041F0080176
:101BF000218388F31188BFF36F8F002FC8D03D6811
:101C0000394633465246204605F07DFA2F46F4E722
:101C1000AB067FF51BAF25F02003238305F00705F6
:101C200000E700BF33710000014B036000207047E4
:101C3000C099000070B5114B1C680D46DCB1104B0B
:101C4000196800238B4202DB6FF0010070BD224651
:101C500012F8106B864202D001331446F2E7E068B6
:101C600010B96FF01200F1E707F014FC0028F8D06B
:101C70002C600020EAE76FF00C00E7E7CC040020BE
:101C8000C099000070B588B005460C46C0B26946E0
:101C90001646FFF7CFFF00281BDB0098C8B143684A
:101CA0000293836822680195CDE903360023CDE9CC
:101CB00006230593C56805F0DFFA6DB1284608498B
:101CC00001AA05F040FE079808B9059B236008B0FB
:101CD00070BD6FF01500FAE76FF01200F7E700BF74
:101CE0001B73000008B5054805F0CAF9044805F063
:101CF000C7F9BDE80840034805F0C2B9BDA300001C
:101D0000EEA3000021A4000030BFFFF7FDBF00BF1D
:101D1000074A936893F90E10002907DB5269934232
:101D20001FBF044A536843F080535360704700BF9D
:101D3000C02D002000ED00E070B5264B15469A6AD4
:101D400012F0100F9A6A14BF1124102412F0080F19
:101D50009A6A18BF1224920706460AD5586B9A6AE7
:101D6000140634D519B19A6A22F080029A621324BB
:101D700001E06FF01500174B9A6A12F0010F9A6A92
:101D800018BF142412F0200F9A6A18BF1524D20627
:101D900002D49B6A9B070AD50E4B5B68190506D5D2
:101DA000314600F083FA10B180F309880224094B10
:101DB0009A6A920642BF5A6A22F400525A629A6A9A
:101DC00042F0FF029A6200232B70204670BD6FF034
:101DD0001500CCE700ED00E0134B9A6A12F0007F8B
:101DE0009A6A14BF1E201D2012F0807F9A6A18BFC5
:101DF0001F2012F4002F9A6A18BF212012F4802F9E
:101E00009A6A18BF222012F4003F9A6A18BF232052
:101E100012F4803F9A6A6FEA02426FEA12429A62B3
:101E200018BF2420704700BF00ED00E010B5194B2B
:101E30000246986A9C6A10F4805F14BF172016202F
:101E400014F4006F9C6A18BF1820A40509D5986B7C
:101E5000986A000404D51AB19A6A22F400429A6280
:101E600019200C4B9A6A12F4806F9A6A18BF1A20D4
:101E7000D2050CD49B6A13F4005F18BF1C20054ADE
:101E8000936A43F47F43936200230B7010BD1B20C1
:101E9000F5E700BF00ED00E070B5454B5B688AB028
:101EA0000546C3F30803002686F31188BFF36F8F3E
:101EB00002F07F40B0F17F4F11D102F00C000828F2
:101EC0000DD010074CBF0D4601260022033B8DF8B4
:101ED0000720032B05D8DFE803F01E5D615A354665
:101EE000F3E700249DF807309BB92022294602A879
:101EF00005F094FA099B002E54D0C3F3080222B9CE
:101F00006FEA53236FEA4323099302A9204605F0A1
:101F100026FA0AB070BD264BDA6A9107E1D4DA6A74
:101F2000002ADEDBDA6A5200DBD55A69A96942F47D
:101F300080725A61BFF34F8FBFF36F8F5A6931F8C8
:101F4000021C22F480725A61BFF34F8FBFF36F8F70
:101F50004DF6027291420AD09A6AD2B24AB10DF19C
:101F6000070201212846FFF7E7FE0446BAE72C687E
:101F7000B8E79A6A12F47F4F05D00DF107010120EE
:101F8000FFF754FFF1E79B6AB3F5803FA9D3FFF752
:101F900023FFEAE70DF107020021E3E70DF1070156
:101FA0000020EDE723F4FF7323F00103ACE700BF4B
:101FB00000ED00E0044B5A6942F010025A615A6980
:101FC00022F008025A61704700ED00E0EFF308804C
:101FD000EFF3098101B57246FFF75EFF01BD00BF57
:101FE000002080F31488BFF36F8F02F09BFE002067
:101FF0000D490860BFF34F8F0C4880F3088800F04C
:102000002BF8202080F3118809484FF40461401810
:1020100080F30988EFF314800221084380F31488C9
:10202000BFF36F8F00F00AF994ED00E00079002013
:10203000404700200749D1F890200023C2F307222F
:102040001846934200DB7047C1F89830C1F8A000F1
:102050000133F6E700ED00E008B572B6002383F324
:102060001388FFF7E7FF144B4FF0FF32C3F88020CF
:10207000C3F88420C3F88820C3F88C20C3F89020CC
:10208000C3F89420C3F89820C3F89C20C3F880219B
:10209000C3F88421C3F88821C3F88C21C3F89021A8
:1020A000C3F89421C3F89821C3F89C2162B6BFF30A
:1020B0004F8FBFF36F8F08BD00E100E0084B9B68B6
:1020C00083420BD1EFF3058343B1064B5A6842F0CC
:1020D00080525A605A6A22F400425A6207F0CFBA1C
:1020E000C02D002000ED00E0094A93686FF00A015E
:1020F0009967084958674B6843F080534B60002349
:1021000083F31188BFF36F8F9368986F704700BF98
:10211000C02D002000ED00E010B50446EFF3118360
:10212000202383F31288BFF36F8F094B586998609F
:10213000084B4FF000625A600022436F426783F3FE
:102140001188BFF36F8F00F015F9204610BD00BF56
:10215000C02D002000ED00E00B498A684FF03000F0
:102160001044EFF3098C80E8F01F74467046FFF7C7
:10217000D3FFA64604498A6802F1300090E8F01FB8
:102180008CF3098870470000C02D00201EF0040F5A
:102190000CBFEFF30880EFF30980816911F8021C8E
:1021A0000229FFD001B505F0E0F801BD40B20028DA
:1021B00007DB044A4109012300F01F00834042F875
:1021C0002130704700E100E040B200280CDB4309F9
:1021D000064900F01F0020330122824041F82320ED
:1021E000BFF34F8FBFF36F8F704700BF00E100E078
:1021F000054B420900F01F0053F82220012303FA87
:1022000000F01040704700BF00E100E040B200283D
:10221000A8BF00F1604001F10101B8BF064B4FEAD1
:102220004111ACBF00F5614000F00F00C9B2B4BF6E
:10223000195480F80013704714ED00E00B4A08B5FC
:102240000B4B22F07F029A60BFF34F8FBFF36F8F6B
:10225000D3F8882022F47002C3F8882003F0EEFE41
:1022600004F02CFB00F05CF803F02CFF00000000F1
:1022700000ED00E042F8203C009B42F81C3C0A497B
:10228000019B42F8183C029B42F8143C21F00101EA
:102290004FF0807342F8043C42F8081C0023203AB7
:1022A00002654367704700BF9B700000094A034600
:1022B000906870B113F1160F406E05D0A0F1400286
:1022C0009A4205D8834203D2814228BF002070473A
:1022D00000207047C02D002008B50B4B0E46154658
:1022E000986000F047F82C4686F309884FF000000C
:1022F000064B984720464FF000014FF000024FF088
:102300000003034C204700BFC02D0020897300004C
:102310009B700000014B10221A61704700ED00E035
:10232000044800232021C2180133302B82F8001307
:10233000F9D1704700E100E008B5EFF30583064AE4
:10234000103B02EBC30152F8330049688847BDE8EF
:102350000840FFF7DDBC00BF04980000024B034AB1
:102360000348012100F076B80000022000000020A0
:10237000349A0000426E054B403A1A60044A4021EC
:10238000C3E901121846012100F06EB8702C00203C
:1023900000000B15084AC2F898000B6823F01F03D1
:1023A000034343F01003C2F89C308B6843F00103F1
:1023B000C2F8A030704700BF00ED00E02DE9F04307
:1023C000DFF8608085B00E461F4604464FF00009D6
:1023D000B14523DA6068D8B13FB1411E08421BD134
:1023E0001F2819D92368194216D12368019304F0D4
:1023F000EEFFA36803430393D8F89050C5F3072575
:10240000D0B2013DA84207D801A9FFF7C3FF421C83
:1024100009F101090C34DBE76FF01502104605B035
:10242000BDE8F08300ED00E0044B0522C3F89420E2
:10243000BFF34F8FBFF36F8F704700BF00ED00E019
:10244000BFF35F8F024B0022C3F89420704700BF98
:1024500000ED00E010B5034C01232278FFF7AEFF3A
:10246000207010BDF046002008B50B4A00231278FA
:10247000FFF7A4FF10F1160F07D0084A0021D2F889
:102480009030C3F30723984200DB08BDC2F89800E0
:10249000C2F8A0100130F2E7F046002000ED00E0A5
:1024A0002DE9F043534B544CD3F890302568C3F3D7
:1024B00007239D4285B000F29A80FFF7C1FF0020FC
:1024C0000C2685421AD14D4C4D4F25706846FFF7BA
:1024D000ABFBDFF82081DFF82C9106460025AE42E9
:1024E00013D1237843490020D1F89020C2F307226A
:1024F000934276DBFFF798FF002042E0616806FB1D
:102500000011FFF747FF0130DBE7009800EB0511F2
:102510004FEA051CCB683B40B3F5000F48D00AD802
:10252000B3F5001F30D0B3F5800F36D0B3F5801F60
:1025300010D00135D3E7B3F1807F42D0B3F1007FF3
:10254000F7D150F80C3088684A6804F040FF40F436
:10255000802009E050F80C3088684A6804F037FFA2
:1025600040F0885040F43020CDE901230390D8F8A2
:1025700090302078C3F30723013B98422AD96FF0AB
:10258000150005B0BDE8F08350F80C3088684A6843
:1025900004F01DFF40EA0900E6E750F80C308868B7
:1025A0004A6804F014FF40F0007040F40030DBE7AC
:1025B00050F80C3088684A6804F009FF40F08270D7
:1025C000D2E750F80C3088684A6804F000FF40F009
:1025D0008870C9E701A9FFF7DDFE23780133237076
:1025E000A7E7C1F89830C1F8A00001337CE74FF0AD
:1025F000FF30C6E700ED00E0409A0000F046002002
:102600000000F0FF00000811014B1860704700BF88
:10261000D0040020024B0122C3F84025002070475F
:1026200000E0014020B1034B800143F00103184753
:10263000704700BF90990000084B70B5C31A0D4653
:1026400007499B10044659430648402204F006FF00
:102650002B4601462046BDE870401847902C0020CC
:10266000B76DDBB66497000073B50C4C0C4A402381
:10267000041B00930D460B460A49A410614306460D
:10268000094804F016FF011E05DA30462B4602B059
:10269000BDE87040184702B070BD00BF902C00200C
:1026A0001B750000B76DDBB66497000010B5EFF343
:1026B0001184202383F31288BFF36F8F074A1368B6
:1026C00023F00201DB07116002D4012006F08BFD2C
:1026D00084F31188BFF36F8F10BD00BFE02C002082
:1026E000002270B5012104461046FFF78FFD0F4808
:1026F00002F008FC0E4B984215D102F013FC26693B
:102700000C49304604F022FD00280BDB012535641E
:102710002469084904F11C0004F018FD002801DBBD
:10272000E564002070BD6FF00400FBE73128000075
:102730000000AD0B609A00001FB500220123CDE917
:102740000223094ACDF800D06B46CDF804D004F03E
:10275000DDFE002805DB4FF480420023684603F0CD
:1027600043FD05B05DF804FB3975000030B4104B33
:102770000C2202FB003301460020D3E90E5298637D
:10278000EFF31180202484F31288BFF36F8F1C6C49
:1027900004F0C00444F002041C6480F31188BFF309
:1027A0006F8F1DB12B46034830BC184730BC7047B3
:1027B000902C00206497000010B4EFF311822023C6
:1027C00083F31288BFF36F8F1748016841F002044A
:1027D0000460C80707D482F31188BFF36F8F01200C
:1027E00010BC02F0B1BB4FF08041D1F80C04D1F81D
:1027F0000C14C907EFD5EFF3118083F31288BFF3F0
:102800006F8F0A490B6C03F0C00343F002030B64A3
:1028100080F31188BFF36F8F82F31188BFF36F8F3E
:10282000002010BCFFF7A2BFE02C0020902C00205D
:1028300010B1012804D07047034B1B6C5B0701D11A
:10284000FFF794BF704700BF902C00202DE9F041A6
:102850003849BFF35B8F0746012251E8003F41E84A
:1028600000200028F9D1BFF35B8F33B932493348D8
:102870004B60CB608A6004F07CFC7B1E012B2BD864
:10288000012F07D14FF08043D3F81C3403F003032A
:10289000012B21D006F048FE0546F8B9284B1B78DD
:1028A000E3B14FF080430222C3F808230646DFF865
:1028B00094804FF08044D4F81824D4F81834D2030C
:1028C00015D503F00303012B01D0012F0FD155B310
:1028D00086F31188BFF36F8FBDE8F081EFF31186A7
:1028E000202383F31288BFF36F8F0125DFE7ADB19B
:1028F000304604F05DFDD4F81835002BDBD1D4F858
:102900000421002AD7D0C4F80431D4F804310123BB
:10291000C4F81835C8F88031A360CCE70021212025
:1029200003F022FFE7E74FF080430222C3F80423BD
:10293000D2E700BF8C2C00207C2C0020AC2C002087
:102940001347002000E100E008B5074806F0A2FDAB
:1029500038B10648FFF758FE0448FEF721FE002074
:1029600008BD6FF01200FBE7A0970000712900007E
:102970000A2838B5074D044604D1AB680D215B68C1
:1029800028469847AB6803485B68E1B29847204601
:1029900038BD00BFA097000000487047D09A0000E3
:1029A0002DE9F04F8FB0044602AF00694FF0FF32BF
:1029B000012106F0ADFD6668306806F06BFD30B9A8
:1029C0006FF0120528463437BD46BDE8F08FF06839
:1029D00018B106F05FFD0028F2D0206904F0B7FDC1
:1029E000204604F022FE051E3CDDEA0734D42069AF
:1029F00004F0ABFD206904F0AAFD0323019307F165
:102A00001003009300231A469F21204604F0A5FDE1
:102A10008046206904F099FDB8F1000FD0D1337ED3
:102A2000002B3BD0206904F092FD204604F0FDFD10
:102A3000051E2EDD337E25EA03053D764346CDE9AE
:102A4000008880220621204604F087FD034678B1E5
:102A5000206904F07AFDB3E700220023204604F049
:102A6000F5FD0546206904F070FD002DC2DAA7E7E8
:102A700007F118020121009201918022204604F002
:102A80006CFD0028E4D100220023204604F0DEFD86
:102A90000546206904F059FD002D91D1206904F00C
:102AA00056FD18230193FB180093052200235A2199
:102AB000204604F052FD05462069EB4604F045FD32
:102AC000002D7FF47DAF8C4BBA699A427FF478AFCA
:102AD00097F81E80B8F1010F9DBF08F101085FFA59
:102AE00088F84FEAC8084FF0100807F12003434464
:102AF000FB6007F12005FB68AB4233D12369D8693D
:102B0000DD46194603F1080600224D7C25B18D7C77
:102B10000AB1954200D22A4602318E42F5D1002AEE
:102B20003FF44EAF4FF0FF359540ED4315F480551F
:102B30007FF446AF4FF48052000B5A62186220694E
:102B400004F005FD63685B7EDB0700F1C18020694E
:102B500004F0FBFC206904F0FAFC206904F0F5FCA9
:102B600000252FE7EA792B7843EA0223B3F57F4F5C
:102B700040F0AC8095F803A06E79C7F808D0BAF1A0
:102B8000140F28BF4FF0140A4FEA8A0A5346242B29
:102B900038BF2423073303F4FF63ADEB030DAB7998
:102BA0002069360246EA03462B790DF108091E43D7
:102BB00004F0CDFC052233025A21CDE9009A2046CB
:102BC00004F0CBFC7860206904F0BFFC7A68002A2E
:102BD00063D1D9F80460D4F81080002E08F1110AEE
:102BE0005DDA26F000460121A6F12002C6F12000A0
:102BF00001FA02F221FA00F0024301FA06F6F608A1
:102C0000002146EA42765046082204F012FC0121D7
:102C100052464846796004F0C2FE79680131C9B273
:102C200005290AF1020AF3D1EA780A2A88BFD9F8FD
:102C30002820C8F81C6083BFC2F3031101228A4018
:102C40004FF48072A8F81A20D9F8003013F4C02F7E
:102C50003AD007F114024946284600F0D3F8064658
:102C600090BB97F8149009F1FF33DBB2FD2B2BD802
:102C700019F0030F11D0206904F069FC19F0020F5C
:102C80000FD10023CDE900338022B721204604F084
:102C900064FC88B1206904F058FCDD4690E60136FA
:102CA000ADE7CDE90066334680220621204604F0D8
:102CB00054FC0028E5D0EDE72269137C43F00103C2
:102CC0001374206904F041FCD7F808D0083512E7E6
:102CD0002B46CDE900558022B921204604F03DFC69
:102CE0000546206904F031FC002DBFF633AF15F125
:102CF000860F3FF42FAF65E653464450024B0B60FE
:102D000001231360704700BF0C2D0020004870475E
:102D1000EC9A000010B5012211460648064C06F058
:102D2000F7FB06F000FB206006F0F9FA6060002077
:102D300010BD00BF142D00200C2D002070B50C46D6
:102D4000154606F0ECFA29460646204604F0A1FD99
:102D500008B3B4FBF6F306FB1343E3B9B5FBF6F394
:102D600006FB1353BBB9AE4201D9002070BD4FF032
:102D7000FF324FF0FF33094803F036FA06F0CFFA7E
:102D80000646204602F062FDAD1B3444F9D10348EB
:102D900003F006FAE9E76FF01500E7E7142D0020CD
:102DA000F8B50E463046194617461C4604F071FD2C
:102DB00008B344EA060515F003051CD1A4B10F4879
:102DC0004FF0FF324FF0FF3303F00EFA24F003040C
:102DD000A54206EB050009D1094AD2F80034DB0709
:102DE000FBD5064803F0DCF90020F8BD795902F064
:102DF0004DFD0435ECE76FF01500F6E7142D0020CB
:102E000000E00140C3780F2B14D9C96B0B480B0E9F
:102E100013708B0200EA911003F47C03090603434C
:102E200001F0FE4110680B43054901400B4313605C
:102E3000002070476FF08500704700BF00FF03005F
:102E4000FF000080F0B54068057B01F01F0444EAF4
:102E50004514056987B0002D64D0B2F5001F00F15C
:102E6000100506D12146284606F04EFA002007B08C
:102E7000F0BD01AE0027B2F5800F0197776039D120
:102E8000B3F1007F14BF052304238DF80430002321
:102E9000CDE904630393836823FA01F111F0010182
:102EA0001AD1B2F1A07F17D104F01F03620903F514
:102EB000E0732AD0012A3BD11F4A52F82330DB07A6
:102EC0000AD40DF1030632462146284602F018FBCB
:102ED0001A4B98421CD0029603AA2146284602F0BB
:102EE000D1F9174B984220D101222146284602F001
:102EF0006BFBBBE7B3F1C06F05D0B3F1007F14BF2C
:102F000001230223C1E70323BFE74FF0A042D4E728
:102F10003146284602F052FB094B9842DBD06FF055
:102F20000B00A4E76FF08500A1E76FF015009EE7A6
:102F300051F82330FFDE00BF000300500400AD0B4A
:102F40000000AD0B38B545682B69B3B11035284684
:102F500002F024FB044680B90146284602F0EAFA52
:102F6000084B98420BD108492246284602F0C2FA83
:102F7000224605210620FFF749F9002038BD6FF0F1
:102F80000400FBE70000AD0B8D2F0000420970B577
:102F9000034602D0012A17D070BD0D4E3269516828
:102FA0000029F9D003F01F0301250C689D4000297A
:102FB000F2D08A682A4002D04B68304698472CB13C
:102FC000236821461C46F2E7024EE7E72346F8E76E
:102FD0008C970000789700002DE9F043466840F296
:102FE0000635D006337B87B002EA050554BFC2F32D
:102FF0004010032001F01F07B5F5837F144647EA10
:1030000043178DF8030045D00FD8062D18D007D8E8
:10301000B5B1022D40D06FF0150007B0BDE8F083C8
:10302000B5F5807FF7D101250AE040F202229542F2
:1030300034D0B5F5407F33D0B5F5007FEBD1022514
:103040000123220303FA01F12CD57368C3F8081594
:10305000326982BB07F01F037F0929D0012F77D186
:103060003E4A02EB830284F48033D2F80017C3F3A4
:103070000043C4F3404444EA430421F4E16144EAD8
:10308000800421F0070144EA05230B43C2F800370E
:103090000020C2E70725D3E70425D1E70525CFE7C0
:1030A0000325CDE7630344BF7368C3F80C15CFE76E
:1030B0004FF0A042D5E710360DF1020239463046F6
:1030C00002F01EFA14F4403F80460CD139463046D7
:1030D00006F018F9224B9845DAD19DF802103046D7
:1030E00002F066FAD4E701AB4FF0000903AA3946B3
:1030F0003046CDE90439CDE90199CDF80C9002F0C4
:10310000C1F8174B984286D114F4003315D09DF8BE
:1031100003308DF80E3084F48034C4F300444B4601
:1031200003AA394630468DF80C508DF80D4002F058
:1031300063F90B4B9842CDD06DE7CDE9043303AA78
:103140000DF1030339463046039302F09BF8F0E794
:1031500003F5E07352F82330FFDE00BF0003005098
:103160000000AD0B036803F01F025B09026004D08E
:10317000012B034818BF002070474FF0A040704754
:10318000000300502DE9F04FDFF86091DFF860A1F7
:1031900085B01546834600EB810140F2FF18594582
:1031A00003D1002005B0BDE8F08FDBF800305804F3
:1031B000C3F3C322C3F3080400F191801B0E19F876
:1031C0000270444508BF4FF0FF34192B00F28A808B
:1031D000DFE803F00D141A1D20261D888888883624
:1031E00063888888888888888888667C7F82C5F814
:1031F0000C45621C5ED10BF1040BD0E7C5F81445F9
:10320000631CF8D000265FE0C5F80845F1E7C5F873
:103210001045F5E7661CC5F80845ECD0002604E02B
:10322000601CC5F80C45E6D0012603A80394FFF7FF
:1032300099FF039B012202FA03F3C0F80C3508E062
:10324000C5F80845002FDBD1631CD4D000263246D8
:103250000627DBF80030019303F40040002818BF74
:10326000002203A8009218BF01260394FFF77AFFFB
:10327000039C019B009A00EB8400C3F3412CD0F81F
:1032800000473B0243EA8C03134304EA0A04234346
:1032900043EA4603C0F80037ADE7C5F80C45D1E76F
:1032A000C5F86045621CDBF80030A4D0C3F30043CE
:1032B000002BB9D003A80394FFF754FF039B01260A
:1032C00006FA03F3C0F808353246C2E7C5F864458C
:1032D000E8E7C5F86845E5E7C5F86C45E2E76FF053
:1032E00015005FE76FF085005CE700BFBBA400003E
:1032F000F0F8FCFF2DE9F041044647680D4606F062
:1033000013F94FF0200888B9264B1B7873B1642657
:10331000606804F0D9FBF0B9012005F0FCFE013E25
:10332000F6D10021212003F01FFAF0E7EFF3118618
:10333000314688F31288BFF36F8F606804F0C4FBD6
:10334000A8B986F31188BFF36F8FEFE786F3118872
:10335000BFF36F8FE5E7EFF31186314688F31288EC
:10336000BFF36F8F606804F0AFFB0028EED0FB69FD
:103370001D706368FA691B680020C3F844250122A8
:10338000C3F84825C3F82001D3F82041C3F85801F9
:10339000D3F858019A6081F31188BFF36F8FBDE8AD
:1033A000F08100BF13470020F7B505460022012138
:1033B0000220FEF72BFF0220FEF7F8FE6B6818686C
:1033C0001A69C0F82425997D5A7D0A43198B1B7D03
:1033D0000B431343C0F86C356E68D6E9004313F015
:1033E000010348D02F6907F1080005F0A0FE304B1B
:1033F00098425AD1387A04F10C0204F5907105F024
:103400008CFE387A012707FA00F001F075FD0823D9
:10341000C4F80035F369C4F844350023C4F84835CE
:10342000A760D4F85831002BFBD00021C4F8001558
:103430006B68DC6801AA204604F019FB002805DB54
:10344000019B226819791868FFF79CFE6A68136867
:103450000821C3F80015117A51B9126AC3F834254E
:103460000122C3F83825C3F81011D3F810111A60DF
:10347000002003B0F0BD0822C4F80025F269C4F8AA
:103480004425C4F848350123A360D4F82031002B2B
:10349000FBD00023C4F82031D4F820310123E360AD
:1034A0004FF48073C4F80433BBE76FF00400E0E727
:1034B0000000AD0B2DE9FF410569D0F804802B6DAC
:1034C0000646A86C002835D1002B53D0B8F83840F8
:1034D0006A6CEF6C9C4228BF1C46EB6C53B1296DA3
:1034E00041B107F06041B1F1005F03D0082C6F6E6D
:1034F00028BF082400926A6CAC651AB1AA6C002A35
:1035000018BF2246CDE901271BB12B6D002B18BF38
:103510002346002269464046039302F005FC184BFF
:10352000984229D06FF00401304604B0BDE8F04164
:1035300004F0DCBB696CEF6CB8F838400A46ABB1FC
:10354000834228BF03469C4228BF1C460029C4D0A2
:1035500001F06043B3F1005FBFD0082C28BF0824FE
:103560002246286E03F05AFF2A6EB6E7844228BF2F
:103570000446EBE71946D7E704B0BDE8F08100BF89
:103580000000AD0B2DE9F04F8FB0984643680193D2
:103590008B8804690F4699040646914600F11D8107
:1035A0004FF0FF324FF0FF3304F1100002F01CFE29
:1035B0006760D6F804B0D6F810A0DBF808300393A3
:1035C0009AF85D3023B1DAF800309F4200F089802C
:1035D000B7F804E01EF4006F40F036811EF0090FCA
:1035E00040F02F81CEF34513082B40F02A813B6831
:1035F0000293029AAD4B9A4240F223810BF10C0CDC
:10360000BCE80F0004AD0FC5BCE80F000FC5DDE935
:1036100002329A4228BF1A469CE80300A44B9A4201
:1036200085E803001BD2A34B9A4218D2A24B9A42C0
:1036300015D2A24B9A4200F2D980A14B9A4200F2D5
:10364000D780A04B9A4200F2D5809F4B9A4200F25D
:10365000D3809E489E4B9F49824288BF0B461EF0F6
:10366000020F09930EF0040300F0C880002B14BF72
:10367000032302238DF82830CEF300138DF8293070
:10368000DBF80030D3F808251EF0020F4FEA521382
:10369000CEF3400102F01F0240F0B780002B00F093
:1036A000B180012B40F0FA808B4901239340C1F88F
:1036B0000C359AF85D302BB1584602F0EDFA002334
:1036C0008AF85D303346854A04A9584602F0B0FABC
:1036D000834B984240F0A58001238AF85D30CAF8F8
:1036E0000070012384F85C30019B196C4A1C03D0E4
:1036F00003F1440004F064FBB9F1000F40F0A7802F
:10370000C4F834900023A36304F1480204F13801A3
:1037100004F1340004F013FA6064B8F1000F40F0D3
:103720009F80C4F83C800023236404F1500204F11C
:10373000400104F13C0004F002FA00252A46E0644E
:1037400001212046256304F030FA3046FFF7B2FE2F
:10375000A06B2A462B46834240F08B800023256CC9
:103760001946A94240F08C809342274638BF134641
:103770004FF4FA5202FB03F557F8203B4FF00008D4
:103780001B68B5FBF3F54FF4004CC835414640F2D9
:10379000E7304FF47A720023E5FB0C01FCF7B0FC34
:1037A00002460B46384602F01FFD024618B9256B4B
:1037B00015F1740F6BD10198C4F8588002F06CFABF
:1037C00084F85D806FF07301304604F08FFA38465C
:1037D00002F030FD6FF0730525E0A369002B7FF444
:1037E000DFAE63689F427FF4DBAEE2E63D4B36E737
:1037F0003D4B34E73D4B32E73D4B30E7003B18BFD4
:10380000012337E74FF0A0414FE73BB1012B48D1EF
:10381000314901239340C1F808354AE74FF0A041F0
:10382000F7E76FF0040523689B8813F4005304D175
:10383000636004F1100002F0B3FC28460FB0BDE84D
:10384000F08F6FF01505EEE76FF08505EBE7D9F81F
:1038500000306363002B3FF455AFD9F8043052E7D2
:10386000D8F80030E363002B3FF45DAFD8F80430A4
:103870005AE7616B01EBC301013349680A446AE707
:10388000E06B00EBC10001314068034469E7002DA3
:10389000C9D00146306904F088F9C4E7C1F80C15B5
:1038A000FFDE0023C3F80835FAE700BF47E8010050
:1038B0000048E8010024F40000127A00FF083D00EF
:1038C0007F841E003F420F001FA107008FD003001E
:1038D00048E8010090D00300000300500F7D000075
:1038E0000000AD0B00093D0080841E0040420F0027
:1038F00020A1070000F01F0240090DD001280ED1C1
:103900000A4B03EB82030A4AD3F80007024042EA5B
:103910008102C3F8002770474FF0A043F1E702F59A
:10392000E072002353F82230FFDE00BF0003005096
:10393000F0F8FCFFF0B587B001238DF802300223C8
:103940008DF804306B4403930F4601AB0DF1030176
:103950000024049305460291059401F02FFE0C4BC0
:10396000984206460FD103AA3946284601F08AFC40
:10397000B0420BD09DF80310284601F019FE6FF0FD
:10398000040007B0F0BD6FF01200FAE72046F8E738
:103990000000AD0B70B5012383400E4ABFF35B8F6F
:1039A000DC4352E8001F01EA040542E80056002EFD
:1039B000F7D1BFF35B8F4FF4803282400648C0F8E6
:1039C0000823BFF35F8FBFF36F8F0B4214BF01203B
:1039D000002070BD4C2D00200010014070B40E4935
:1039E000D1E90034D01AC31844F1000422F07F4614
:1039F000C1E90034A6F50013B3F5400F09D2074B17
:103A00001B681A0A1B069C19054B42F10005C3E905
:103A1000004570BC03F02CB858060020502D002043
:103A20006006002011B3BFF35B8F0123104A83406F
:103A300052E800CF4CEA030C42E800C10029F7D15C
:103A4000BFF35B8F0B4A4FF480338340C2F80433DB
:103A5000094BBFF35B8F1B68BFF35B8FC340DB0772
:103A600042BF064B4FF40032C3F80021704700BF3D
:103A70004C2D002000100140482D002000E100E006
:103A80000D4B1868010A0006BFF35F8F0B4BD3F88C
:103A90000435181841F10001B3F5801F0AD2084B14
:103AA000D3E90023904271EB030303D210F180703D
:103AB00041F10001704700BF502D0020001001406F
:103AC000600600202DE9F04F85B016461F469DF890
:103AD00040A00446FFF75EFF0190FFF7D1FFB04220
:103AE00071EB070354D23E4B301A67EB0101984249
:103AF00071F100014FD23B4B03EB0413D3E90223D6
:103B00009F4208BF96425ED037494FF4803804F197
:103B1000500508FA04F8AD00C1F848832046ADB25C
:103B200004F076F926F07F4B05F1804504F5A87383
:103B300005F58835DC464FF003090293029A2CF014
:103B40007F4341F82230C1F84483D1F80435274A35
:103B50006FF00200C01A604420F07F40904232D9DA
:103B6000286868B1D1F804350393A3EB0B0020F06B
:103B70007F40B0F5000F26D9204604F049F9039B99
:103B8000BAF1000F07D109EB030C09F10109D5E7E0
:103B9000BAF1000F09D06FF0150520460199FFF723
:103BA00041FF284605B0BDE8F08F0123104ABFF35E
:103BB0005B8FA34052E8000F184342E80001002940
:103BC000F8D1BFF35B8F07490E98230101EB041274
:103BD000C8500F9B5360C2E902670025DDE700BFB4
:103BE000010080004806002000100140FDFF7F001A
:103BF000482D00207FB51C4C1C4BC4F80833C4F87A
:103C000048331B4B00254FF0FF304FF0FF31C4F815
:103C10000855C3E902014FF48033C4F80433154B4F
:103C200002264FF400320121C4F804631120C3F8C6
:103C300080212A46FEF7EAFA1120FEF7B7FA0E4A6B
:103C40000123A360236013600C4B0D4A0093CDE960
:103C5000015500232846FFF735FF3046FEF7F6FDF5
:103C6000284604B070BD00BF0010014003000F00E3
:103C70004806002000E100E04C2D0020DD39000066
:103C8000FFFF7F002DE9F7432F4CD4F80433990749
:103C90000BD5D4F8043143B12C4A0023C4F80431C5
:103CA000D4F80431136801331360D4F80433DA0311
:103CB00029D5BFF35B8F264B53E8002F22F001017B
:103CC00043E800100028F7D1BFF35B8FD30702D47D
:103CD000D4F84031BBB10025C4F84051D4F840318C
:103CE000FFF7CEFEEFF31182202383F31288BFF398
:103CF0006F8F184BD3E90267B042B94106D282F305
:103D00001188BFF36F8F03B0BDE8F0834FF0FF3829
:103D10004FF0FF39C3E90289D3E900101D604FF469
:103D20008033C4F84833C4F84051D4F8403182F3AA
:103D30001188BFF36F8F0029E5D0009032463B46D3
:103D400028468847DFE700BF00100140502D0020C3
:103D5000482D00204806002030B5431C124C85B089
:103D600005D08442A8BF0446012CB8BF0124FFF748
:103D700087FE0E4B0C4DD3E90013401AB0F5000F2F
:103D800010D22218AA4228BF2A4652184FF000002B
:103D900007490091CDE9010043F10003FFF792FECE
:103DA00005B030BD2A46F0E7FFFF7F00580600202F
:103DB000DD39000008B5FFF763FE024B1B68C01A2F
:103DC00008BD00BF5806002010B5084C01236360F1
:103DD0001120FEF7F9F9064BC4F80833C4F848334C
:103DE000044B4FF40032C3F8802110BD0010014095
:103DF00003000F0000E100E030B50C490C4D0B68EA
:103E00000246002405EB0310D0F80808C0B218B928
:103E100004B10B60002007E00133072B4FF00104D1
:103E2000F0D90B606FF01B00136030BD542D0020E3
:103E300000E0014030B5816885B0103921F00704F9
:103E4000054603F063FA10220146684603F0F1FAD2
:103E500007491022684603F0E1FA10236A4621461A
:103E6000284603F01FFA003818BF012005B030BD06
:103E7000CA9D000030B50D46816887B0102302AAA4
:103E80001039044603F0F9F9002802DA012007B0DE
:103E900030BD102202A9204604F020F800283AD1B3
:103EA0001E49102202A803F0A9FA00280CBF012322
:103EB00002232B70204603F0FDFF012301460DF184
:103EC0000702204603F0D9F90028DFDB9DF8073010
:103ED00003F00F021B096A702B7101220DF107011B
:103EE000204603F0FBFF10B96B78042B03D90123A4
:103EF0006B7000232B71A268183A22F00702083A6F
:103F0000A91C204603F0FDFF0028BFD1E91C204674
:103F100004F050F8BBE70323CBE700BFCA9D0000C5
:103F2000F0B5354F460085B00546694657F826007E
:103F300004F046F8044610B1FF2005B0F0BD01368C
:103F400002A957F8260004F03BF8012837D12B4886
:103F50002A46492103F083F9294B02938DF80C403E
:103F60009DF800609DF80870264C002220783146AC
:103F700003F0A6FF50B36078394603F0A1FF28B3E1
:103F8000A378042B03D09DF8031099421ED1E37847
:103F9000042B03D09DF80B10994217D12379042BE1
:103FA00010D16279022A1DD1174B18482A4649219F
:103FB00003F055F96079831E022BBED9BCE70028B7
:103FC000CED0B9E79DF802109942EAD00132032A17
:103FD00004F10604CAD10E482A46492103F03FF9EC
:103FE0000120AAE7032A05D00A4B0B49042A08BF7F
:103FF0000B46DAE7094BD8E78C9C00000EA50000C1
:1040000003010303A3A50000F0A4000059A50000CC
:104010007DA50000F5A4000007A50000EBA40000AA
:10402000044B1B68584043085B4240421843C0178A
:10403000704700BF582D00208842F0B504D0094FCA
:1040400004380025AA4200D1F0BD3E6850F8044F64
:104050005E4024EA060451F825601E4034430460A3
:104060000135EFE7582D00202DE9F04F8DB01D46AA
:10407000189B179F1A9E0592B3F12A3F83468A46E2
:1040800040F08D803946169804F022F8012838BF98
:104090000120470900F01F047B01502B4FF001095C
:1040A00034BF4B4603230A9309FA03F30B930A9B8D
:1040B000059805FA03F306EB8303069303EB8503E8
:1040C000079304F0DDF94FEA850808904246002185
:1040D000304603F0AEF9079BC6F800900393089BA7
:1040E000199ACDE90153059B009331462B46304682
:1040F00006EB080904F0D5F951464246484603F05C
:104100008DF90223494609930B9B099A934248D1A2
:1041100042463146584603F081F94FF00009CA463D
:10412000079B0393089BCDE90153059B00935A46D7
:104130002B465946584604F0B4F9002C47D1013FAC
:104140001F24169B53F82730E34003F0010343EA92
:1041500049090A9B0AF1010A534503D0002CDFD11B
:10416000002FDDD1189BB3F12A3F32D10698424689
:1041700009FB086103F052F9079B0393089B069A19
:10418000CDE90153059B009359462B46584604F050
:1041900088F9002CC1D1BFB90DB0BDE8F08F002463
:1041A0007AE7079B0393089B01EB080ACDE90153CB
:1041B000059B00934A462B46504604F072F9099B32
:1041C0000133099351469FE7A146A246A8E7013C67
:1041D000B7E731464FF0000A0A4B18681B68584091
:1041E00080EA090080EA0A00FFF71AFF2A46C34363
:1041F0000698FFF721FF099B0AF1010A5345414444
:10420000EAD1B9E7582D0020054B1B680131434026
:104210000132084022EA03020243501E00B27047F6
:10422000582D00202DE9F04F99B083460F461846CF
:1042300000211646039304F0A5FB002800F08981B5
:10424000784B14930024012515AB03991393304642
:10425000CDE90B45CDE90D45CDE90F45CDE911453A
:1042600004F019FBA04228DABBF1000F05D1E7B931
:104270000024204619B0BDE8F08F2146584604F0CE
:1042800092FA04460028F2D00BA804F0D9F90DA840
:1042900004F0D6F90FA804F0D3F911A804F0D0F96E
:1042A0000C2115A800F038FBE3E73146384604F04E
:1042B00045FA04460028E7D1DAE731460BA804F0B6
:1042C0003DFA04460028DFD103990DA804F036FA20
:1042D00004460028D8D1F188ADF8385002310FA833
:1042E000ADF8305004F0BAF904460028CCD10146AC
:1042F0000FA804F058FA04460028C5D1F18811A887
:10430000023104F0ABF904460028BDD10DA804F039
:1043100076FA00F01F001F2873D0C0F11F03194662
:104320000BA8019304F091FA04460028ACD101993E
:104330000DA804F08AFA04460028A5D1BDF8325031
:10434000BDF83A80A5EB080A4FEA4A1949460DA87C
:1043500004F07BFA0446002896D14FEA8A0A0DA998
:104360000BA804F0C7FA00284DDA49460DA804F05E
:1043700089FA0446002887D108F1FF3305939B0092
:1043800005F1FF3A069305F1804508F18043023BB1
:10439000013D9B00A5EB08050893AB000293059B2C
:1043A0009A4541D8BBF1000F0DD00FA9584604F033
:1043B000C5F9002840F0C980039AB388928813FB9E
:1043C00002F3ABF80430002F3FF45EAF01990BA865
:1043D00004F058FA002840F0B880B388ADF83030C7
:1043E0000BA9384604F0AAF90146002840F0AF8036
:1043F000384604F0C7FA00287FF446AF0123BB809B
:1044000042E701949AE70F9A52F80A300BA9013358
:1044100042F80A3008460DAA04F09AFB0446002828
:104420009DD031E7010003000D9B069A04931344CD
:10443000DDF82C900793049B59F82A109A580F9D89
:104440004FEA8A08A8F104030993029B91421D4494
:1044500076D2A8F10400002359F80000FBF750FEC3
:10446000002914BF4FF0FF330346BAF1010F2B6050
:1044700016BF09EB0803002353F8083C1593A8F175
:10448000040359F80330169359F8083017932B6832
:10449000DDF8108001332B60089B98442B68013BAA
:1044A0002B60002111A804F07EF900284DD1059B56
:1044B000002B48D0D8F80020119B1A60079A126888
:1044C0005A6011A92A68084604F046FB00283CD12E
:1044D00013A911A804F00EFA0028DFDC2A680DA940
:1044E00011A804F039FB80BB029B4FEAC308414688
:1044F00011A804F0AAF940BB0BA9084611AA04F0C0
:1045000027FB014618BB0BA804F03CFA002812DA7E
:104510000DA911A804F012F9B8B9414611A804F088
:1045200094F990B90BA911AA084604F00EFB60B9E2
:104530002B68013B2B60029B0AF1FF3A043B2DE7FD
:104540004FF0FF3391E7059AB6E704469CE60C4628
:104550009AE66FF00B048CE62DE9F74F90461F4A60
:104560001568454006460F46ED43002B14BF9A469A
:104570008A4600240C9B04F104094B4505D20C9B90
:104580009C4220D303B0BDE8F08F042208EB040165
:104590000DEB020002F042FF019A06EA020B042230
:1045A0000AEB04010DEB020002F038FF019A2A40E9
:1045B00042EA0B020192042238190DEB020102F0CB
:1045C0002DFF4C46D6E718F804301AF80420334083
:1045D0002A4013433B550134D1E700BF582D00203A
:1045E000082804D00928034818BF00207047024853
:1045F000704700BFB5A50000B8A5000001680E4ACD
:104600009142034615D1C169A2F11022A2F1EF1225
:1046100091420ED18268012A0BD8C26812B1016999
:104620008A4206D0586928B19B691B1A58425841E2
:1046300070470120704700BF55AA00FF70B50D4BB1
:104640009E68A6B13046FFF7D9FF044678B9F368F3
:104650006BB935690DB9204670BD2846FFF7CEFF0E
:1046600028B9EB68B34202D12E462D69F2E7012446
:10467000F1E700BF5C2D00202DE9F8433F4F3C6877
:10468000D4B1BC68C4B100284AD0002948D001FB8D
:1046900000F5B5FBF0F0884242D1281D40D8A907AB
:1046A0000DD025F003060436FC6803E06368B342CE
:1046B00038D2A469002CF9D12046BDE8F8832E46F3
:1046C000F2E7FB6041E006F120016318203A5A60EE
:1046D0000022C3E902242A4822691A61605029494C
:1046E000D96102B1D36062695A61A1699961AAB1C5
:1046F00093619A6902B153614FF00109C4E90169FC
:1047000023610023C4E905333B69DB072ED5FFF79E
:1047100095FF58B31C4B48461B6826E0FB60E8E752
:104720000024C9E7A3681BB1174B01201B689847F9
:104730006268921B232A04F12008C4D80123A360D5
:10474000D4E90523002ABCD09361A3690BB1626947
:104750005A610023C4E905333B69DA0706D5FFF740
:104760006DFF18B1084B1B68012098472A460021AD
:104770004046444602F05DFE9EE700BF5C2D0020EF
:1047800055AA00FF669911EEA805002070B50546F0
:10479000002800F08880444E3368002B00F08380AE
:1047A000B268002A7FD0834203D8726813449842CB
:1047B00003D33E4B01201B689847A5F120042046F7
:1047C000FFF71CFF18B1394B01201B68984755F8BB
:1047D000183C012B03D0354B01201B689847002360
:1047E00045F8183C55F8143C3BB39A682ABB55F879
:1047F0001C2C02F120015A680A445A6055E905321E
:104800001A6155F8145C2B6903B1DD602022002188
:10481000204602F00EFE286910B18368002B2ED0CE
:1048200033699B073FD5FFF709FF00283BD01F4B9B
:10483000BDE870401B680120184755F8100C00288F
:104840002AD0836843BB42686368134420336360A3
:1048500003692361D4E905239AB9CBB9436963613C
:104860008269A261B3B19C61A36903B15C612369F0
:1048700003B1DC602022002102F0DBFDD0E72C46F2
:10488000E1E79361A369002BE8D062695A61E5E72B
:10489000F360F7E7F460E7E7F36845F8083C03B135
:1048A0005C61F460BCE770BD5C2D0020A8050020B1
:1048B00038B514220C4605460021134802F0B9FD14
:1048C0001249134800F040F8232C1CD915F00303BB
:1048D0001FBF043CE418C3F10403ED182246002175
:1048E000284602F0A6FD084B0A499D60C3E9005422
:1048F000203C6C609A6811609A68DA60A1F110211E
:10490000A1F1EF11D16138BD5C2D00208D47000071
:104910007946000055AA00FF10B50A46044619B1B1
:10492000024B00211B68984710BD00BFA405002062
:10493000014B1B68184700BFB0050020014B1B68E6
:10494000184700BFAC050020024B1860024B002046
:1049500019607047B0050020AC050020F8B500F1E3
:1049600008064768044630460D4603F04CFF874270
:104970004BD16368B3F5807F47D80021304604F0FF
:1049800001F8002841DD0021304603F028FFE0B3A4
:1049900045B9294604F1100003F0F4FF002834DD86
:1049A0000020F8BD04F120050021284603F0EAFFAD
:1049B00000282ADD0021284603F011FF28B304F166
:1049C00028050021284603F0DDFF00281DDD002119
:1049D000284603F004FFC0B1002104F1100003F0E9
:1049E000D1FF002811DD002104F1300003F0CAFFDF
:1049F00000280ADD002104F1380003F0C3FF00287D
:104A000003DD002104F14000C6E70148C9E700BF0B
:104A100080BFFFFF012938B50546144601D007487D
:104A200038BD22B90123C5E91C340020F8E710463F
:104A3000FFF7D6FD0028F5D1F1E700BF00BFFFFF6B
:104A400070B500210446FFF789FF054610B10E4DF1
:104A5000284670BD04F10806304603F0D0FE7F28DA
:104A6000F5D910342946204603F0B9FE0028EED0CF
:104A7000204603F0C4FE0128E9D93146204603F060
:104A800039FF0028E4DBE2E700BEFFFFF0B50C468B
:104A900085B0002105461646FFF760FF002839D192
:104AA00002A803F0C8FD21466A6802A803F0B1FE1F
:104AB000044618B102A803F0C3FD0CE005F1080498
:104AC000214602A803F016FF002807DB02A803F026
:104AD000B7FD6FF00304A4F5854418E005F1480321
:104AE00002A96F68009305F110022346084604F0FE
:104AF00083F904460028DDD13A46314602A803F086
:104B00009EFE044602A803F09BFD002CE3D1204644
:104B100005B0F0BD004CFAE780BFFFFF01292DE989
:104B2000F041034641D8224A224F2348234E244DC8
:104B3000244C9966002918BF9046234A18BF964610
:104B400002F1794202F5740202F5016218BF94463F
:104B50001E4A18BF17461E4A18BF164602F1D14218
:104B600008BF804602F5C0121A4802F51E620CBF4B
:104B7000864615461848194A0CBF844614461848FC
:104B8000A2F11162A2F50C22A2F28E2218BF0246F7
:104B90000020C3E91000C3E9128EC3E914C7C3E9BA
:104BA0001665C3E91842BDE8F0816FF07300FAE7BB
:104BB000D89E05C13AF54FA567E6096A7F520E51A6
:104BC0008C68059BABD9831F07D57C3639590EF706
:104BD000310BC0FF85AE67BB72F36E3CA78FF964E3
:104BE000A44FFABE2DE9F04FCFB000F1640300F1FD
:104BF00044070DF58A79009301914A463B4653F8E4
:104C0000041F42F8041F00999942F8D104ADDFF85F
:104C100000A14FF000082C46B8F10F0F61D8019B9E
:104C2000042203EB880103A802F0F8FB039804F0C8
:104C300083F9A860D4E94763D4F818C15AF8041B73
:104C400073404FEAFC22D4F8206182EABC1203EAE6
:104C50000C0382EA7C6273401344D4F82421D4F814
:104C6000106113440B44D4E9421E034441EA0E028E
:104C70004FEA713080EAB100324001EA0E0B80EA5F
:104C8000B15042EA0B020244D4F8140162601844A5
:104C90001344D4F82021C4F8242108F10108D4F8E1
:104CA0001C212360B8F1400FC4E947C2C4E944E6BF
:104CB000C4E94231C4F8180105F10405ACD157F834
:104CC000043F59F8042F13443B60009BBB42F6D1CC
:104CD00004A84FF49471FFF71FFE00204FB0BDE809
:104CE000F08F2B6855F8382C55F8341C4FEAF340F8
:104CF00080EA734080EA932055F8143C134418442A
:104D00004FEAB14383EAF11383EAD103184490E7F1
:104D1000949C0000024AD2F80034002BFBD070476C
:104D200000E0014010B54FF08053D3F830210D2A38
:104D300055D14FF080410022C1F80C21C1F810215B
:104D4000C1F83825464AD3F80404C2F82005D3F840
:104D50000804C2F82405D3F80C04C2F82805D3F8D7
:104D60001004C2F82C05D3F81404C2F83005D3F8A7
:104D70001804C2F83405D3F81C04C2F84005D3F86F
:104D80002004C2F84405D3F82404C2F84805D3F837
:104D90002804C2F84C05D3F82C04C2F85005D3F807
:104DA0003004C2F85405D3F83404C2F86005D3F8CF
:104DB0003804C2F86405D3F83C04C2F86805D3F897
:104DC0004004C2F86C05D3F84434C2F87035D1F809
:104DD0000034DB0709D56FF00103C1F800344FF050
:104DE0008053D3F830310D2B0CD14FF08053D3F8D2
:104DF00034313BB14FF01023D3F808224FF08043F9
:104E0000C3F858254FF01023D3F80022002A03DB03
:104E1000D3F80432002B22DA124901234FF010207C
:104E2000C1F804351224FFF775FFC0F80042FFF700
:104E300071FFC0F80442FFF76DFF0023C1F804358D
:104E4000FFF768FFBFF34F8F0749084BCA6802F4AA
:104E5000E0621343CB60BFF34F8F00BFFDE710BD8F
:104E600000C0004000E0014000ED00E00400FA0551
:104E700030B50468CCB1BFF35B8FB4FA84F3C3F1EF
:104E80001F03DBB201229A4024EA020250E8005FCD
:104E9000A54204D140E8002CBCF1000FF6D1BFF3CD
:104EA0005B8FE6D102480B7030BD0248FCE700BFC3
:104EB0000000AD0B0200AD0B10B50368CB40DB0763
:104EC00014D401238B400268BFF35B8F43EA0201D5
:104ED00050E8004F944204D140E8001CBCF1000FA0
:104EE000F6D1BFF35B8FEED1014810BD0148FCE75E
:104EF0000000AD0B0400AD0B014BC3F80405704777
:104F000000F00140044B1A7922B9012218601A718D
:104F10000248704702487047702D00200000AD0B1A
:104F20000C00AD0B08B5074B1B682BB10020FDF73B
:104F30005FF908B9FDF73AF94FF080430022C3F852
:104F4000182508BD702D002010B510B1012843D0E0
:104F500010BD4FF08043D3F81814D3F81824C803B9
:104F600021D502F00303012B04D013B1002004F07B
:104F7000E0F800234FF080420220C2F818350822E2
:104F80004FF4827303F180430021196002F18042E3
:104F90001C6801241460154A12680AB34FF080435C
:104FA000C3F80403D4E7D3F81424D107E1D5D3F828
:104FB0001C249207DAD40D4A12681AB10222C3F8EF
:104FC0000423C5E7D3F80421002AFBD00022C3F84C
:104FD0000421D3F80431BBE700224FF48073D1E7FA
:104FE0001A68002AFCD019601B68B1E7702D0020F8
:104FF00010B54FF08043D3F8002152B10020C3F820
:105000000001D3F800210122C3F80823104B1B68CC
:1050100098474FF08043D3F8042172B10022C3F8BF
:105020000421D3F80421D3F81824D3F818249207C4
:1050300004D10122C3F818259A6010BD0222C3F8DA
:105040000823034BBDE810401B680120184700BF30
:10505000702D0020036803F01F025B09026004D07A
:10506000012B034818BF002070474FF0A040704745
:1050700000030050034A430900F01F00D35C1844AA
:10508000C0B27047BBA5000070B50546FFF7F2FF40
:105090000C4C08300E4634F81030DA0508D5C3F34E
:1050A000432304EBC302284654F833305268984730
:1050B000A3682BB1E26831462846BDE87040184726
:1050C00070BD00BFB405002008B5FFF7D3FF034B48
:1050D000083033F81000400B08BD00BFB4050020B5
:1050E00008B5FFF7C7FF034B083033F81000C0F3D3
:1050F000400008BDB405002008B5FFF7BBFF034B17
:10510000083033F81000C0F3401008BDB40500208B
:10511000034611F0010010B5CCB20DD1A207C4F3C3
:10512000400012D5094AD2F820055860C2F820057F
:10513000003818BF012008E04FF0A041D1F8202529
:105140001A60C1F82025002AE8D010BD00030050E5
:1051500010B5FFF78FFF124A083032F81030D9052A
:105160001CD5C3F3432123F4F85322F8103002F185
:105170000E04002034F8023F13F4807F03D0C3F301
:10518000432399420AD001302A28F3D1002342F860
:1051900031300448BDE81040FFF78EBE10BD00BF9F
:1051A000B405002020060020F0B505460020044686
:1051B000012607468C420BD1114BD3F87C2132B12A
:1051C0000022C3F87C21D3F87C3140F00040F0BDD0
:1051D000E3B29B0003F580729B0806FA03F31D42BD
:1051E0000BD002F1804202F5C042D2F800C0BCF1FF
:1051F000000F02D01760126818430134DAE700BFCD
:1052000000600040F7B506460846FFF733FF194F28
:1052100000F108050C4637F81530DB0727D5304676
:1052200004F04CF82046FFF767FF40B12046FFF737
:105230004BFF316800F5A270002341F82030204672
:10524000FFF786FF002301A827F815300194FFF728
:1052500001FF019B00EB8300074BD0F800271340B0
:1052600043F00203C0F80037044803B0F0BD04481F
:10527000FBE700BFB4050020F0F8FCFF0000AD0B19
:105280000400AD0B2DE9FF41164680460846FFF7A6
:10529000F1FE0D463168044609B32846FFF720FFAA
:1052A00018B12846FFF728FF10BB0023CDE90033D3
:1052B0008DF80E308DF80F300DF10F020B46284699
:1052C0000DF10E0103F091FF474A04F1080132F895
:1052D000113023F0020343F0010322F81130736808
:1052E00063B328461F785968FFF7FAFE10B1D1B1B1
:1052F0003E4826E03C4A04F1080032F8103023F022
:105300002003DB04DB0C22F8103061B1032FEFD84F
:105310007168496891F800C0D8F80010A7B90CF579
:10532000A27C41F82C70304A04F1080132F81130A7
:1053300023F01C0343EA870322F81130B3684BBB08
:105340002B4804B0BDE8F08101EB8C0143EA4C33FB
:10535000D1F810E52EF0030EC1F810E5D8F80010D2
:1053600001EB8C0E43F02003DEF8101522F810300C
:1053700021F44F3121F44071CEF810152902DEF8E6
:10538000108501F47C5141EA074141EA0801CEF859
:105390001015C8E7D3E900672846FFF7D9FE002EAD
:1053A000CED0114DD5E90023964203D19F4201D1C1
:1053B000002209E00F480DF10F01FFF759FD0C4BDA
:1053C0009842BED19DF80F2045F8326005EBC2032C
:1053D00008345F6035F8143043EA422343F48073A5
:1053E00025F81430ACE700BFB40500200400AD0B75
:1053F0000000AD0B200600202DE9F0430C4685B0DF
:105400008046204611461E46FFF734FE054629B366
:105410002046FFF765FE18B92046FFF76DFE18BB62
:10542000314F05F1080937F8193013F01C0F02D07D
:105430004B78012B18D001238DF80F300023CDE9D4
:1054400000134A1C8B1C20460DF10F0103F0CDFE0A
:1054500037F8193043F0030327F81930002E41D0F4
:105460002046FFF73DFE18B9204805B0BDE8F0839F
:1054700096F800C0D8F800301B4F0CF5A27200213E
:1054800043F8221005F1080237F8121021F020012C
:10549000C904C90C27F8121075781DB3D8F800009C
:1054A000B67800EB8C002D04D0F8103523F4991356
:1054B00023F4F853C0F81035230203F47C5305F4A9
:1054C00040353605D0F810E52B4306F4801641EA46
:1054D0004C31334341F0200143EA0E0327F8121008
:1054E000C0F810350248C0E7B40500200400AD0B39
:1054F0000000AD0B014BC3E902127047B405002058
:1055000010B508461446FFF7F7FD50B10846FFF7FF
:10551000B1FD054B083033F8103004485B0B2370A5
:1055200010BD0348FCE700BFB40500200000AD0B30
:105530000400AD0B70B5164D95F8744006462CBBB3
:105540002146542205F1100001F073FF30686E6EA1
:1055500021468E420ED10023C0F87C31D0F87C3138
:1055600040F30730FCF722FE01230A4885F8743027
:10557000EB6670BDCBB29B0003F580727C2B08BF3D
:10558000845001F1010108BF8358E2E70248F0E7C7
:10559000B40500200000AD0B0C00AD0B034B93F8DD
:1055A0007400003818BF0120704700BFB405002008
:1055B0000148FFF781BC00BF1C0600200148FFF72F
:1055C00057BC00BF1C06002073B503681646D3F80D
:1055D0000423002AA8BF4FF000420546A8BFC3F825
:1055E000042308460C46FFF787FD00B30846FFF783
:1055F00077FD0146D8B92046FFF766FD04B2A40046
:1056000004F5807203462868815029688258214435
:10561000D1F8102542F00102C1F810252EB12968F9
:10562000012202FA03F3C1F8043302B070BD204630
:10563000FFF720FD0F4B083033F81030C3F382031F
:10564000042B12D0052B12D001A80194FFF702FD04
:10565000019AD0F81035D34003F00103991C20467D
:1056600002B0BDE8704003F009BE0321F7E7022154
:10567000F5E700BFB40500202DE9F04F694BDFF8D6
:10568000A881D3F80403D8F86410C0B289B040F000
:105690000040FFF789FD051E2FDAC24600235AF8A5
:1056A000701F06A8CDE90633FFF732FD5F4B01936B
:1056B0000DF118094FF0000B019A12F8013B01920D
:1056C000DA0803F007031AF8022022FA03F3DA07D4
:1056D0001CD409F10409BBF1000F14D0D8F86410F0
:1056E0004FF00040FFF760FDD8F8701006A8FFF7F4
:1056F0000FFD0028DAD125F000450124002D79D1D5
:1057000009B0BDE8F08F4FF0010BD5E7484B5B4483
:105710000293D9F800100029DBD0029B91FAA1F185
:105720001C78B1FA81F141EA44142046FFF7A2FC4B
:105730000830059438F81070C808BB0819F8002024
:10574000039301F00701012303FA01F122EA0102A8
:1057500009F8002005A8FFF77DFC059A039B02F5D8
:10576000E072C7F3820650F822205B073746C2F387
:10577000014224D520463946D6B2FFF785FC05A85C
:105780000594FFF767FC059B03F5E07350F82330A1
:10579000C3F301439E4207D10021204603F06EFD72
:1057A0003146204603F06AFD05A80594FFF752FC38
:1057B000059B012202FA03F3C0F82035A9E7022A6B
:1057C0000CD10321204603F059FD06F00503012BFF
:1057D000EAD139462046FFF757FCE5E7022120468B
:1057E000039203F04BFD032EF3D0039A032ADBD17F
:1057F000022EEDE795FAA5F3B3FA83F304FA03F268
:105800009B0003F1804303F5C04325EA0205D3F86A
:105810001005D3F81015C0F30520C1F30141FFF7BF
:1058200033FC6BE700600040B4050020CBA500000E
:10583000CBA50000044AD2F80034DB07FBD5016099
:10584000BFF35F8F704700BF00E001404FF080530F
:105850001A69B0FBF2F302FB130373B9084B02227F
:10586000C3F80425C3F80805D3F80024D207FBD5F4
:1058700000220448C3F8042570470348704700BF5E
:1058800000E001400000AD0B0A00AD0B10B5054C67
:105890000123C4F80435FFF7CDFF0023C4F8043515
:1058A00010BD00BF00E0014001460148FFF7E0BA2B
:1058B0002C060020036803F01F025B09026004D07D
:1058C000012B034818BF002070474FF0A0407047DD
:1058D0000003005073B51646421C1C460546069B45
:1058E00018D0012902D1BBB103F074FD01A80195C4
:1058F000FFF7E0FF019B00EB83002402D0F80027B4
:10590000074B44EA86040C4313401C4344EA41011C
:10591000C0F8001702B070BD03F069FDE6E700BFF4
:10592000F0F8FCFF4B69184A934221D00DD8174A72
:1059300093421DD007D8164A934219D0154A934274
:1059400016D015487047154AF9E7154A934208D012
:1059500004D8144A93420BD0134AF0E7134A9342F7
:10596000EFD10279124B1348002A08BF184670473E
:1059700091F8213013B1CB680133F2D1CB690133F7
:10598000EFD10C48704700BF80841E0020A10700A3
:1059900048E8010090D003000400AD0B40420F0026
:1059A0000024F40000093D0000127A000048E801DC
:1059B0000300AD0B0000AD0B2DE9F04F874B4D6997
:1059C00090F804909D4285B006460C4600F0CE80CB
:1059D00000F2BE80824B9D4200F0CB8000F2B0808E
:1059E000804B9D4200F0C8807F4B9D420CBF4FF022
:1059F00080654FF080457D4F94F82300242202FB00
:105A00000973997F60F3000199773379217C02FB58
:105A100003739A7F61F341029A7794F82380B8F177
:105A2000000F34D16269724B9A420CBF4FF0030AE7
:105A30004FF0000A237E012B94BF00230123009323
:105A40002068534642460121FFF744FFCDF800800D
:105A50006068534642460121FFF73CFFCDF80080C5
:105A6000A27EA06853464146FFF734FF237C83F0B3
:105A700001030093E068534642460121FFF72AFFE5
:105A800001210091E06953464246FFF723FF337935
:105A9000002B7AD094F82130002B76D0242303FBFE
:105AA00009734FF0FF321A62A3680293D4E900BA77
:105AB000E36994F81290227E94F81980D4F80CE0EF
:105AC00094F810C094F8220003933379002B7AD015
:105AD00094F8201094F8244033687CB9029CC3F8F1
